:020000040804EE
:1000000000000824019006084D900608CD0B060854
:10001000D30B0608D90B0608DF0B0608000000000A
:10002000000000000000000000000000C9C6040835
:100030004D9006080000000063C7040873C7040859
:100040004D9006084D9006084D9006084D90060804
:100050004D9006084D9006084D9006084D900608F4
:100060004D9006084D9006084D9006084D900608E4
:100070004D9006084D9006084D9006084D900608D4
:100080004D9006084D9006084D900608959B060871
:10009000A59B0608A19B0608B19B06084D90060883
:1000A0004D9006084D9006084D9006084D900608A4
:1000B0004D9006084D9006084D9006084D90060894
:1000C0004D9006084D9006084D9006084D90060884
:1000D0004D9006084D9006084D9006084D90060874
:1000E0004D9006084D900608000000004D9006084F
:1000F0004D9006084D9006084D9006084D90060854
:100100004D900608798D06084D9006084D9006081A
:100110004D9006084D9006084D9006084D90060833
:100120004D9006084D9006084D9006084D90060823
:100130004D900608D7F604084D9006084D90060825
:100140004D9006084D9006080000000000000000D9
:100150004D9006084D9006084D9006084D900608F3
:100160004D9006084D9006084D9006084D900608E3
:100170004D9006084D9006084D90060800000000BE
:100180004D9006084D9006084D9006084D900608C3
:100190004D9006084D9006084D9006084D900608B3
:1001A0004D9006084D9006084D9006084D900608A3
:1001B0004D9006084D9006084D9006084D90060893
:1001C0004D9006084D9006084D9006084D90060883
:1001D0004D9006084D9006084D9006084D90060873
:1001E0004D9006084D9006084D9006084D90060863
:1001F0004D9006084D9006084D9006084D90060853
:100200004D9006084D9006084D9006084D90060842
:100210004D9006084D9006084D9006084D90060832
:100220004D9006084D9006084D9006084D90060822
:100230004D900608FD8F06084D9006084D90060863
:100240004D9006084D9006084D9006084D90060802
:100250004D9006084D9006084D9006084D900608F2
:100260004D9006084D9006084D9006084D900608E2
:100270004D9006084D9006084D9006084D900608D2
:100280004D9006084D9006084D90060800000000AD
:100290004D9006084D90060810B5054C237833B9EB
:1002A000044B13B10448AFF300800123237010BD49
:1002B000A018002400000000ACBA070808B5034BE2
:1002C0001BB103490348AFF3008008BD00000000E4
:1002D000A4180024ACBA0708154B002B08BF134B19
:1002E0009D46A3F5803A00218B460F461348144AD9
:1002F000121A30F075F90F4B002B00D098470E4BB7
:10030000002B00D098470020002104000D000D486C
:10031000002802D00C4821F013FB2FF061FC2000D4
:1003200029000EF0E5FB21F01FFD00BF00000800D2
:1003300000000824000000004DEA0408A018002472
:100340001820012441190608000000000020704711
:100350000022026042600A790270022282807047A5
:10036000002202604260142202701222428008229F
:100370008280012282717047044B10B5044640F818
:10038000083B21F087FF204610BD00BFD06507085D
:10039000044B10B5044640F8043B21F07BFF204697
:1003A00010BD00BFEC65070810B50446FFF7E4FF79
:1003B0003C21204621F048FD204610BD10B50446E2
:1003C000FFF7E6FF3421204621F03EFD204610BD18
:1003D000036810B504469B689847A368013BA36077
:1003E0002BB923682046DB68BDE81040184710BDD4
:1003F000F8B505461F460C4669B3072A2DD9061DD8
:10040000304621F00FFF6288238830469FED147A32
:1004100042EA0343E28907EE903AA38901242F635D
:10042000F8EEE77A42EA034285F82840C7EE876A89
:1004300007EE902AF8EEE77AC5ED0B6AC7EE876AF9
:10044000F5EEC06AF1EE10FACCBF2346002385F822
:10045000293021F005FF2046F8BD0020FCE700BF51
:1004600000007A4438B500F108040546204621F022
:10047000D9FE0023204685F82C30BDE8384021F015
:10048000EFBE38B5041D0546204621F0CBFE002303
:10049000204685F82830BDE8384021F0E1BE000054
:1004A0002DE9F041054698460C4631B3012A24D97E
:1004B00000F108070126384621F0B4FE85F82C60CB
:1004C00023883846DFED0E6A07EE103AB8EE477A19
:1004D00027EE267A85ED0D7AB4F90230C5F838801A
:1004E00007EE903AF8EEE77A67EEA67AC5ED0C7A59
:1004F00021F0B6FE3046BDE8F0810020FBE700BFEA
:10050000CDCCCC3D0022C2607047C3680BB19B6864
:10051000184770470021102210B504460170417041
:10052000043030F05DF8204610BD00002DE9F84F92
:10053000054600271E4B4FF0000905F1340805F170
:100540003C060324DFF86CA0BB4640F8043B21F0D6
:1005500061FE85F8287085F82970C5F82C902F6306
:1005600046F808AC304606F8047C21F053FE013C06
:1005700086F824B0C6F828903C36631C46F8109CD8
:1005800046F80CBCECD12846BDE8F88FC4F1030452
:100590003C2303FB0484444505D054F83C3D1B68D0
:1005A00020469847F7E72846FFF7F2FE2CF0E0FCDC
:1005B000EC650708D065070870B500F5927304462E
:1005C00000F134069E4208D0A3F13C0553F83C3CB0
:1005D00028461B6898472B46F4E72046FFF7D8FECD
:1005E000204670BD10B5044600F5947021F052FE0F
:1005F00004F1680021F0A2FF04F1180003F0CCF828
:10060000054B6069236028B14368013B43600BB927
:10061000FFF7DEFE204610BD286C070838B50446FB
:1006200000F5A16500F5C06021F034FE04F5B96065
:1006300021F030FE284621F081FF04F5BA7504F55B
:100640004470FFF7CFFF04F50E7021F023FE28461B
:1006500021F074FF04F15000FFF7AEFF204638BDD3
:10066000014800F063BB00BFBC180024014800F043
:10067000B2BD00BFBC18002410B504460021FFF72E
:1006800041FF204610BD10B50446FFF73EFF20464F
:1006900010BD00002DE9F347044605469A46164B67
:1006A00004F14006884645F8043B28469146FFF78A
:1006B000E3FF0021304621F00FFE04F154073846D5
:1006C00021F0A8FD0A9B4A46414620460093534626
:1006D00021F092FE0CE0384621F0DCFD304621F09E
:1006E0003AFE2846FFF7CFFF2CF042FCF6E7F8E78A
:1006F000204602B0BDE8F087B0A00708254BF7B54B
:10070000044600934FF480520023182104F1C006E0
:10071000FFF7C0FF0023304684F8BC3021F07AFD9B
:100720001022002104F1E40004F1F8072FF058FF33
:100730000023384684F8F4301D4621F06BFD04F5A3
:100740008E70FFF7E7FEC4F83051294604F59A7021
:1007500000F052F9012104F5A27000F04DF90221D8
:1007600004F5AA7000F048F9032104F5B27000F016
:1007700043F90CE0384621F08DFD304621F08AFD2A
:10078000204621F0DBFE2CF0F3FBF6E7F8E72046ED
:1007900003B0F0BD49660708F7B500234FF47A723D
:1007A000064604460146C0E90132C0E904333F4B26
:1007B00046F8183B304603F071FB3D4B04F16807E7
:1007C0004FF4C0521821009338460023FFF762FF10
:1007D000002504F5947084F8245184F8255184F898
:1007E000265121F017FD13E0384621F0A7FE3046D0
:1007F00002F0D2FF2F4B6069236028B14368013BB0
:1008000043600BB9FFF7E4FD2CF0B2FBEFE7F1E733
:10081000002640220021C4F84C5184F8505104F5C0
:10082000AE7084F85151C4F85461C4F858512FF097
:10083000D7FE84F89C5184F89D5104F5D270C4F819
:10084000A061FFF767FE0123204684F8B85184F8C1
:10085000D5314FF47A7384F8BC5184F8BD5184F8D3
:10086000BE5184F8BF5184F8C05184F8C151C4F816
:10087000C451C4F8C851C4F8CC51C4F8D05184F85C
:10088000D45184F8D651C4F8D851C4F8DC51C4F816
:10089000E051C4F8E451C4F8E831C4F8EC51C4F8AC
:1008A000F051C4F8F45103B0F0BD00BF086607086A
:1008B00044660708286C07082DE9F743044600251D
:1008C000002304F150070570836304F5BA76457080
:1008D0008570C5700571457105744574857480F81F
:1008E000245080F82550056380F8345080F8355046
:1008F000C0E90255C0E90555C0E90755C0E90A55E8
:100900003C30FFF707FE3846FFF710FE00952B46F8
:100910004FF4805218213046FFF7BCFE04F50E78E4
:1009200084F83052C4F83452404621F073FCA022BF
:10093000294604F5177004F544792FF051FE012380
:10094000A4F8FC52484684F8603284F8743284F883
:10095000883284F89C3284F8B03284F8C43284F847
:10096000D83284F8EC3284F8FE52C4F80053C4F84C
:100970000453C4F80853C4F80C53FFF70DFF07E005
:10098000304621F0DBFD3846FFF716FE2CF0F0FA7A
:1009900004F5A160FFF7B2FE08E04846FFF722FE2B
:1009A000404621F077FCEBE7FAE7ECE7204684F8D5
:1009B0007C5684F87D56C4F88056C4F88456C4F832
:1009C000885603B0BDE8F08310B5054C2046FFF70C
:1009D00073FF2046034A0449BDE8104020F0AEBF33
:1009E000BC180024000000241D060408014802F081
:1009F00057B900BFE0320024002303294FF0000262
:100A0000017043708370037398BF0123426082605A
:100A100098BF41708370704707EE901AF5EEC07A68
:100A2000F1EE10FA0AD4B7EE007AF4EE477AF1EE5E
:100A300010FA77FE277AC0ED027A7047DFED017A6F
:100A4000F9E700BF000000000023836070474068A2
:100A5000704780687047000007EE902AF8EE676ADA
:100A6000DFED1A7A86EEA77ADFED197AD0ED016A0A
:100A700027EE277AD0ED027AD9B137EE267AB4EE96
:100A8000E77AF1EE10FA77FE877AC0ED017AD0EDC1
:100A9000017AF5EEC07AF1EE10FA14D4B7EE007ACE
:100AA000F4EE477AF1EE10FA77FE277AC0ED017A7C
:100AB000704736EEC77AB4EEE77AF1EE10FA58BF17
:100AC000F0EE477AE1E7DFED037AEFE700007A44E2
:100AD000CDCC4C3E00000000D0ED017A07EE101A9C
:100AE00077EE277A90ED027AB4EEE77AF1EE10FA1B
:100AF000CCBF012000207047D0ED017A07EE101A1C
:100B000077EEC77A90ED027AB4EEE77AF1EE10FA5A
:100B10004CBF01200020704738B5837804460D464D
:100B200013B90025284638BD407800F029FD00287B
:100B3000F7D0B5FA85F00121400900F0BBFC012295
:100B40006078114600F0E8FC054610B101232373DC
:100B5000E8E720730249034801F083F8E2E700BFA9
:100B600051660708666607080021FFF7D5BF012117
:100B7000FFF7D2BF837810B5044683B1037B33B14E
:100B800000224078114600F0C7FC0023237300F0D8
:100B9000E1FC014618B9BDE8104000F08BBC10BD67
:100BA00000224260826000220273FFF7E3BFFFF77A
:100BB000E1BF000030B5002404704470002444609C
:100BC00014786CB3B3EE027AD2ED017AF4EEC77A00
:100BD000F1EE10FA0CDB4C6804B94B604C681C1B3E
:100BE000B4F5FA6F24BF01240C7000248C6015E06A
:100BF0000C7814B3B2EE087AF4EEC77AF1EE10FA7C
:100C00001BD88C6804B98B608C6842F20F751C1B72
:100C1000AC424FF0000488BF0C704C6054787CB933
:100C20004C788CB1CC6804B9CB60CC681B1B1A4CD7
:100C3000A34284BF00234B7006E000244C60D5E73C
:100C400001234B700023CB600B7813B10123037099
:100C500030BD4B78002BF9D192F84C10037009B9D4
:100C60000E4B0BE0F3EE077A92ED147AB4EEE77ACE
:100C7000F1EE10FA04DD01234370094B4360E7E70E
:100C800092ED157ADFED077AB4EEE77AF1EE10FA1D
:100C9000F1DC4370E4E700BFDF930400CDCC4C3EB1
:100CA0006666263F00009C420D4808B50378BFF3F6
:100CB0005B8FDB070DD420F051FE50B109481DF0C9
:100CC000F1F8074820F06CFE074A0849054820F073
:100CD00035FE044808BD024821F06AF82CF048F9B6
:100CE000481F00244C1F002400000024ABDE050830
:100CF0002DE9F04100F1080706460D4690463846BA
:100D000021F090FA96F82C4044B1B46B34B1AC4267
:100D10000AD82C1B44458CBF00240124384621F0FE
:100D20009FFA2046BDE8F0810024F7E72DE9F8435B
:100D300040F2DC5104464FF4E130002500F0E8FFBA
:100D40003349344804F5A16700F086FF04F5447880
:100D5000FFF7AAFF4FF4FA511DF0BCF82E4806F039
:100D6000B3FE04F18C0600F023FB4FF03C0938463B
:100D700000F072FC404601F051FC304621F052FA7E
:100D800009FB054010220021B03001352FF028FC6E
:100D9000304621F065FA042D06F13C06EDD104F150
:100DA0005406002504F15009304621F03BFA304644
:100DB000C4F88050C4E91E5521F052FA494604F5A2
:100DC000BA7001F011FB404601F026FF384600F0F2
:100DD00037FE12490F4800F03FFF01231422294635
:100DE00023700023657004F13C00A363A570E570D7
:100DF0002571657184F8345084F835502FF0F0FB7C
:100E00000BF0ECFAA0600BF0E9FAE060BDE8F883C3
:100E1000C1660708C9660708C8370024D6660708F0
:100E20002DE9F0418AB000F5BA7804460F4604ADCA
:100E3000414604A804F1100601F06AFA0FCD0FC66E
:100E40002B686D4604F544713360284601F02BFC95
:100E500004F1240695E80F0086E80F00637C002B60
:100E600041D1A370A36A002B49D10123E370A37879
:100E70003BB123792BB93449344800F0F2FE012309
:100E80002371A37803B92371E3783BB163792BB95C
:100E90002F492E4800F0E5FE01236371E37803B982
:100EA000637104F1840543F6982239462846FFF71A
:100EB0001FFF10B13C354545F5D1A37813B9E37850
:100EC00003B9A37C2278012A21D1002838D0002B35
:100ED00036D102231F49627023701C480AB0BDE856
:100EE000F04100F0B9BE63690BB90123B9E7FB1A01
:100EF00042F21072934294BF00230123B1E7FB1A20
:100F000041F28832934294BF00230123AEE7022AC4
:100F10000CD100B1A3B103230F490C482370002367
:100F200063700AB0BDE8F04100F09BBE032A07D110
:100F300030B12BB902230949237001236370CCE738
:100F40000AB0BDE8F08100BF78660708C9660708E7
:100F50008E660708A2660708AE660708B766070828
:100F60002DE9F04F2DED028BABB000F5A16A0446E0
:100F70008B466D465146684604F13C0600F0C7FBBF
:100F80000DF14C089FED458A04F18C094746F0EEBF
:100F9000488A0FCD0FC62B68582200214046336087
:100FA00004F154062FF01CFBCDF8A4B0304608AD78
:100FB00021F038F904F1780393E8070085E8070089
:100FC00030460FAE21F04CF995E80700002588E87F
:100FD0000700484621F026F909F124030FCB86E8E3
:100FE0000F00484621F03CF907F10C0C96E80F0081
:100FF0008CE80F003B7B4BB1D7ED047A013578EEDE
:10100000A78AD7ED057AEDB238EE278A103723ABE1
:1010100009F13C099F42DCD175B107EE905A0123DA
:10102000F8EE677A8DF8983088EEA77A8DED277AFA
:1010300088EE277A8DED287A627806AD22B35B467A
:10104000424604F27C612846FFF7B4FD9DF8186023
:101050009DF81920079B8DF8186034348DF81920FD
:1010600007930B930C930D9395E8030084E803001A
:101070006EB90E9332460BA9504600F02FFB2BB0F1
:10108000BDEC028BBDE8F08F00230126E3E71022C0
:1010900000210BA82FF0A4FAECE700BF000000002D
:1010A0002DE9F041B0B0044668220F4616AE04F1B7
:1010B0005408002101AD30462FF092FA40461597B2
:1010C00021F0B0F804F1780393E8070085E8070001
:1010D00040464FF0010821F0C3F895E8070008AD3D
:1010E00086E8070004F18C06304621F09BF806F1F3
:1010F00024030FCB85E80F0030463C3621F0B0F8D2
:1011000015AB03EB081C08F1010895E80F00B8F1D6
:10111000050F8CE80F00E7D104F1340229AB04F18C
:101120003C062BAD04F5BA7892E8030083E803008F
:101130000FCE0FC5336804A82B6004F1840500F0BE
:101140003BFA43F6982239462846FFF7D1FD06467A
:1011500010B13C35A845F4D1162200210DF136001E
:101160002FF03EFA2378A2780CA98DF830306378FE
:101170008DF835208DF8313001238DF833608DF8EE
:101180003230A37C002B08BF13468DF834306369DE
:101190000E93A3690F93E3691093236A04F54474D3
:1011A000119320469DF811308DF848309DF813308A
:1011B0008DF849309DF814308DF84A30069B139312
:1011C000079B149301F058FA15A9204601F03CFA48
:1011D00030B0BDE8F08138B5044600F047FD0BF0B3
:1011E000FDF8054600F034F920462946FFF718FEC1
:1011F000FFF75AFD1CF05AFEA368EB1AB3F5FA6F1D
:1012000004D329462046FFF7ABFEA560E36847F20A
:101210002F52EB1A934204D929462046FFF740FF8C
:10122000E5600520BDE8384021F09CB8F8B5FF2303
:101230000D4D0E4800242B7005F027FE0B4F06467F
:10124000B4420FDAE1B2384605F016FE0238012842
:1012500006D801202C70064B1870064B1870F8BD8C
:101260000134EDE70020F6E704000024C83700242D
:10127000531F0024541F002403282DE9F84F07466C
:101280000E46914601D900200BE01AD058B9012032
:101290000BF07EF9314609200BF07AF92F4B012033
:1012A000DE55BDE8F88F012805D102200BF070F95A
:1012B00031460820F0E703200BF06AF93146992007
:1012C000EAE7274BDFF8BCA093F90010DFF8B880FD
:1012D0000029244C05DB244B1B7813B1234B1B78CE
:1012E0001BB900238AF8003006E0214805F072FDA2
:1012F000054698B98AF8000001231E4A88F8003094
:10130000136801331360236801332360B9F1000FC0
:10131000B9D01949194800F0A4FCB4E7184B1A7861
:10132000C6B142F001021A7041F652712A6828468D
:10133000D2F810B01A78D8472B68012128461B6ACA
:1013400098470028CDD1012388F8000020608AF852
:101350000030A3E722F00102E5E700BF4F1F0024A1
:1013600004000024641F0024531F0024541F002481
:10137000C8370024601F0024E7660708FA660708DC
:101380005C1F002405000024681F002410B5002401
:101390000022E0B201341146FFF76EFF042CF7D1B2
:1013A00010BD10B50446006820F05AFF204610BD5D
:1013B00013B5224802AC44F8040D20F033FF01219C
:1013C00000200BF061F8012107200BF05DF80121EE
:1013D00008460BF059F8012109200BF055F80121BE
:1013E00002200BF051F8012108200BF04DF80121EB
:1013F00003200BF049F8012199200BF045F800215A
:101400000F4B084619700BF0C3F8002107200BF0B2
:10141000BFF8FFF7BBFFFFF709FF0A4B01220A499C
:101420000A481A7000F018FC2046FFF7BAFF02B015
:1014300010BD2046FFF7B5FF2BF09AFD6C1F00246E
:101440004E1F00244D1F002458930708FA66070812
:1014500013B5134802AC44F8040D20F0E3FE0AF083
:10146000BDFF104B1B7823B12046FFF79AFF02B057
:1014700010BD0D4A41F287311368C31A8B42F3D96C
:101480001060FFF7D3FE0028EED00849084800F0AE
:10149000E3FBE9E72046FFF784FF2BF069FD00BF7F
:1014A0006C1F0024531F0024581F002400670708E6
:1014B000FA66070873B504460E461448144D0190A9
:1014C00020F0B0FE4EB12B78A34206D00023114A83
:1014D000995C89B90133042BFAD1214600202C7084
:1014E0000BF056F8214607200BF052F807E001A850
:1014F000FFF757FF2BF03CFDFFF748FFEDE701A892
:10150000FFF74FFF012002B070BD00BF6C1F002429
:101510004E1F00244F1F0024F7B505460E460C4809
:10152000174602AC44F8040D20F07CFE3A463146E2
:101530002846FFF7A1FE04E02046FFF732FF2BF01C
:1015400017FD05462046FFF72CFF284603B0F0BDE7
:101550006C1F002413B50848019020F063FE00239F
:10156000064A9C5C14B90133042BFAD101A8FFF799
:1015700018FF204602B010BD6C1F00244F1F00242E
:1015800013B504460948019020F04CFE022C0AD9FC
:10159000074B1C780CB1074B1C7801A8FFF701FF23
:1015A000204602B010BD0124F7E700BF6C1F0024E5
:1015B000531F0024541F002437B5044602AD1148C0
:1015C00045F8040D20F02EFE0023284663600E4BE4
:1015D0001B7823700D4B1B7863700D4B1B78A37029
:1015E0000C4B1B78E3700C4B1B7823710B4B1B6867
:1015F000A3600B4B1B68E360FFF7D3FE204603B0EC
:1016000030BD00BF6C1F00244D1F0024531F002459
:10161000541F002405000024681F0024601F0024BC
:10162000641F002410B5054C204620F0F3FD204631
:10163000034A0449BDE8104020F080B96C1F002423
:10164000000000249522060870470B6803604B6871
:1016500043608B6883607047F0B5054687B000F53E
:101660009A701026FFF79CFA05F5A270FFF798FA1A
:1016700005F5AA70FFF794FA05F5B270FFF790FA36
:1016800006AC05F1C000002744F8140D20F0CAFD97
:101690003246002105F1E4002EF0A2FF85F8F47037
:1016A0002046FFF77EFE05F1F800009020F0BAFD1D
:1016B0003246394602A8019705F58E762EF090FF46
:1016C0000FCC0FC62368684633600123C5F830711C
:1016D00085F81C31FFF765FE07B0F0BD2DE9F34139
:1016E00007460D46C03002AE904607F1E40446F8C6
:1016F000040D20F097FD95E80F0084E80F0087F8AF
:10170000F4803046FFF74DFE02B0BDE8F081F7B53A
:101710000C46074602AE01F1F80004F58E743D4612
:1017200046F8040D20F07EFD0FCC0FC5236830462F
:101730002B60FFF736FE384603B0F0BD2DE9F04FC1
:1017400005462DED028B9FED9C8A93B0BFF35B8F16
:1017500095F8BC3005F59A76BFF35B8FBBB9304680
:10176000FFF725FA05F5A270FFF721FA05F5AA7033
:10177000FFF71DFA05F5B270FFF719FA8F49904887
:1017800000F06AFA13B0BDEC028BBDE8F08F0AF0EE
:1017900025FE019005F1C00009ACB146B0460D90A0
:1017A00020F040FD05F1E40300270FCB84E80F0093
:1017B00095F8F4300DA80093FFF7F3FD009B002B84
:1017C00000F0DC804046FFF73FF9013708F11008D0
:1017D000042FF3D10024B2460DF1140B2746A04686
:1017E000CDE90444CDE90644009B002B00F0CD80F8
:1017F0005046FFF72CF907EE900AF4EEC87AF1EEA6
:1018000010FACCBF01220022002F08BF17460BF8A8
:10181000042001340AF1100A042CE5D1B8F1000FBC
:1018200038D0002406AB012204A9095D49B106EBBA
:101830000410CDE90232FFF797F9DDE9023200B179
:10184000E2540134042CEFD14FF4FA7006AC20F0CE
:1018500089FD00231A5D2AB106EB03100293FFF7FE
:10186000A6F9029B0133042BF4D1FFF773FE014666
:1018700008B9FFF71FFE0023E25C42B106EB03103C
:101880004FF4FA7201210293FFF7E6F8029B01334D
:10189000042BF1D1E7B3002407AB01221BF804109D
:1018A00049B106EB0410CDE90232FFF760F9DDE93A
:1018B000023200B1E2540134042CEFD14FF0000B9E
:1018C00007AC4FF4FA7020F04DFD1BF804301BB14B
:1018D00006EB0B10FFF76BF90BF1010BBBF1040FDB
:1018E000F3D1FFF737FE014608B9FFF7E3FD4FF0EC
:1018F000000B14F80B3033B14FF4FA72002106EBF1
:101900000B10FFF7A9F80BF1010BBBF1040FF0D19D
:101910000EAC05F5BA76122200210DF136002EF03C
:101920005FFE484609F11009FFF793F844F8040BED
:101930004E45F6D105F1F8000DAC05F58E76089010
:1019400020F070FC01238DF834309DF800308DF8C4
:1019500035300FCC0FC6236808A83360019BC5F84B
:101960003031FFF71EFDB8F1000F7FF4EFAE002F0E
:101970007FF4ECAE642020F0F5FCE7E604EB87038F
:1019800040461968FFF748F81FE70E495046FFF731
:10199000A3F804AB0290185550460A49FFF7ACF87B
:1019A000029A0BF80400002F08BF0746B8F1000F99
:1019B00008BF90462DE700BF6F12833A30670708D3
:1019C000386707080AD7A33C10B4D0E90034096887
:1019D0006210E4075DF8044B01EB020044BF8A5833
:1019E000D35818470146043008B5FFF7EDFF08BD8E
:1019F000034A0346C26007C983E80700704700BF77
:101A00001067070810B586B004460391684606A91A
:101A100080E80C0001E90C00204603A9FFF7E8FF6D
:101A2000204606B010BD37B56C46054684E80C006C
:101A300094E80C00FFF7E6FF284603B030BD000035
:101A400030B5BFF35B8F90F8BC3087B00446BFF36E
:101A50005B8F03F0FF0223BB0123BFF35B8F0146C3
:101A600080F8BC30BFF35B8F114B02A8CDE9003288
:101A70006B460CCBFFF7D7FF02A9204620F086FD6E
:101A8000054602A8FEF7FFFD5DB10023BFF35B8FA3
:101A9000084A022084F8BC30BFF35B8F064900F08F
:101AA00015F807B030BD02A8FEF7EDFD2BF060FA87
:101AB0003D1704081C6707083867070808B5FFF7D3
:101AC00091FF08BD08B5FFF7F9FF08BD2DE9F04704
:101AD0001E4F81461E488846924620F0A3FB386878
:101AE0001C4B451C1B6805F01F05AB4228D09924F0
:101AF000194E1A4B18214443194AB8F1000F18BF68
:101B00004346601C06F8049006EB04084FF00009F9
:101B100030442EF087FF04F11900124B802188F821
:101B200018903044CA4518BF53460D4A2EF07AFF2C
:101B300088F898903D600648BDE8F04720F090BBDB
:101B40000348BDE8F04720F08BBB00BF941F002482
:101B5000981F0024901F0024C01F0024546707080A
:101B60007C670708DC9907080CB470B5C2B005465D
:101B70000E464FF4807146AB02AC53F8042B20465E
:101B8000019333F0AFF80023074A31469842A8BFCB
:101B90002246284684F8FF30FFF798FF42B0BDE8A0
:101BA000704002B0704700BF47670708012806D0A1
:101BB000044B054A02280CBF1846104670470348DC
:101BC000704700BF63670708596707085E67070823
:101BD0001B4B1B68F0B50746E5B00C46154633B302
:101BE000182104A89847002638468DF82760FFF78B
:101BF000DDFF144B4FF4B47100900AA8B44208BF43
:101C00001C46114B114AB54208BF1D4604ABCDE935
:101C100001452EF007FF0E488DF88F6108F06AFD30
:101C200018B10AA90A480AF01BFB65B0F0BD0AF01A
:101C3000D5FB084A0346182104A82EF0F3FED2E78C
:101C4000BC1F002454670708DC9907086F67070862
:101C500030430024696707080A4601460020FFF761
:101C6000B7BF0A4601460120FFF7B2BF2DE9F04198
:101C700000251A4EDFF87080ADF5995D184F1948B0
:101C800020F0D0FA3468D8F800309C420FD0202DD4
:101C90000DD099226B4602FB0471013402FB053022
:101CA000013504F01F042EF09DFB3460EAE70D4877
:101CB0000DF1010420F0D4FA992303FB0545AC4251
:101CC00008D004F11802214614F8010C9934FFF7EA
:101CD0007FFFF4E70DF5995DBDE8F081901F0024CA
:101CE000C01F0024981F0024941F002410B5054C29
:101CF000204620F08FFA2046034A0449BDE81040F0
:101D00001FF01CBE981F0024000000249522060826
:101D100070B50C460146084808F0D0FE064E0AF0A1
:101D20005DFB0546304608F0E5FC20B90AF056FB9D
:101D3000401BA042F6D370BD30430024D0F8903150
:101D4000022B06D8D0F89401022894BF002001206D
:101D500070470120704710B504460AF03FFBBFF3FF
:101D60005B8FC4F8C000BFF35B8F10BD2DE9F74354
:101D70000B9C064617469946BDF828506CB365B3D0
:101D800001290CBF4FF003084FF00208FFF7E3FFF3
:101D900000954B4642463946134806F0D7FF854228
:101DA0001BD1A71E04EB45040F4D3046023CFFF744
:101DB000D2FFA74215D03046FFF7CDFF284607F0E7
:101DC0000CF850B1284607F00AF8002805DB27F880
:101DD000020F3046FFF7BFFFEBE7002003B0BDE87E
:101DE000F0830120FAE700BF843E002473B5B2B14E
:101DF0000E78731EDBB2F62B11D88C88631E0F2B66
:101E00000DD84B881D19013DB5F5803F07D2897962
:101E1000CDE900423246FFF7A9FF02B070BD0020B5
:101E2000FBE700002DE9F7430A9F05460C461646DE
:101E30009846FFF7DBFF20B10126304603B0BDE82E
:101E4000F0832846FFF787FF0F2020F08BFA3246F9
:101E500021462846FFF7CAFF06460028ECD128464F
:101E6000FFF779FFA3792846012B0CBF4FF0030938
:101E70004FF00209FFF76FFFA288638800924A467D
:101E80002178074806F062FFB8F1000F01D0C8F8CA
:101E90000000002FD1D0024806F09FFF3860CCE749
:101EA000843E00242DE9F043044685B088469146DF
:101EB0001E4623B90024204605B0BDE8F0830B6818
:101EC00002A89B6898479DF80830013BDBB2F62BCF
:101ED000F0D8BDF80C20531E0F2BEBD8BDF80A30FC
:101EE0001344013BB3F5803FE4D204F1C40004AFD6
:101EF00047F80C0D20F096F994F88851072D24D856
:101F00000AF06CFA1422082E9DF8301002FB0542EC
:101F10008CBFF3080023C2F8F060861BC2F8E8808B
:101F200003FB0565002382F8EC9082F8ED10C2F8FF
:101F3000F45082F8F83094F88831013384F888310D
:101F400001243846FFF72DFAB5E70024F9E73846B3
:101F5000FFF727FA2BF00CF873B5D0F8983147F259
:101F60002F520446CB1A934226D9224A04F1C405C3
:101F7000C0F8981101202049FFF7A8FD1F4806F07E
:101F8000D3FE322020F0EEF940F213434FF4165204
:101F90001B491A4806F0AEFF064678B9194A0220D6
:101FA0001549FFF793FD2846019520F03BF984F889
:101FB0008A6101A8FFF7F5F902B070BD40F6AC5296
:101FC0000F48114608F0FEF84FF4FA710B4806F07E
:101FD0002FFF2846019520F025F9012301A884F858
:101FE0008A31FFF7DEF9084A03490020FFF76EFD4A
:101FF000E2E700BF196807082B680708843E002441
:10200000FC3E0024396807085068070837B50446C5
:102010000D46C430019020F005F935B9C4F890514F
:1020200001A8FFF7BEF903B030BD0023C4F8943116
:10203000F6E737B50446C4300D46019020F0F2F8BB
:10204000D4F88C310133C4F88C314DB9D4F89031C7
:102050000133C4F8903101A8FFF7A3F903B030BDF4
:10206000D4F894310133C4F89431F4E72DE9F04FFA
:102070009DB000F1C40504460DF1700928460A918F
:1020800049F8205D20F0CEF894F88871484694F81D
:1020900089310B93FFF785F9002F00F0D8804FF0BE
:1020A000000A5FFA8AF39F4240F2D1800B9B2846D8
:1020B0001495534493FBF7F607FB1633099320F06E
:1020C000B1F81423099A5343E833E11854F8038014
:1020D0004B7991F804B00C93D1E90203B8F1000FE9
:1020E00000F0B8800A9AD31A834234BF0023012338
:1020F00048460D93FFF755F90D9B0AF1010A002B95
:10210000CFD0D8F80030414612A89DF824A09B6893
:1021100098472022002148462EF062FA4FF0FF3304
:102120004A4612A92046CDE90F3310AB00930FABFE
:10213000FFF778FE099B01330B93002840F08C8059
:102140009DF84E30614A012B614B62480CBF49211A
:102150004821BBF1000F14BF914699460D9106F03E
:102160005AFE5D4B0D99002808BF1846109B02913E
:1021700006930F9B079001200593BDF84C30574AFA
:102180000493BDF84A30564903939DF848300193B3
:102190000C9B00934B46FFF7E7FC2846119520F077
:1021A00041F894F88831534540F284801423099A09
:1021B00003FB024393F8F89009F101095FFA89F9EA
:1021C00083F8F89011A8FFF7ECF8B9F1040F15D9CE
:1021D0000A992046FFF7C0FE2846119520F022F804
:1021E00094F88831534506D9099A142303FB024316
:1021F000002283F8F82011A8FFF7D3F8D8F80030B0
:1022000040461B69984759462046FFF712FF28466B
:10221000119520F007F894F88831534506D9142316
:10222000099A03FB02460A9BC6F8F4300B9B11A8DF
:102230000B9AB3FBF7F307FB132784F88971FFF7B9
:10224000B0F82046FFF787FD642020F08BF81DB022
:10225000BDE8F08F43464BE7D8F800304946BDF85B
:102260004C204046DB681E460A9BB04700283FF4DE
:1022700067AF284611951FF0D5FF94F88831534574
:1022800006D9099A142303FB0243002283F8F8209D
:1022900011A8FFF786F89DF84830BBF1000F0CD16C
:1022A000104A58460E49FFF75FFC59462046FFF793
:1022B000ADFEACE74FF0000984E7009300200C9BD3
:1022C000094A0749FFF750FCEFE700BF946707088A
:1022D0008C670708843E0024986707089D670708F5
:1022E0002B680708F36707080768070810B5044656
:1022F0002046FFF730FD0AF071F801462046FFF74F
:10230000B5FE2046FFF727FD142020F02BF8EFE75D
:1023100073B50D46044612220021023002AE2EF0A3
:102320005FF905F1C40046F8040D1FF07BFF95F836
:102330008A312846237095F8BC306370BFF35B8FF9
:10234000D5F8C030BFF35B8F6360D5F88C31A360E4
:10235000D5F89031E360D5F894312361FFF7EEFCB6
:10236000A0703046FFF71DF8204602B070BD10B4D3
:10237000D0E9003409686210E4075DF8044B01EB12
:10238000020044BF8A58D35818470146043008B5A4
:10239000FFF7EDFF08BD0000034A0346C26007C90E
:1023A00083E80700704700BF8067070810B586B054
:1023B00004460391684606A980E80C0001E90C0078
:1023C000204603A9FFF7E8FF204606B010BD37B549
:1023D0006C46054684E80C0094E80C00FFF7E6FF25
:1023E000284603B030BD00002DE9F04F90F8BC60E6
:1023F00089B004460F46002E65D100F1C405284679
:1024000004951FF00FFF224604F1A0010120A4F85B
:102410008861C2F8E86082F8EC0082F8ED6082F82A
:10242000F860C2E93C6614328A42F2D1C4F88C6189
:10243000C4F89061C4F89461C4F8986109F0CEFFC3
:10244000BFF35B8F4FF00009C4F8C00004A8BFF3CE
:102450005B8FDFF87CB1FEF7A4FF5C4A5C4900208B
:10246000FFF734FB09EB49035A4A13F80280B8F12D
:10247000000F2BD1381D04901FF0D4FEC7F8308018
:1024800004A8C7E90A88FEF78CFF09F10109B9F130
:10249000030FE7D140F213434FF416524E494F4811
:1024A00006F028FD0646002845D14D4A012048493E
:1024B000FFF70CFB284604951FF0B4FE84F88A61F0
:1024C00004A8FEF76EFF09B0BDE8F08FB8F1010F68
:1024D000DBD1404A13445E78032E06D93346414A85
:1024E00059460220FFF740FBCFE7C6EB06109B786A
:1024F000800000F1340A3C30BA4438448AF8043091
:1025000004901FF08FFE3C201022002100FB06707B
:1025100060302EF065F804A8FEF743FF009641F204
:102520008833424651462046FFF7BCFC0028ACD118
:1025300033462D4AD4E740F6AC522748114607F0FF
:1025400041FE4FF4FA71254806F072FC274A2049F3
:102550000020FFF7BBFA284604951FF063FE012315
:1025600004A884F88A31FEF71CFF214B214604A8F9
:1025700002930023039302AB0CCBFFF728FF04A9BF
:10258000204620F003F8064604A8FEF77CF87EB14A
:10259000284604951FF046FE002304A884F88A31DB
:1025A000FEF7FFFE134A0A490220FFF78FFA8AE777
:1025B000012384F8BC3086E704A8FEF7F2FE2AF077
:1025C000D7FC04A8FEF75FF8F9E700BF5D680708CD
:1025D0002B680708C9680708FC3E0024843E0024D5
:1025E000AB6807087668070895680708BF6807089A
:1025F000ED2204081C67070808B5FFF7C6FE08BDF2
:1026000008B5FFF7F9FF08BDBFF35B8F0078BFF394
:102610005B8F003018BF01207047000010B500F13B
:10262000180440F25B720749204601F01BFC4FF48E
:102630002071204601F01AFC20461E21BDE8104002
:1026400001F048BC7E69070873B505460E4600F5E3
:10265000947002AC44F8040D1FF0E4FD6C22314686
:1026600005F5A6702DF0BEFE0123204685F8B83191
:10267000FEF797FE02B070BD73B5044602AE00F5DA
:1026800094700D4604F5DE7446F8040D1FF0CAFD83
:102690000FCD0FC40FCD0FC42B6830462360FEF75B
:1026A00080FE02B070BD002373B504460D46438022
:1026B00002AE01F5947046F8040D1FF0B3FD05213C
:1026C00005F59370FFF7A0FF0521207005F2251096
:1026D000FFF79AFFD5F8EC31607030466360D5F8AB
:1026E000F031A360D5F8F431E360FEF75AFE2046DE
:1026F00002B070BD37B5054602AC00F5947044F8E1
:10270000040D1FF08FFD09F069FEC5F8EC012046AD
:10271000FEF747FE03B030BD2046FEF742FE2AF02A
:1027200027FC000038B50446FFF7E4FF4FF47A6356
:102730004EF660221149124800F004FB054620467F
:1027400075B9FFF7D7FF0F4A0F490120BFF35B8F21
:1027500084F82551BFF35B8FBDE83840FFF7B6B969
:10276000FFF7C8FF0123BFF35B8F084A84F82531C8
:102770000020BFF35B8F0449EEE700BF0600002492
:10278000E0320024E0680708EC680708F4680708EE
:1027900038B504460D4600F225100521FFF734FF39
:1027A00068B9D4F8E03141F28732EB1A93420ED97E
:1027B000C4F8E0512046BDE83840FFF7B3BF2046DB
:1027C000FFF798FF2046BDE83840FFF793BF38BDBC
:1027D000F7B500F1180604460F46304601F007F938
:1027E000054688BBBFF35B8F052184F8260104F200
:1027F0002510BFF35B8FFFF707FF28B3D4F8E43150
:10280000D4F8E821FB1A93421ED32046C4F8E471A1
:10281000FFF770FF1F4B204A3046204901F006FAAF
:10282000A0B12046FFF766FF0123BFF35B8F1C4A70
:1028300084F826312846BFF35B8F1A49FFF746F923
:102840004FF47A73C4F8E83103B0F0BD204602AD0E
:10285000FFF750FF144A13490120FFF737F904F539
:10286000947045F8040D1FF0DDFCD4F8F0312846D3
:102870000133C4F8F031FEF794FDD4F8E83147F2A3
:1028800030525B00934294BFC4F8E831C4F8E821A9
:10289000DAE700BFFF680708256907081769070816
:1028A0002A69070834690708406907082DE9F04FCD
:1028B0000446B3B08B4600F5937005211D46914642
:1028C000FFF7A2FE0521209004F225100DF1C808A3
:1028D000FFF79AFE824604F5947048F8040D1FF045
:1028E000A1FC94F8BC314046D4F8D811219394F857
:1028F000BD312F91229394F8BE31D4F8C461239353
:1029000094F8BF31D4F8EC71249394F8C031259336
:1029100094F8C1312693D4F8C8312793D4F8CC3138
:102920002893D4F8D031299394F8D4312A9394F889
:10293000D5312B9394F8D6312C93D4F8DC312D93E8
:10294000D4F8F0312E93D4F8F441FEF72AFD9FED30
:10295000397A284605F1400C0023F0EE476A2F999A
:10296000027C4AB1D0ED057A013376EEA76AD0ED4C
:10297000067ADBB237EE277A10306045F0D13BB1F2
:1029800007EE903AF8EE677AC6EEA76A87EE277AE6
:102990002D9A58462B689E42B7EEC77A94BF9E1B6D
:1029A00000269F42119694BFDF1B0027CDE91D1220
:1029B0002C9A49461C922B9A1B922A9ACDE91942CD
:1029C0002E9ACDE917A2209A1692299A1592289A42
:1029D0001492279ACDE91272269A1092259A0F9294
:1029E000249A0E92239A0D92229A95ED155A0C92E2
:1029F000219AB7EEC55A8DED067BB7EEE67A0B92BB
:102A000095F850208DED047B95ED027A0A92B7EE91
:102A1000C77A6A798DED085B0292074A8DED007BDB
:102A20002EF000F8814594BF0020012033B0BDE8AE
:102A3000F08F00BF000000008C69070870B50446E5
:102A4000ADF51C7D6C22002104F5947501A82DF0D4
:102A5000C7FD28461C951FF0E5FB94F8B86146B108
:102A60006C2204F5A67101A82DF0BCFC002384F8AB
:102A7000B8311CA8FEF795FCA6B304F11806304641
:102A800000F0B5FF70B301AB4FF400721CA92046F3
:102A9000FFF70CFF30B32046FFF72CFE00231CAAE3
:102AA0001449304601F0C9F9F8B92046FFF722FE73
:102AB000114A12490120FFF709F8284600951FF036
:102AC000B1FBD4F8F4316C2201A904F5A6700133EE
:102AD000C4F8F4312DF086FC0123684684F8B8313F
:102AE000FEF75FFC0DF51C7D70BD2046FFF702FE72
:102AF000F8E700BF4F6907086F69070834690708DE
:102B00002DE9F041044600F5927600F225170521E3
:102B10003046FFF779FD04F59373D0B32046FFF7F5
:102B2000E9FD09F05BFC05462046FFF7E3FD294679
:102B30002046FFF72DFE2046FFF7DCFD2946204604
:102B400004F11805FFF744FE05213846FFF75CFD48
:102B50008046284600F04BFFBFF35B8F84F82601C8
:102B6000BFF35B8FB8F1000F0FD070B12046FFF7B5
:102B7000C1FD284601F068F82046FFF7BBFD20465E
:102B8000FFF75CFF2046FFF7B5FD14201FF0EAFBBE
:102B9000BDE7BFF35B8F1870BFF35B8FBDE8F081BB
:102BA00010B4D0E9003409686210E4075DF8044B02
:102BB00001EB020044BF8A58D3581847014604303D
:102BC00008B5FFF7EDFF08BD034A0346C26007C919
:102BD00083E80700704700BFD468070810B586B0C7
:102BE00004460391684606A980E80C0001E90C0040
:102BF000204603A9FFF7E8FF204606B010BD37B511
:102C00006C46054684E80C0094E80C00FFF7E6FFEC
:102C1000284603B030BD000030B5052187B004461A
:102C200000F59270FFF7F0FC28BB0123BFF35B8F28
:102C3000214684F82431BFF35B8F124BCDE900307D
:102C40006B4602A80CCBFFF7DAFF02A904F168007B
:102C50001FF09CFC054602A8FDF715FD5DB10023A1
:102C6000BFF35B8F084A022084F82431BFF35B8FE7
:102C70000649FEF72BFF07B030BD02A8FDF703FDA4
:102C80002AF076F9012B04081C6707083469070845
:102C900008B5FFF793FF08BD08B5FFF7F9FF08BDBA
:102CA000D0F88C0018B1036853F88C3C1844704776
:102CB00070B5074B044605460E4644F8043B0B1D11
:102CC0000FCB84E80F00337D28462B7570BD00BF05
:102CD000607B0708D0F88C0008B520B103681B6E34
:102CE0009847012800D0022008BD70B5044616465A
:102CF00029B1D0F88C30586803685B69984709F0AF
:102D00006DFB0546D4F88C00002103685B6E984784
:102D1000D4F88C0003681B6D984709F05FFB401BDB
:102D2000B04208D22046FFF7D5FF012803D00A2081
:102D300009F066FBF1E72046FFF7CCFF431E58423F
:102D4000584170BD2DE9F0410446D0F88C000D4685
:102D500016461F4658B103680121DB6C98473B4675
:102D6000324629462046BDE8F041FFF7BEBFBDE828
:102D7000F08110B50446006808B11FF078F82046CD
:102D800010BD00000B4B10B5044640F8643BFFF744
:102D9000F0FF04F14C00FFF7ECFF04F13400FFF703
:102DA000E8FF04F11C00FFF7E4FF201DFFF7E1FF3F
:102DB000204610BDF46B07082DE9F04100220546BE
:102DC0001E4B0446114645F8043B284618F0EEFB1E
:102DD00004F11C0600223046114618F0E7FB04F10E
:102DE000340700223846114618F0E0FB04F14C0885
:102DF00000224046114618F0D9FB002204F164007D
:102E0000114618F0D3FB10E04046FFF7B2FF3846FA
:102E1000FFF7AFFF3046FFF7ACFF2846FFF7A9FFEB
:102E20002AF0A6F8F3E7F5E7F7E70023204684F851
:102E30007C30C4F88030BDE8F08100BFF46B070837
:102E400038B518F08CF998B1A0F1C404094D2846A2
:102E5000FFF7B2FF084BC5F88C4028462B600023D3
:102E6000064A85F888300649BDE838401EF066BD40
:102E70000446EBE7E0320024006C07080000002461
:102E8000852D0408006918B18068003018BF012042
:102E90007047000003692DE9F041044686B00E46F4
:102EA000904613B903689B6B9847256901AC2B6862
:102EB0009F68084B0093331D0FCB84E80F00337DD0
:102EC0004246694628468DF81430B84706B0BDE83A
:102ED000F08100BF607B0708036970B504460D46AA
:102EE000164613B903689B6B9847206932462946FA
:102EF0000368BDE87040DB6818477047C06810B1D0
:102F000003685B68184770470020704710B5044697
:102F100010211EF099FF204610BD08B5FFF7F6FFFF
:102F200008BD006908B100F09AB97047006908B19E
:102F300000F0E7B97047006908B100F00FB97047B9
:102F4000006908B100F0F0B87047006908B100F0FE
:102F500085B97047006908B100F00BB97047006986
:102F600008B100F009B94FF0FF307047006908B1AF
:102F700000F02FB97047006908B100F064B94FF054
:102F8000FF307047036810B504469B689847A368F4
:102F9000013BA3602BB923682046DB68BDE81040E5
:102FA000184710BD38B504464FF4AA701EF018FF3C
:102FB000054600F0BBF910201EF012FF0122034667
:102FC000C5602561C0E90122124A0260606963613F
:102FD00090B92368204625695B6B9847686038BDC7
:102FE00029F0FEFE2B6828465B6898472AF0F2F825
:102FF00029F036FF29F0BCFF4368013B4360002BFA
:10300000E7D1FFF7BFFFE4E74FF4AA7128461EF0AF
:103010001BFFEFE70C6C07080121D0F848011FF0F7
:1030200095B800002DE9F0410446C0B04FF001080A
:103030002E4FA3684BB32D4D01236422FF21D4F8FA
:1030400048011FF0A4F8D4F84C011FF0EBF8A06879
:10305000D8B1D4F81431B3F5807F0AD1D4F84C013B
:103060001FF0FEF809F0DEF9BD42ECD0002DEADCDD
:10307000DFE7D4F8142169460368C2F580725B6902
:103080009847061E07DABE4206D0002384F818319E
:1030900040B0BDE8F08107D109F0C4F9D4F84C0183
:1030A0001FF0DEF83546DFE70025D4F81431B3F51C
:1030B000807F10D0D4F80C311DF8052023441A73FA
:1030C000D4F80C310133DBB2C4F80C31D4F814312C
:1030D0000133C4F814310135AE42E6D1D4F84C01C5
:1030E0001FF0BEF884F81881ADE700BF47F4FFFF7A
:1030F0000C30704738B500250446112240F8045BB7
:1031000029462DF06DFAE582204638BD08B5034604
:1031100090F8180138B1586803681B6E9847012869
:10312000CCBF0020012008BD70B5054680680C4664
:10313000164690B10368D5F850111B6B9847A868E4
:103140002146324603681B6998470446A868002157
:103150000368DB6A984724EAE47070BD07B502ABE8
:10316000012203F8011D1946FFF7DEFF03B05DF8E9
:1031700004FBD0F81401704738B58368044653B196
:10318000D0F84C011FF04EF8D4F8143133B9D4F80C
:103190004C011FF065F84FF0FF3515E0D4F81431FD
:1031A000A3B1D4F8103123441D7BD4F8103101337E
:1031B000DBB2C4F81031D4F81431013BC4F8143137
:1031C000D4F84C011FF04CF8284638BD4FF0FF35BD
:1031D000F6E770B5044680680D46164660B1D4F82F
:1031E0004C011FF01FF8D4F8143133B9D4F84C0156
:1031F0001FF036F84FF0FF3070BD9E422946A8BF41
:103200001E46A819814218D0D4F8143193B1D4F8CD
:10321000103123441A7BD4F810310133DBB2C4F8E7
:103220001031D4F81431013BC4F81431134601F8BD
:10323000013BE7E74FF0FF33F9E7D4F84C011FF00B
:103240000FF83046D8E7D0F8143123B1D0F8103158
:103250001844007B70474FF0FF307047704738B517
:103260000446D0F84C0108B11EF0DCFFA06840B164
:1032700094F819210368002A3AD05B689847002324
:10328000A360D4F84C0108B11EF0EAFFD4F8440161
:1032900050B11FF0DDF8D4F8440110B103685B6849
:1032A00098470023C4F84431D4F848514DB128461A
:1032B0001EF052FF142128461EF0C6FD0023C4F85C
:1032C0004831D4F84C514DB128461EF0E3FF24217B
:1032D00028461EF0B9FD0023C4F84C310023C4F881
:1032E0000C3184F81831C4F81031C4F8143138BDE9
:1032F0001B6BD4F850119847A06803689B689847E7
:10330000BDE710B50446FFF701FF012805D0D4F84A
:1033100014010028D4BF0020012010BD10B50446C0
:103320000021FDF7EFF8204610BD000038B500255C
:10333000144B04464FF4807203602946C0E90155DE
:103340000C302DF04DF9C4F80C5184F8185104F5E7
:103350008E70C4F8105184F81951C4F81451FFF755
:10336000DDFF04F59670FFF7C5FE40F2DC53C4F8AC
:1033700044512046C4F84851C4F84C51C4F8503167
:1033800038BD00BF846C070810B50446FDF7BDF8D2
:10339000204610BD074B10B504460360FFF75FFFE2
:1033A00004F59670FFF7E5FC04F58E70FFF7ECFF6F
:1033B000204610BD846C070810B50446FFF7EAFFED
:1033C0004FF4AA7120461EF03FFD204610BD10B4F8
:1033D000D0E9003409686210E4075DF8044B01EBA2
:1033E000020044BF8A58D35818470146043008B534
:1033F000FFF7EDFF08BD0000034A0346C26007C99E
:1034000083E80700704700BF646C070810B586B0FA
:1034100004460391684606A980E80C0001E90C0007
:10342000204603A9FFF7E8FF204606B010BD37B5D8
:103430006C46054684E80C0094E80C00FFF7E6FFB4
:10344000284603B030BD00002DE9F0430B680E465E
:1034500004468BB0DB6A002130469847336804F598
:10346000967130469B6C9847D4F848313BB914208C
:103470001EF0B6FC05461EF059FEC4F84851D4F8BB
:103480004C313BB924201EF0ABFC05461EF0C2FEB9
:10349000C4F84C51D4F84C011EF0C4FED4F8449149
:1034A000B9F1000F43D1BC201EF09AFC0546074637
:1034B000314B05F1400847F8043B3846FDF7DCF88E
:1034C000494640461EF008FF05F1540948461EF0E3
:1034D000A1FE2A4B4FF48052182128460093002366
:1034E0001EF08AFF264B214606A8C4F844510293D9
:1034F0000023039302AB0CCBFFF799FF06A92846E4
:103500001FF044F810E048461EF0C4FE40461EF08E
:1035100022FF3846FDF7B7F8BC2128461EF094FC80
:1035200029F026FDF2E7F4E706A8FDF7ACF8D4F899
:103530004C011EF095FE3368214606A85D6B114BC9
:1035400004930023059304AB0CCBFFF770FF06A98F
:103550003046A84706A8FDF796F8012384F81831ED
:103560000BB0BDE8F0831421D7E72421D5E706A8E6
:10357000FDF789F8D4E7FAE7B0A00708706C0708F0
:10358000253004081930040870B504460E46FFF7CC
:1035900066FEA3684BB990201EF022FC054618F089
:1035A00029FA0123A56084F81931A56815B9002509
:1035B000284670BD60680368DB6F9847014628465F
:1035C00017F09AFC05460028F1D1A068314603683F
:1035D000DB689847094B984203D010B184F8185122
:1035E000E6E7A1682046FFF72FFF0125F6E79021C7
:1035F00028461EF029FC29F0BBFC00BF39F4FFFF70
:10360000F0B5124B8DB006460D4600930B1D1746C4
:1036100001AC0FCB84E80F002B7D694606A83A4623
:103620008DF8143000F052F806A93046FFF7ACFFD1
:1036300004E006A8FFF79DFB29F09AFC044606A8C3
:10364000FFF797FB20460DB0F0BD00BF607B070879
:1036500070B58CB004460D46164600211822684607
:103660002CF0BEFF6846FFF745FD6A4629466068B4
:10367000ADF8166000F05BF8694606A817F059FF30
:1036800006A92046FFF780FF08E006A8FFF771FBB8
:103690006846FFF76EFB29F06BFCF9E7044606A8C5
:1036A000FFF767FB6846FFF764FB20460CB070BD70
:1036B00008B5FFF79AFE08BD08B5FFF7F9FF08BD8A
:1036C000CB68C3600BB15B6818477047F0B587B033
:1036D0000C460546174601261122002101A82CF0B0
:1036E0007FFF002120468DF8046008F067FD037815
:1036F000314620468DF8053008F060FD0378022140
:1037000020468DF8063008F059FD03780321204645
:103710008DF8073008F052FD03783A4601A9284693
:103720008DF8083017F0EEFE284607B0F0BDF0B572
:10373000002385B004460E4602AD02938DF80C308E
:103740001746036829465B6C9847236800953A46FC
:103750001D68314601232046A84705B0F0BD7047DB
:1037600070B504460D4608F039FEA0612946A068F0
:103770000368BDE870401B68184770B504460D46E5
:10378000164608F02BFEA0612946A0683246036861
:10379000BDE870405B68184710B50446C0682CF05F
:1037A000DDFA204610BD2DE9F04105460E464FF4E6
:1037B0007A7708F013FE8046A86803681B6998476B
:1037C000044658B908F02EFE08F008FEAB8AA0EBBC
:1037D00008007B439842EFD3204605E0A8680368C1
:1037E0005B69984730700120BDE8F08138B51488D6
:1037F00015462144FFF7D7FF08B101342C8038BDAE
:103800002DE9F74F002602AD8A46C16825F8026D02
:103810002A460446FFF7EAFF18B9002003B0BDE8C6
:10382000F08FE3680DF10809012793F8008009F88B
:10383000036DBDF80630052B07D14FF0FF33A068AC
:10384000E36403689B6A9847E7E749462046FFF729
:10385000AAFF0028E1D0BDF80630E268591CADF897
:1038600006109DF80510D1549DF8053003F07F0235
:1038700007FB02661A064FEAC717DAD408F0F00809
:103880009DF80630B8F1300F03F1FF338AF80030AD
:103890001DD12A46E1682046FFF7A8FF0028BCD0CA
:1038A0002A46E1682046FFF7A1FF0028B5D0E2686C
:1038B0009AF80030134459789D78137805EB012568
:1038C0009B07ADB201D50235ADB2022701E000275A
:1038D0003D46BDF806B0A7EB0B0707EB0B0296427F
:1038E0002AD949462046FFF75EFF002895D0A06CF4
:1038F00088B1B8F1300F0ED19AF80020C2F1FF2242
:1039000002F57F02FE325A44AA4204D902689DF8A9
:10391000051012689047BDF80620218A914208D907
:103920009DF80500E1688854BDF806200132ADF825
:1039300006200BF1010BD0E7A26C22B9218A594570
:1039400038BFADF80620BDF8060067E773B500255F
:10395000DC1103F07F06A3B20CB146F08006681CB0
:103960000DF1080CC0B2654405F8046C0546002C46
:10397000EED1C0F10405515501ADA04205DD231A79
:10398000615D013413445971F7E7013002B070BD35
:10399000F8B5064617461C46FFF7D8FFB368C0B215
:1039A0001A680444C0F10501184655682246394496
:1039B000A847054608F012FDB061A8B2031B5842A3
:1039C0005841F8BD023330B598B20C46631A14F86A
:1039D000015B9BB21DB1431C155498B2F6E7C11AA6
:1039E0000A44191202F8013C02F8021C30BD38B535
:1039F0000546806808B9002038BD0368DB6A98472F
:103A0000EC6C68B9002CF6D1A8686FF00203EB6487
:103A10000368DB689847A86803689B6A9847EAE7E9
:103A2000B4FA84F04009E7E72DE9F04F8BB0044683
:103A3000894617461E46149D9DF860A0FFF7D7FFE4
:103A40008046002840F0E980A0680368DB6A984758
:103A5000002840D00123E382734B049345F2544382
:103A6000ADF8143004238DF81630052304A9E2685C
:103A7000194411F8051CD15401330C2BF6D1002D3B
:103A800047D09DF858309DF854205B0143F0040363
:103A900043EAC203DBB2BAF1000F01D043F00203E4
:103AA0001FB1002E37D143F08003E26848461373FC
:103AB000638AE2681B125373E368628A9A73218AED
:103AC0002DF0DEFC238A1130984227D9A0680368C4
:103AD0009B6A9847A1E0D4F808B0216CDBF800306D
:103AE00051B11B6A5846B4F8442098470128B1D018
:103AF0006FF00103E36490E0DB6904F1280104A89E
:103B00000193FFF7D5F8B4F8442004A95846019B67
:103B1000EBE72B46BFE743F0C003C6E749460F2358
:103B2000E2682046FFF74EFF814605B3218A28460A
:103B30002DF0A6FC09F102031844238A9842C5D847
:103B40004B462946E2682046FFF73CFF218A05469E
:103B500017982DF095FC0230238A28449842B5D856
:103B60002B46E26817992046FFF72CFF814617B3D2
:103B7000218A38462DF084FC09F102031844238A77
:103B80009842A3D84B46E26839462046FFF71AFF11
:103B9000814686B1218A30462DF072FC09F102037C
:103BA0001844238A984291D84B46E2683146204611
:103BB000FFF708FF8146A9F105034FF47A75E26823
:103BC00010219BB22046FFF7E3FE08F007FCC4E992
:103BD0000600A06803681B69984758B908F0FEFB07
:103BE000E369C01AA38A6B439842F2D36FF00303D0
:103BF000E3646BE70DF10F012046FFF701FE042897
:103C00007FF464AFE368DD785DB94FF0010808F038
:103C1000E5FB84F82050E061E56440460BB0BDE868
:103C2000F08FE56452E700BF00044D5110B54FF02E
:103C3000010C86B00024CDE9034CCDE90144009489
:103C4000FFF7F2FE06B010BD2DE9F3470446FFF77B
:103C5000CEFE8046D0B108F0C1FB628A4FF47A7381
:103C600007465343E269821A9A4203D8A269821A2C
:103C700093421FD294F8203063B16FF00303A06821
:103C80004FF00008E36403689B6A9847404602B01F
:103C9000BDE8F087E268C0211170E268537002222B
:103CA000A068E16803685B6898470123C4E9067768
:103CB00084F82030A06803681B6998470028E5D085
:103CC0000DF107012046FFF79BFD064683B2002B4E
:103CD00073D0E368E7611A7802F0F002302A57D116
:103CE000626A002AD2D09DF807209918901C497862
:103CF0001D5C184405EB0125D11CADB219442A46C0
:103D00002CF00AFCE3689DF807202B4413440022A2
:103D10009A70B2B2E1689DF807C091F800900CF17A
:103D20000200666A09F006090CF103030844A2EBDD
:103D30000C02B9F1020F25D12B440CF1050C521BDA
:103D400011F803E00B446544053A93F801A02944B7
:103D50000AEB0E2AB047E36840221FFA8AFA1A706B
:103D60004FEA2A22E36883F80190E3689A700422FC
:103D7000E36883F803A0A068E16803685B6898477C
:103D8000A76183E72B44033A1944521BB0477DE7F0
:103D9000C02A0BD1D0221A700022E3685A70022286
:103DA000A068E16803685B6898476FE7D02A7FF4F2
:103DB0006DAF002384F8203068E72046FFF717FE38
:103DC000002808BF4FF0000860E72DE9F0470446DF
:103DD000884617461D469DF82060FFF708FE48B349
:103DE000B4F81090404649462DF04AFBEB1D1844AC
:103DF00081451FD341460523E2682046FFF7E2FDD7
:103E000000211FFA81FC4318E2680131AC459BB2E6
:103E100004D217F80CC002F803C0F2E7002EA3F199
:103E2000050320469BB214BF31213021BDE8F04785
:103E3000FFF7AEBD0020BDE8F087F7B505460E469A
:103E40001F46144662B1018A10462DF019FB034645
:103E50002246314600972846FFF7B7FF03B0F0BD72
:103E60001046F4E70164A0F84420704738B50446D2
:103E70000D4609B9002038BD038A4BB908462BF01E
:103E800065FFE060E0682582003018BF0120F2E79E
:103E9000C0682CF005FC0028F3D1EBE770B50C4BA3
:103EA000002504460E46456040F8283B08F06CF9B2
:103EB0004FF0FF33A6604FF48071E3642046A564A1
:103EC0002582FFF7D3FF0F2320466382A38270BDB4
:103ED0009C6C07084182704701207047012A03D07B
:103EE000022A03D0002070470160FBE70B680360E3
:103EF000F8E7012A03D0022A03D0002070470160AE
:103F0000FBE70B680360F8E7012A03D0022A03D01D
:103F1000002070470160FBE70B680360F8E7012AA7
:103F200003D0022A03D0002070470160FBE70B6832
:103F30000360F8E7012A03D0022A03D0002070476B
:103F40000160FBE70B680360F8E7012A03D0022A4F
:103F500003D0002070470160FBE70B680360F8E7BF
:103F6000012A03D0022A03D0002070470160FBE73A
:103F70000B680360F8E7012A03D0022A03D000206F
:103F800070470160FBE70B680360F8E7012A03D084
:103F9000022A03D0002070470160FBE70B68036032
:103FA000F8E7012A03D0022A03D0002070470160FD
:103FB000FBE70B680360F8E7012A03D0022A03D06D
:103FC000002070470160FBE70B680360F8E7012AF7
:103FD00003D0022A03D0002070470160FBE70B6882
:103FE0000360F8E7012A03D0022A03D000207047BB
:103FF0000160FBE70B680360F8E7012A03D0022A9F
:1040000003D0002070470160FBE70B680360F8E70E
:10401000012A03D0022A03D0002070470160FBE789
:104020000B680360F8E7012A03D0022A03D00020BE
:1040300070470160FBE70B680360F8E7012A03D0D3
:10404000022A03D0002070470160FBE70B68036081
:10405000F8E7012A03D0022A03D00020704701604C
:10406000FBE70B680360F8E7012A03D0022A03D0BC
:10407000002070470160FBE70B680360F8E7012A46
:1040800003D0022A03D0002070470160FBE70B68D1
:104090000360F8E7012A03D0022A03D0002070470A
:1040A0000160FBE70B680360F8E7012A03D0022AEE
:1040B00003D0002070470160FBE70B680360F8E75E
:1040C000012A03D0022A03D0002070470160FBE7D9
:1040D0000B680360F8E7012A03D0022A03D000200E
:1040E00070470160FBE70B680360F8E7012A03D023
:1040F000022A03D0002070470160FBE70B680360D1
:10410000F8E7012A03D0022A03D00020704701609B
:10411000FBE70B680360F8E7012A03D0022A03D00B
:10412000002070470160FBE70B680360F8E7012A95
:1041300003D0022A03D0002070470160FBE70B6820
:104140000360F8E7012A03D0022A03D00020704759
:104150000160FBE70B680360F8E7012A03D0022A3D
:1041600003D0002070470160FBE70B680360F8E7AD
:10417000034B10B50446036003F0F6FD204610BD66
:10418000C86C070810B50446FFF7F2FF642120460B
:104190001DF05AFE204610BD2DE9F0410A4C0027C3
:1041A000A4F24C4604F12C0504F1D80855F8040B90
:1041B00018B11DF05CFE45F8047CA845F6D1DC3C46
:1041C000B442EFD1BDE8F081E036002404F0E4B859
:1041D000B1F57A6F19D0A1F6AA73132B15D9A1F6F0
:1041E000C8721B2A03D80A4BD340DB070DD4A1F6B3
:1041F000E6711C2997BF07480120C840C04398BFFB
:1042000000F0010080F0010070470120704700BFFE
:10421000FFFCF30FFFFCF71F2A2909D800EB8103ED
:10422000DB6A2BB140560428D4BF00200120704720
:104230000020704770B501F10D050C460646E9B245
:10424000FFF7EAFF48B106EB8404206E08B11DF0C9
:104250000EFE00232366FF23735570BD2DE9F04148
:104260002A2A1E464FF0010305468846144680F868
:10427000D83013D896B100EB8207F86A28B11DF048
:10428000F6FD0023FB62FF232B5530461DF0C0FDD9
:104290003246F86241462CF0A5F82E55BDE8F08173
:1042A00010B58368044613B103220146984720469F
:1042B00010BD000000F10803002213B5036002A93D
:1042C0001323044641F8043D29F0D4F9019B074A21
:1042D0002060A360A2F1130129F0F8F9019B226884
:1042E000002120466360D15402B010BDBF6C0708A6
:1042F00010B54FF47A61044603F06FFD50B340F6F9
:10430000AF71204603F069FD20B34FF47B61204676
:1043100003F063FDF0B140F6B271204603F05DFD9D
:10432000C0B140F6B371204603F057FD90B140F69E
:10433000B171204603F051FD60B140F6B4712046E2
:1043400003F04BFD30B1204640F6B571BDE810409A
:1043500003F043BD002010BD10B54FF47A61044650
:1043600003F03BFDF0B140F6AA71204603F035FDA5
:10437000C0B140F6AB71204603F02FFD90B140F67E
:10438000AC71204603F029FD60B140F6AD712046C6
:1043900003F023FD30B1204640F6AE71BDE8104079
:1043A00003F01BBD002010BD10B54FF47A61044628
:1043B00003F013FDC0B140F6BA71204603F00DFDC5
:1043C00090B140F6BB71204603F007FD60B140F6A6
:1043D000BC71204603F001FD30B1204640F6BD71AE
:1043E000BDE8104003F0F9BC002010BD10B54FF43B
:1043F0007A61044603F0F1FC60B140F6B7712046E3
:1044000003F0EBFC30B1204640F6B871BDE8104037
:1044100003F007BD002010BDC06B20B10022222197
:104420003C3004F030B970470068FFF7F5BF03680F
:1044300013211B6A1847036811211B6A18470729B3
:1044400038B5044615460BD80368002201F6FA7108
:104450001B69984725B12046BDE83840FFF7EBBF00
:1044600038BDC06B00220B213C3004F017B9006846
:10447000FFF7F7BFC06B002212213C3004F00EB9E9
:104480000068FFF7F7BFC06B20B1002220210C307D
:1044900004F0DBB870470068FFF7F5BF0068FFF76E
:1044A000F2BF0068FFF7EFBF0068FFF7ECBF0068DE
:1044B000FFF7E9BF0068FFF7E6BF0068FFF7E3BF5B
:1044C0000068FFF7E0BF0068FFF7DDBF0068FFF797
:1044D000DABF70B506460C464CB1E1683046FFF7CE
:1044E000F8FFA56820461DF0A3FC2C46F4E770BD3C
:1044F00070B506460C464CB1E1683046FFF7F8FF50
:10450000A56820461DF094FC2C46F4E770BD13B559
:104510000B4604466A46D0E9000182E8030093E8AE
:10452000030084E8030092E8030083E8030002B07C
:1045300010BD38B505460C46FFF7E9FFAB68A26829
:10454000AA60A360E268EB68EA60E36038BD38B552
:1045500005460C46FFF7DBFFAB68A268AA60A360C4
:10456000E268EB68EA60E36038BD70B58B680446CA
:1045700016460D1D012053B11A691D463068904240
:1045800039BF9A680120DA6800201346F3E790B13A
:10459000CA68AA4203D1C4E90035204670BD284646
:1045A00028F0B0FF336802699A424FF00003F2D35B
:1045B000C4E90003F1E72846F4E72DE9F74300F1E9
:1045C000040805460E46836844464BB132681969B3
:1045D00091423ABFDA6823469A681C461346F4E7CC
:1045E000A04503D0326823699A422CD218201DF0CE
:1045F000F7FB3668074600F110090661A0454FF049
:104600000000786124D16B691BB12A691369B34238
:104610000AD34A4629466846FFF7A7FFDDE900426C
:10462000002A4ED0002C4AD1904548D010698642CD
:104630002CBF002001204346394628F065FF6B69F6
:1046400001336B613C4604F1140003B0BDE8F08314
:104650002369B34219D9EB689C420BD0204628F05D
:1046600051FF0369B34208D2C368002B0ABF044656
:104670002346002322461C46D2E74A46294668467E
:10468000FFF773FFDDE90034F4E71AD22A69944298
:1046900009D0204628F01AFF0369B34205D9E36820
:1046A0005BB9224618460446BAE74A466846294698
:1046B000FFF75BFFDDE90002F5E70246F3E70120C3
:1046C000B9E7384627461DF0B3FBBBE72DE9F743B2
:1046D000804603F021FB1B4B02AD444644F8083BE7
:1046E00041F20203204645F8043D2946FFF765FFE5
:1046F000002640F6A2722946066020460192FFF786
:104700005CFF40F6A3730660294620460193FFF73D
:1047100054FF3746066040F6E47940F6DC762946D9
:1047200020460196FFF749FF013607604E45F6D156
:10473000404603B0BDE8F083404603F015FB28F087
:1047400017FC00BFC86C070810B564201DF048FBBB
:104750000446FFF7BBFF05E0642120461DF074FB13
:1047600028F006FC204610BD2DE9F04F85B04FF42F
:104770007A6300F10806044604AD304645F8043D6E
:104780002946FFF71AFF0368072B08D994F8383039
:10479000042B04D90027384605B0BDE8F08FE36B41
:1047A000002BF7D02046FFF7D7FD0028F2D04FF4BA
:1047B0007A63E76B294630460393FFF7FEFE032238
:1047C0000178384602F0FAFA40F6AA73E76B2946F8
:1047D00030460393FFF7F1FE04220178384602F0D9
:1047E000EDFA40F6AB73E76B294630460393FFF7CB
:1047F000E4FE05220178384602F0E0FA40F6AC7398
:10480000E76B294630460393FFF7D7FE062201786F
:10481000384602F0D3FA40F6AD73E76B29463046CE
:104820000393FFF7CAFE07220178384602F0C6FA62
:1048300040F6AE73E76B294630460393FFF7BDFEA3
:1048400008220178384602F0B9FA40F6A2732946E8
:1048500030460393FFF7B1FE0168092201293ED1DA
:104860004FF00D0AE06B02F0A9FA40F6A273294658
:104870003046DFF878800393FFF79FFE002307227E
:1048800009214FF47A6B0360E06B3C3003F0FBFED0
:10489000DC2394F8389007462946304609FB038903
:1048A0000193CDF80CB0FFF788FE01784846FFF77A
:1048B000C1FC94F83820019B29463046E46B02FB8A
:1048C0000388CDF80CB0FFF778FE02683C343B4615
:1048D000404652442146D2B2FFF7C0FC5BE70221BA
:1048E000E06B02F06BFA4FF0000ABEE77033002471
:1048F0000068FFF739BF00002DE9F74F4FF47A63E6
:1049000002AD00F10806044645F8043D294630464C
:10491000FFF753FE0368072B08D994F83830042BAF
:1049200004D90027384603B0BDE8F08FE36B002BB5
:10493000F7D02046FFF7DCFC0028F2D0E76B4FF4FD
:104940007A6929463046CDF80490FFF736FE0322F7
:1049500001783846DFF818B102F030FAE76B40F61C
:10496000AF73294630464FF0DC080193FFF725FE70
:1049700004220178384602F021FA4FF47B63E76B9A
:10498000294630460193FFF718FE05220178384684
:1049900002F014FA0622E06B012102F00FFAE76B35
:1049A00040F6B173294630460193FFF706FE072211
:1049B0000178384602F002FAE76B40F6B4732946F4
:1049C00030460193FFF7F9FD08220178384602F0DE
:1049D000F5F9E76B40F6B573294630460193FFF7CA
:1049E000ECFD09220178384602F0E8F9E76B40F661
:1049F000B273294630460193FFF7DFFD0A220178A2
:104A0000384602F0DBF940F6B373E76B29463046CF
:104A10000193FFF7D2FD0B220178384602F0CEF960
:104A2000E06B092211213C3003F02DFE94F838A0F0
:104A3000074629460AFB08BA3046CDF80490FFF72E
:104A4000BCFD01785046FFF7F5FB94F83830E46B75
:104A5000294603FB08B830463C34CDF80490FFF7F4
:104A6000ACFD3B46027821464046FFF7F7FB59E78D
:104A7000703300240068FFF73FBF00002DE9F74FB7
:104A80004FF47A6302AD00F10806044645F8043D90
:104A900029463046FFF791FD0368072B08D994F8A3
:104AA0003830042B04D90027384603B0BDE8F08F16
:104AB000E36B002BF7D02046FFF776FC0028F2D0FE
:104AC000E76B4FF47A6929463046CDF80490FFF73A
:104AD00074FD032201783846DFF8C0B002F06EF9A9
:104AE000E76B40F6BA73294630464FF0DC08019375
:104AF000FFF763FD04220178384602F05FF9E76BA7
:104B000040F6BB73294630460193FFF756FD052258
:104B10000178384602F052F9E76B40F6BC7329463B
:104B200030460193FFF749FD06220178384602F02E
:104B300045F940F6BD73E76B294630460193FFF710
:104B40003CFD07220178384602F038F9E06B052277
:104B50000C213C3003F097FD94F838A00746294615
:104B60000AFB08BA3046CDF80490FFF726FD01781D
:104B70005046FFF75FFB94F83830E46B294603FB9F
:104B800008B830463C34CDF80490FFF716FD3B469C
:104B9000027821464046FFF761FB85E77033002429
:104BA0000068FFF76BBF00002DE9F74F4FF47A6301
:104BB00002AF00F10808054647F8043D3946404673
:104BC000FFF7FBFC0368072B08D995F83830042B56
:104BD00004D90024204603B0BDE8F08FEC6B002C14
:104BE000F8D04FF47A6939464046CDF80490FFF783
:104BF000E4FC03220178204602F0E0F8E86B012291
:104C000024213C3003F03FFD95F838B00446BBF159
:104C1000040FDFD8DFF840A0DC2639464046CDF847
:104C20000490FFF7CAFC01780BFB06A0FFF702FB1C
:104C300095F83830ED6B394603FB06A640463C3507
:104C4000CDF80490FFF7B9FC234602782946304698
:104C5000FFF704FBBEE700BF703300240068FFF7D6
:104C6000A3BF37B54FF47A630D4602A90446083056
:104C700041F8043DFFF7A1FC2368142105601B6A7D
:104C80002046984703B030BD37B540F6B9730D469E
:104C900002A90446083041F8043DFFF78EFC236862
:104CA000122105601B6A2046984703B030BDF7B556
:104CB00041F2040302AC00F10806054644F8043D45
:104CC0000F4630462146FFF778FC40F6A373076095
:104CD000214630460193FFF770FC01231221036047
:104CE00028462B681B6A984703B0F0BD2DE9F347AF
:104CF00090F838300446042B04D90025284602B029
:104D0000BDE8F08702AD00F1080640F6A377304613
:104D100045F8047D2946FFF750FC0368002B41D07D
:104D20002946304601974FF02A08FFF746FC4FF01E
:104D30003109002341F204070360E36B002BDCD050
:104D40003946204603F049F80028D6D0D4F83CA0D4
:104D5000294630460197FFF730FC03220178504680
:104D600002F02CF8D4F83CA0294630460197FFF712
:104D700024FC04224178504602F020F8E06B4946BA
:104D800002223C3003F07FFC94F838600546E16B6A
:104D90000346084CDC2042463C3106FB0040FFF74E
:104DA0005DFAABE74FF00C084FF0100940F6B97709
:104DB000C3E700BF703300240068FFF797BF2DE9F9
:104DC000F347A1F108089A46064691465FFA88F330
:104DD000032B5AD80AB1524557D94FF47A6702AC1F
:104DE00006F1080544F8047D21462846FFF7E5FB57
:104DF0002146C0F8008028460197FFF7DEFB0368D4
:104E000021462846019703F6C878FFF7D6FB0768C6
:104E10003046414607F6CC7702F0DFFFA0B92146C5
:104E20002846CDF80480FFF7C8FB2146C0F8009063
:104E300028460197FFF7C1FB3368C0F800A00E2198
:104E40001B6A3046984720E03946304602F0C5FFDD
:104E50000028E4D040F6A373214628460193FFF7CB
:104E6000ACFB0368012BDAD002A9284641F8088D73
:104E7000FFF7A3FB03684B45D1D121462846019794
:104E8000FFF79BFB03685345C9D102B0BDE8F0872B
:104E9000F7B50D461F4602A940F6A3730446083035
:104EA00041F8043D1646FFF788FB012332462946A8
:104EB00003603B462046FFF782FF03B0F0BD0000D1
:104EC000C36B2DE9F347044623B90027384602B0E7
:104ED000BDE8F0874FF47A6902AD00F1080645F8A5
:104EE000049D29463046FFF768FB2946D0F800802C
:104EF0003046CDF80490FFF760FB4946076820462E
:104F000002F06BFF0028E0D008F6C8782046414642
:104F100002F063FF0028D8D007F6CC772046394648
:104F200002F05BFF0028D0D0D4F83CA029463046E0
:104F3000CDF80490FFF741FB03220178504601F0C1
:104F40003DFFD4F83C9029463046CDF80480FFF769
:104F500034FB04220178484601F030FFD4F83C903D
:104F600029463046CDF80480FFF727FB052241781B
:104F7000484601F023FFD4F83C9029463046CDF84E
:104F80000480FFF71AFB06228178484601F016FFDD
:104F9000D4F83C9029463046CDF80480FFF70DFB4D
:104FA0000722C178484601F009FFD4F83C80294621
:104FB00030460197FFF701FB08220178404601F0D7
:104FC000FDFED4F83C80294630460197FFF7F5FAFC
:104FD00009224178404601F0F1FED4F83C80294690
:104FE00030460197FFF7E9FA0A228178404601F03E
:104FF000E5FED4F83C80294630460197FFF7DDFAFC
:1050000040F6A377C1780B22404601F0D7FE29462F
:1050100030460197FFF7D1FA0368012B2AD12946C0
:10502000304601974FF02609FFF7C7FA00233321D6
:105030000360E06B09223C3003F025FB94F83880D4
:105040000746B8F1040F3FF641AF4FF47A63E46BC3
:105050002946304601933C34FFF7AFFA02682146F7
:1050600006484A44DC243B46D2B208FB0400FFF762
:10507000F5F82BE74FF008091321DAE77033002425
:105080000068FFF71DBFC36B37B5044613B9002096
:1050900003B030BD4FF47A6102F09FFE0028F6D0D5
:1050A00002A94FF47A63E56B04F1080041F8043D6E
:1050B000FFF783FA03220178284601F07FFEE06BB8
:1050C00001220A213C3003F0E9FAE1E70068FFF72A
:1050D000DABF2DE9F7430546C06B20B900273846F3
:1050E00003B0BDE8F08303220A210C3003F099FAE3
:1050F00007460028F2D00321E86B01F065FE07287F
:105100000446ECD805F1080802AE0421E86B04F669
:10511000D27401F059FE8146404646F8044D3146AE
:10512000FFF74BFA0521C0F80090E86B01F04CFE48
:105130003146054640460194FFF73FFA036803EB0A
:1051400005230360CBE70068FFF7C3BF07292DE9FC
:10515000F74307460E469146984630D800F10804BA
:1051600002AD4FF47A63204645F8043D2946FFF727
:1051700024FA066006F6DC76294620460196FFF7FB
:105180001CFA41F6FF732946994594BFC0F8009078
:10519000036040F6A173204603240193FFF70DFA44
:1051A000C0F800803B680F2138461B6A984730B131
:1051B000013C052007F024F914F0FF04F2D103B0FC
:1051C000BDE8F08373B540F6A3730D4602A904460B
:1051D0000830164641F8043DFFF7EFF90123324647
:1051E0002946036000232046FFF7B0FF02B070BDE0
:1051F0002DE9F7434FF47A6302AE00F10805044647
:1052000046F8043D31462846FFF7D7F90368072BD7
:1052100008D994F83830042B04D90027384603B055
:10522000BDE8F083E76B002FF8D04FF47A61204699
:1052300002F0D3FD0028F0D04FF47A6831462846BA
:10524000CDF80480FFF7B9F90168204601F6DC715A
:1052500002F0C3FD0028E0D0E76B31462846CDF8C8
:105260000480FFF7AAF90178384602AF032201F063
:10527000A5FD47F8088D28463946D4F83C90FFF73D
:105280009CF903683146284603F6DC730193FFF767
:1052900094F904220178484601F090FD39462846E9
:1052A000D4F83C90CDF80080FFF787F903683146C9
:1052B000284603F6DC730193FFF77FF90522417856
:1052C000484601F07BFD40F6A173E76B3146284666
:1052D0000193FFF772F906220178384640F6A3776A
:1052E00001F06CFD314628460197FFF766F9036827
:1052F00043B33146284601974FF01E08FFF75DF98A
:1053000000233D210360E06B04224FF0DC093C30B8
:1053100003F0B9F994F838200C4B0746314628467B
:1053200002FB09394FF47A63E46B0193FFF745F907
:1053300002683C343B46484642442146D2B2FEF71E
:105340008DFF6BE74FF015080D21DCE7703300246B
:105350000068FFF74DBFC36B37B5044613B9002093
:1053600003B030BD4FF47A6102F037FD0028F6D06B
:1053700002A94FF47A63E56B04F1080041F8043D9B
:10538000FFF71BF903220178284601F017FDE06BB7
:1053900001220F213C3003F081F9E1E70068FFF7BB
:1053A000DABF2DE9F34100F1080702AD4FF47A6846
:1053B0000646384645F8048D2946FFF7FEF803688F
:1053C000072B15D8F46BACB129463846CDF80480CC
:1053D000FFF7F3F803220178204601F0EFFCF06BB1
:1053E000012240213C3003F059F902B0BDE8F081C0
:1053F0000020FAE72046F8E70068FFF7D2BF2DE962
:10540000F3410546C06B20B90026304602B0BDE826
:10541000F081022240210C3003F003F906460028F7
:10542000F2D00321E86B01F0CFFC05F1080740F64C
:10543000A57302AC8046384644F8043D2146FFF788
:10544000BCF80421C0F80080E86B01F0BDFC40F618
:10545000A4730546214638460193FFF7AEF8056070
:10546000D3E70068FFF7CBBFF7B54FF47A6302AD1F
:1054700000F10806044645F8043D29463046FFF78A
:105480009CF80368072B07D994F83830042B03D90C
:105490000025284603B0F0BDE36B002BF8D041F2A5
:1054A0000201204602F099FC0028F1D041F20203EB
:1054B000E76B294630460193FFF77FF80322017816
:1054C000384601F07BFCE06B012215213C3003F0F3
:1054D000DAF894F838600546E16B0346044CDC20AA
:1054E0001D223C3106FB0040FEF7B8FED1E700BFAD
:1054F000703300240068FFF7B7BF2DE9F347064675
:10550000C06B10220B210C3003F08BF8804648B39F
:1055100040F6D27406F1080740F6DA79E5B2F06B8E
:1055200069005F31C9B201F04FFC01A982463846DB
:105530000194FFF742F805F13001C0F800A0F06BCC
:10554000490001F0FE0101F03FFC01A90546384683
:105550000194FFF732F8013403684C4503EB05234F
:105560000360DBD1404602B0BDE8F0870068FFF77A
:10557000C4BF73B50446C06B012212210C3003F086
:1055800050F8054670B10321E06B01F01DFC02A943
:1055900040F6F873064604F1080041F8043DFFF7B1
:1055A0000CF80660284602B070BD0068FFF7E1BF46
:1055B00070B58B68044616460D1D012053B11A695B
:1055C0001D463068904239BF9A680120DA68002091
:1055D0001346F3E790B1CA68AA4203D1C4E9003583
:1055E000204670BD284627F08DFF336802699A4235
:1055F0004FF00003F2D3C4E90003F1E72846F4E7D3
:105600002DE9F74300F1040805460E468368444639
:105610004BB13268196991423ABFDA6823469A68F9
:105620001C461346F4E7A04503D0326823699A422A
:105630002BD218201CF0D4FB36680023A045074667
:1056400000F110090661436124D16B691BB12A691D
:105650001369B3420AD34A4629466846FFF7A8FFB2
:10566000DDE90042002A4ED0002C4AD1904548D0B6
:10567000106986422CBF002001204346394627F09E
:1056800043FF6B6901336B613C4604F1140003B0C6
:10569000BDE8F0832369B34219D9EB689C420BD073
:1056A000204627F02FFF0369B34208D2C368002BBE
:1056B0000ABF04462346002322461C46D2E74A4638
:1056C00029466846FFF774FFDDE90034F4E71AD293
:1056D0002A69944208D0204627F0F8FE0369B342B5
:1056E00004D9E3685BB92246002006E04A466846D2
:1056F0002946FFF75DFFDDE900020446B2E70246F6
:10570000FBE70120B9E7384627461CF091FBBBE7D1
:105710002DE9F04F85B04FF47A6300F10806044696
:1057200004AD304645F8043D2946FEF746FF0368C0
:10573000072B08D994F83830042B04D900273846B1
:1057400005B0BDE8F08FE36B002BF7D02046FEF7E5
:105750004DFE0028F2D04FF47A63E76B29463046BD
:105760000393FEF72AFF03220178384640F6B87803
:1057700001F024FB40F6B773E76B294630460393EC
:10578000FEF71BFF04220178384601F017FB04F1F5
:10579000200704A9384641F8088DFFF731FFF3EEE2
:1057A000097A90ED007AB4EEE77AF1EE10FA07D5B7
:1057B00029463846CDF80C80FFF722FFD0ED007A5D
:1057C0000DF1100817EE903A002748F80C3D7A1DAD
:1057D00018F807100137E06BD2B201F0EFFA042F8E
:1057E000F5D1E06B06220E21DFF854B03C304FF0CB
:1057F000DC0802F048FF94F838904FF47A6A0746C4
:1058000009FB08B929463046CDF80CA0FEF7D5FEB5
:1058100001784846FEF70EFD94F83830E46B2946CF
:1058200003FB08B830463C34CDF80CA0FEF7C5FEAB
:105830003B46027821464046FEF710FD7FE700BF59
:10584000703300240068FFF763BF73B50546C06B73
:1058500018B90026304602B070BD05220F210C3069
:1058600002F0DFFE06460028F3D00024211DE86B7D
:10587000C9B201F0A9FA0DF804000134042CF5D1E5
:105880000321E86B01F0A0FA02A900F6E67041F8E6
:10589000040D05F12000FFF7B3FE009B0360D9E77C
:1058A0000068FFF7D2BF436810B50C46FBB15A68D9
:1058B0004260D2B1D1688B424FF0000113D1D16068
:1058C000926842B142604268D16809B14160FAE72A
:1058D000926802B1426003F1100294E8030082E88A
:1058E0000300184610BD9160F5E70260F3E7182049
:1058F0001CF076FA0346EEE72DE9F0470D468046A8
:105900001031184616461F46FFF7CDFF2B7846602C
:10591000044603700023C0E90233E96829B1024656
:105920003B464046FFF7E8FFE060AE68A1464FF017
:10593000000A26B306F110013846FFF7B4FF3378AA
:1059400005460370C0E902AAC9F80800C0F804902F
:10595000F16829B102463B464046FFF7CDFFE860BB
:10596000B668A946E5E727F03BFA21464046FEF730
:10597000B0FD27F02FFC27F073FA27F0F9FA204644
:10598000BDE8F087436810B50C46FBB15A68426029
:10599000D2B1D1688B424FF0000113D1D16092682F
:1059A00042B142604268D16809B14160FAE7926849
:1059B00002B1426003F1100294E8030082E80300A0
:1059C000184610BD9160F5E70260F3E718201CF05F
:1059D00007FA0346EEE72DE9F0470D468046103101
:1059E000184616461F46FFF7CDFF2B784660044643
:1059F00003700023C0E90233E96829B102463B463F
:105A00004046FFF7E8FFE060AE68A1464FF0000AAD
:105A100026B306F110013846FFF7B4FF3378054688
:105A20000370C0E902AAC9F80800C0F80490F16840
:105A300029B102463B464046FFF7CDFFE860B66815
:105A4000A946E5E727F0CCF921464046FEF750FD90
:105A500027F0C0FB27F004FA27F08AFA2046BDE8B9
:105A6000F087000030B587B004460D4602F054F9C7
:105A7000474B0022236084F8392084F83A20EB6BEE
:105A8000E363FF2384F8383095F83930042B3ED196
:105A900004F1080005F10803984224D02369A169A4
:105AA0000093CDE9011013B15A608B6803B10193E3
:105AB000002304F10C022361E361C4E90522296992
:105AC00069B16B46FFF718FF03469A6812BB636122
:105AD0000346DA6802BBA361EB692061E3610099C8
