:020000040800F2
:10000000000008247D060008C9060008C90600088B
:10001000C9060008C9060008C9060008000000005B
:10002000000000000000000000000000B50500080E
:10003000C9060008000000004F0600085F0600081F
:10004000C9060008C9060008C9060008C906000854
:10005000C9060008C9060008C9060008C906000844
:10006000C9060008C9060008C9060008C906000834
:10007000C9060008C9060008C9060008C906000824
:10008000C9060008C9060008C9060008C906000814
:10009000C9060008C9060008C9060008C906000804
:1000A000C9060008C9060008C9060008C9060008F4
:1000B000C9060008C9060008C9060008C9060008E4
:1000C000C9060008C9060008C9060008C9060008D4
:1000D000C9060008C9060008C9060008C9060008C4
:1000E000C9060008C906000800000000C90600088B
:1000F000C9060008C9060008C9060008C9060008A4
:10010000C9060008C9060008C9060008C906000893
:10011000C9060008C9060008C9060008C906000883
:10012000C9060008C9060008C9060008C906000873
:10013000C9060008C9060008C9060008C906000863
:10014000C9060008C9060008000000000000000001
:10015000C9060008C9060008C9060008C906000843
:10016000C9060008C9060008C9060008C906000833
:10017000C9060008C9060008C906000800000000FA
:10018000C9060008C9060008C9060008C906000813
:10019000C9060008C9060008C9060008C906000803
:1001A000C9060008C9060008C9060008C9060008F3
:1001B000C9060008C9060008C9060008C9060008E3
:1001C000C9060008C9060008C9060008C9060008D3
:1001D000C9060008C9060008C9060008C9060008C3
:1001E000C9060008C9060008C9060008C9060008B3
:1001F000C9060008C9060008C9060008C9060008A3
:10020000C9060008C9060008C9060008C906000892
:10021000C9060008C9060008C9060008C906000882
:10022000C9060008C9060008C9060008C906000872
:10023000C906000891550008C9060008C90600084B
:10024000C9060008C9060008C9060008C906000852
:10025000C9060008C9060008C9060008C906000842
:10026000C9060008C9060008C9060008C906000832
:10027000C9060008C9060008C9060008C906000822
:10028000C9060008C9060008C906000800000000E9
:10029000C9060008C90600080000000000000000B0
:1002A000000000000000000000000000000000004E
:1002B000000000000000000000000000000000003E
:1002C000000000000000000000000000000000002E
:1002D000000000000000000000000000000000001E
:1002E000000000000000000000000000000000000E
:1002F0004D4355626F6F742041726475696E6F0073
:10030000FFFFFFFFFFFFFFFFFFFFFFFFFFFFFFFFFD
:10031000FFFFFFFFFFFFFFFFFFFFFFFFFFFFFFFFED
:10032000FFFFFFFFFFFFFFFFFFFFFFFFFFFFFFFFDD
:10033000FFFFFFFFFFFFFFFFFFFFFFFFFFFFFFFFCD
:10034000FFFFFFFFFFFFFFFFFFFFFFFFFFFFFFFFBD
:10035000FFFFFFFFFFFFFFFFFFFFFFFFFFFFFFFFAD
:10036000FFFFFFFFFFFFFFFFFFFFFFFFFFFFFFFF9D
:10037000FFFFFFFFFFFFFFFFFFFFFFFFFFFFFFFF8D
:10038000FFFFFFFFFFFFFFFFFFFFFFFFFFFFFFFF7D
:10039000FFFFFFFFFFFFFFFFFFFFFFFFFFFFFFFF6D
:1003A000FFFFFFFFFFFFFFFFFFFFFFFFFFFFFFFF5D
:1003B000FFFFFFFFFFFFFFFFFFFFFFFFFFFFFFFF4D
:1003C000FFFFFFFFFFFFFFFFFFFFFFFFFFFFFFFF3D
:1003D000FFFFFFFFFFFFFFFFFFFFFFFFFFFFFFFF2D
:1003E000FFFFFFFFFFFFFFFFFFFFFFFFFFFFFFFF1D
:1003F000FFFFFFFFFFFFFFFFFFFFFFFFFFFFFFFF0D
:10040000FFFFFFFFFFFFFFFFFFFFFFFFFFFFFFFFFC
:10041000FFFFFFFFFFFFFFFFFFFFFFFFFFFFFFFFEC
:10042000FFFFFFFFFFFFFFFFFFFFFFFFFFFFFFFFDC
:10043000FFFFFFFFFFFFFFFFFFFFFFFFFFFFFFFFCC
:10044000FFFFFFFFFFFFFFFFFFFFFFFFFFFFFFFFBC
:10045000FFFFFFFFFFFFFFFFFFFFFFFFFFFFFFFFAC
:10046000FFFFFFFFFFFFFFFFFFFFFFFFFFFFFFFF9C
:10047000FFFFFFFFFFFFFFFFFFFFFFFFFFFFFFFF8C
:10048000FFFFFFFFFFFFFFFFFFFFFFFFFFFFFFFF7C
:10049000FFFFFFFFFFFFFFFFFFFFFFFFFFFFFFFF6C
:1004A000FFFFFFFFFFFFFFFFFFFFFFFFFFFFFFFF5C
:1004B000FFFFFFFFFFFFFFFFFFFFFFFFFFFFFFFF4C
:1004C000FFFFFFFFFFFFFFFFFFFFFFFFFFFFFFFF3C
:1004D000FFFFFFFFFFFFFFFFFFFFFFFFFFFFFFFF2C
:1004E000FFFFFFFFFFFFFFFFFFFFFFFFFFFFFFFF1C
:1004F000FFFFFFFFFFFFFFFFFFFFFFFFFFFFFFFF0C
:1005000010B5054C237833B9044B13B10448AFF34D
:1005100000800123237010BD20040024000000008F
:10052000FCC5010808B5034B1BB103490348AFF3F1
:10053000008008BD0000000024040024FCC5010860
:10054000154B002B08BF134B9D46A3F5803A0021A5
:100550008B460F461348144A121A18F0F7FB0F4B3C
:10056000002B00D098470E4B002B00D0984700205E
:10057000002104000D000D48002802D00C480DF0A9
:1005800077F918F0DBF92000290014F073FA0DF068
:100590003DFB00BF00000800000008240000000030
:1005A000F94B01082004002458A5022471D8000842
:1005B000000000001EF0040F0CBFEFF30880EFF303
:1005C0000980816911F8021C002932D101B590E837
:1005D0000F10E047BDE800508CE80300244B93E87F
:1005E0000600914208BF70471A6041B91EF0100F13
:1005F00010D1204B186820F0010018600AE02CE9A7
:10060000F00F1EF0100F08BF2CED108A81F822E0C9
:10061000C1F838C0906B92F8221061F0FF0E1EF006
:10062000100F08BFB0EC108AB0E8F00F80F3098813
:100630007047114A13689942FAD801B552F821C09F
:100640000FC8E047BDE80050CCF80000704701B586
:1006500014F018FDBDE80140EFF3098CBEE701B5C9
:1006600014F052FDBDE80140EFF3098CB6E700003D
:100670002C01002434EF00E06CC30108DFF830D017
:1006800004F0B8FF002103E00A4B5B5843500431EB
:1006900009480A4B42189A42F6D3094A02E000235D
:1006A00042F8043B074B9A42F9D3FFF749FF7047E2
:1006B0000000082414F0010800000024180400249D
:1006C0002004002458A50224FEE70000264B022245
:1006D00083F83E201B681A6A22F001021A621A6A25
:1006E00042F001021A62214A934219D002F5806257
:1006F000934215D002F57052934211D002F58062F8
:1007000093420DD002F58062934209D0B3F1804F3D
:100710000ED19968164A0A40062A21D10020704756
:100720005A6C42F400425A64104A9342EED1F0E708
:10073000104A9342EDD002F580629342E9D002F56F
:1007400080629342E5D002F578429342E1D0A2F56F
:100750006C429342DDD01A6842F001021A60DDE774
:10076000B2F5803FF7D1D9E76405002400000140CD
:10077000070001000004004008B5044B027853F85C
:10078000220003685B6B9847C0B208BD00000024DC
:1007900073B50E4600781146064A002452F8200030
:1007A0000268CDE90034234695693246A84702B075
:1007B00070BD00BF0000002410B5846802EB011278
:1007C00001312023A03C0C32A4EB4111FFF7E0FFE4
:1007D000003818BF012010BD024B6FF002021B68E9
:1007E0001A61704764050024034B1A68D36823F02C
:1007F0000203D360704700BF64050024064B6FF00E
:1008000002021B681A615A6942F002025A61DA68F0
:1008100042F00202DA60704764050024054B6FF075
:1008200002021B6858631A61DA6842F00202DA6059
:10083000704700BF64050024014B586A704700BF31
:10084000000C0040064A1168CB6823F00203CB601D
:1008500092F83E30012B01D1FFF738BF704700BF3F
:1008600064050024074B084A13601A69910708D5EC
:10087000DA68920705D56FF0020204481A610DF09C
:10088000B3B87047000C00406405002464B101084F
:100890000048704714B101086AB101F00301074B29
:1008A0000329596808D000F47060B0F5706F03D167
:1008B00021EA02025A6070470A43FBE7000400582D
:1008C00030B5114B114DD5F894409C42FBD14943B2
:1008D000012A01EB41034FEA41046FEA030304D00C
:1008E000022A0BD0C26813400BE0C26813401943C0
:1008F000C160064B4FF440725A6130BDC26813406C
:100900002343C360F5E700BF000300800064025882
:100910002DE9F04191F800E04B7874464E69012BC7
:10092000354F4FEA4414DFF8D4C044D100F51065C8
:100930002B19B6B91E6937401F611E6946F400269F
:100940001E611E6906EA0C06012A1E6122D10A698F
:1009500002B15A612B5943F004432B510020BDE8EA
:10096000F081D3F8108008EA0C0CC3F810C0D3F85B
:1009700010C00CEA07071F618F68BE421E6946F46B
:10098000002688BF4F611E614E691F69C6F31206BB
:100990003E43D9E72B5943F004432B514B69002BBD
:1009A000DCD00EF00F020123D0F8341893400B4333
:1009B000C0F83438D2E700F5306003191D6905EA44
:1009C0000C051D611D693D401D618D6806B14D61BD
:1009D0001E69C5F31205012A46F400261E611E6930
:1009E00045EA06051D6102D1CA6802B15A61035980
:1009F00043F004430351B1E7FFFF07E00000F8FFB5
:100A00004E4A70B5946A966AD36A16F07C7FC6F334
:100A10000551556C00F08D8007EE901AC3F300234A
:100A2000C5F3CC0104F00304F8EEE76A4B43012C54
:100A3000B7EE006A07EE903AFAEEE97A6BD0022C34
:100A40005BD0002C67D113689B0646D51168136CE8
:100A5000C1F3C1013A4AC3F30803CA4007EE102AA2
:100A6000F8EEC75A85EEA67A06EE903AF8EEE66AF8
:100A700076EEA77A77EE867A304A67EE877A136C3D
:100A8000C3F3462307EE103AB8EEC77A37EE067A7C
:100A9000C7EE876AFCEEE66AC0ED006A136CC3F32A
:100AA000064307EE103AB8EEC77A37EE067AC7EE7D
:100AB000876AFCEEE66AC0ED016A136CC3F3066355
:100AC00007EE103AB8EEC77A37EE066A87EE867AF6
:100AD000BCEEC77A80ED027A70BD136CDFED195A57
:100AE000C3F3080307EE103AB8EEC77A77EE277A19
:100AF00077EE867A85EEA67ABEE7136CDFED125AA2
:100B0000C3F3080307EE103AB8EEC77A77EE277AF8
:100B100077EE867AEEE7136CDFED0C5AC3F3080329
:100B200007EE103AB8EEC77A77EE277A77EE867A34
:100B3000E0E7C0E900118160CEE700BF0044025841
:100B40000090D0030024744C20BCBE4B0024744A97
:100B50004E4A70B5946A966AD36A16F47C3FC6F31F
:100B60000531D56B00F08D8007EE901AC3F30013AA
:100B7000C5F3CC0104F00304F8EEE76A4B43012C03
:100B8000B7EE006A07EE903AFAEEE97A6BD0022CE3
:100B90005BD0002C67D113689B0646D51168936B18
:100BA000C1F3C1013A4AC3F30803CA4007EE102A51
:100BB000F8EEC75A85EEA67A06EE903AF8EEE66AA7
:100BC00076EEA77A77EE867A304A67EE877A936B6D
:100BD000C3F3462307EE103AB8EEC77A37EE067A2B
:100BE000C7EE876AFCEEE66AC0ED006A936BC3F35A
:100BF000064307EE103AB8EEC77A37EE067AC7EE2C
:100C0000876AFCEEE66AC0ED016A936BC3F3066384
:100C100007EE103AB8EEC77A37EE066A87EE867AA4
:100C2000BCEEC77A80ED027A70BD936BDFED195A86
:100C3000C3F3080307EE103AB8EEC77A77EE277AC7
:100C400077EE867A85EEA67ABEE7936BDFED125AD1
:100C5000C3F3080307EE103AB8EEC77A77EE277AA7
:100C600077EE867AEEE7936BDFED0C5AC3F3080359
:100C700007EE103AB8EEC77A77EE277A77EE867AE3
:100C8000E0E7C0E900118160CEE700BF00440258F0
:100C90000090D0030024744C20BCBE4B0024744A46
:100CA000002070476FF0570070476FF05700704793
:100CB000036810B49C6C0023A4461A465DF8044BEC
:100CC00060476FF05700704743680A46196810B4D0
:100CD0008C6D8168184623465DF8044B18474368BD
:100CE00081681A681846526D1047436881681A680F
:100CF0001846126D1047436881681A681846D26C0E
:100D0000104730B4446813462268956C0A468168DF
:100D10002046AC4630BC6047436881681A68184674
:100D2000526C1047436881681A681846126C104765
:100D300030B4446813462268D56B0A468168204661
:100D4000AC4630BC604730B4446813462268956BAB
:100D50000A4681682046AC4630BC604710B5044660
:100D6000406830B10368A1685B6B984700236360FB
:100D700010BD6FF01500FBE738B50446FFF7EEFF36
:100D80000546236820465B689847284638BD70B5FD
:100D90000D464168044641B929680E6B00F108010F
:100DA0002846B04700B9656070BD6FF01500FBE7DD
:100DB000044B10B50360044643680BB1FFF7CEFF48
:100DC000204610BDE8AF0108034B10B50446036090
:100DD000FFF7EEFF204610BD74B00108436881683C
:100DE0001A681846526F1047436881681A68184697
:100DF000126F1047436881681A681846D26E104710
:100E000043680A46196810B48C6E816818462346F8
:100E10005DF8044B184710B50446406830B10368CC
:100E2000A1681B6E98470023636010BD6FF015002A
:100E3000FBE738B50446FFF7EEFF0546236820467A
:100E40005B689847284638BD38B5436804460D4668
:100E500043B90B6800F108012846DB6D984700B9DB
:100E6000656038BD6FF01500FBE70000044B10B55E
:100E70000360044643680BB1FFF7CDFF204610BD69
:100E8000BCAF0108034B10B504460360FFF7EEFF4B
:100E9000204610BD48B001080368013303600020FC
:100EA0007047F7B5089F0E4604681946C0690023CD
:100EB000256800970027E0FB0623204601976D690F
:100EC000A84703B0F0BDF7B5089F0E460468194661
:100ED000C0690023256800970027E0FB0623204611
:100EE0000197AD69A84703B0F0BD37B50468C36981
:100EF00000202268009301902046D569A1FB0323BE
:100F0000A84703B030BD006803681B691847002874
:100F100007DC10F1160F04DA10F1340F08BF6FF080
:100F2000890070470B4640F20112002170B504465B
:100F3000184617F00BFF03466068A1680268556EFB
:100F40001A462B46BDE870401847000010B50CF05B
:100F5000BBFC134B1348144A596A14680388116088
:100F60001B1B0B440146B3F5803F16D34FF47A7137
:100F7000B3FBF1F201FB1233038006E00132A3F56B
:100F80007A73B3F57A7FF9D20B80084C23681A4440
:100F900022600CF085FC206810BD0022F1E700BF44
:100FA000000C0040680B02246C0B0224F00C02249D
:100FB00070B504460D4616462368DB6935EA03031F
:100FC00001D1002017E0FFF7C1FF801B2368B0F1BB
:100FD000007F1A6810D322F4D0721A609A6822F047
:100FE00001029A602023C4F88430C4F888300023BA
:100FF000032084F8803070BD5107DDD5DA69120511
:10100000DAD54FF400621A621A6822F4D0721A60BC
:101010009A6822F001029A602023C4F88430C4F850
:101020008830C4F88C30E2E7F8B53A4C06460D46F5
:10103000A36A03F00303032B69D0236823F08053D2
:101040002360FFF783FF074623689A004BD4A36A07
:10105000326823F07C7343EA0253A362B368F268F8
:10106000013B013A5B0212049BB202F4FE021343FD
:101070007268013AC2F3080213433269013A120658
:1010800002F0FE4213432364E36A726923F440636F
:101090001343E362E36AB26923F400731343E36228
:1010A000E36A23F48073E362636CF26923F47F43A1
:1010B00023F0F80343EAC2036364E36A43F48073F2
:1010C000E362E36AB5B943F48003E362114C236839
:1010D00043F080532360FFF739FF054623689B00E8
:1010E0000FD5002005E0FFF731FFC01B0228ABD968
:1010F0000320F8BD012D0CBF43F4000343F08073BF
:10110000E3E7FFF723FF401B0228E7D9F0E70120C0
:10111000EFE700BF00440258F8B53A4C06460D46CA
:10112000A36A03F00303032B69D0236823F08063D1
:101130002360FFF70BFF074623681A014BD4A36A0D
:10114000326823F47C3343EA0233A362B368F26863
:10115000013B013A5B0212049BB202F4FE0213430C
:101160007268013AC2F3080213433269013A120667
:1011700002F0FE421343A363E36A726923F0C003E3
:101180001343E362E36AB26923F020031343E3628B
:10119000E36A23F01003E362E36BF26923F47F4315
:1011A00023F0F80343EAC203E363E36A43F0100366
:1011B000E362E36AB5B943F40023E362114C2368A8
:1011C00043F080632360FFF7C1FE054623681B01DF
:1011D0000FD5002005E0FFF7B9FEC01B0228ABD9F0
:1011E0000320F8BD012D0CBF43F4801343F400131A
:1011F000E3E7FFF7ABFE401B0228E7D9F0E7012049
:10120000EFE700BF004402582DE9F041DDF81880F7
:1012100004460E4615461F4622689368334214BFA3
:1012200001230023AB4201D1002012E0B8F1FF3FBF
:10123000F3D0FFF78BFEC01B404502D8B8F1000F7A
:10124000EAD10423012084F84130636C43F00103A8
:101250006364BDE8F0812DE9F04F054685B00C468A
:10126000FFF774FE95F8402007EE900A012A00F07F
:10127000E1800122022085F8402095F84120012AD2
:1012800040F0BE80002241F2883117EE903ACDED59
:10129000037A6A640091202185F841002846FFF70F
:1012A000B3FFDDED037A002840F0AA80D4F824C013
:1012B000BCF1000F03D0A26A2968013A0A61D4F890
:1012C00018A0D4E90727BAF1000F50D063694CEA9F
:1012D0000A0AD5F800E026684FEA834BD4F8348038
:1012E000D4E90B1967B3A36847EA0A0A2769CEF85D
:1012F0001C30BAB132431143E26841EA090949EAB4
:10130000080848EA0707174347EA0B0747EA0A07AE
:10131000CEF814706268CEF81820BCF1000F40F0CF
:10132000818062E0314341EA090949EA080848EA54
:10133000070747EA0B0747EA0A07CEF81470ECE7FD
:1013400052B142EA06070F4347EA090747EA08088D
:10135000E76848EA0707D7E746EA010747EA0907C7
:1013600047EA080747EA0B0B4BEA0A07E5E737B3FA
:10137000A1684CEA0707D5F800E02669CEF81C10F2
:101380006169D4F834808904D4E90BA96AB1324385
:10139000E36842EA0A0A4AEA090949EA080848EA07
:1013A000030848EA01010F43B2E746EA0A0646EAA3
:1013B000090949EA080848EA01010F43BDE78AB173
:1013C000E16A4CEA02020A43216B0A43616B0A4359
:1013D000E1680A43616942EA814229684A616268B8
:1013E0008A619AE7BCF1000F10D141F2883217EE02
:1013F000903A0221284600920122FFF705FFA8B18A
:10140000002385F8403005B0BDE8F08FE36A226B19
:101410004CEA03031343626B1343626943EA82435A
:101420002A685361012385F84130E9E72B680222DD
:10143000DA60F7E70220E6E738B50C4B04460C4DBE
:1014400003600023C0E9013101230373284610F033
:10145000B1FE09F01BFD074B28461A681C6062604C
:1014600010F0A8FE09F0F2FC204638BDC8B0010813
:10147000D8060024D406002413B50C46A4300190ED
:1014800009F004FDA469019809F0E0FC204602B0CF
:10149000BDE81040FFF73BBD37B50D46A4300190C5
:1014A00009F0F4FCEB696C6913F4003F019803D078
:1014B0002B6A9C4238BF1C4609F0C8FC204603B08A
:1014C000BDE83040FFF723BD13B50C46A4300190B2
:1014D00009F0DCFC246A019809F0B8FC204602B04F
:1014E000BDE81040FFF713BD10B50446FFF76CFCD4
:1014F000204617F0C1FB204610BD10B50446FFF78B
:10150000C1FC204617F0B8FB204610BD10B50446BC
:10151000FFF74EFC204617F0AFFB204610BD10B57C
:101520000446FFF7A3FC204617F0A6FB204610BD9B
:1015300037B50546A4300C46019009F0A7FC05F12B
:1015400024026B6A01981BB19C420DD12368136081
:1015500009F07CFC14B1204617F08EFB002003B08C
:10156000BDE83040FFF7D3BC1A461B68EBE700002C
:101570002DE9F04FE9B0054693460F46442200217D
:1015800015A8984617F0E2FBEA6D42F2107359462F
:10159000073215A82393D2080DF07CFF04460028DB
:1015A00040F0D18105F1340108F10C000DF0E2FEAC
:1015B000002840F0A38005F1280140460DF0DAFE36
:1015C000B0FA80F35B090593EB6DB3F5C07F2CBFD8
:1015D000052204220392059A12B1039A0132039262
:1015E000039A934298BF0222013B02F1FF39039212
:1015F000012202FA09F206929DF818200492039A39
:101600001344B3FBF2F30293059B13B16E6F002EEC
:101610005ED12421069818F03DFE0646002800F011
:10162000958100244FF0240A0AFB046001340DF078
:101630006DFE049AE3B29A42F6D8414630460EF067
:10164000BDFA044600286ED1029B804603FB09FACE
:101650004FF00109D04553D10DF198090022012323
:10166000484603EBC30101325B0006EB8101DBB2AC
:1016700040F8041B04999942F3D826A928460FF094
:10168000E7FF044600284ED14FF0010808EBC803DD
:10169000C24606EB830352460AF1FF3A002A6BD199
:1016A0004FEA4808049B5FFA88F84345EED82423A4
:1016B0000132069991426DD14A1E284626A90FF0A3
:1016C000C7FF044678BB059B13B1069B6E67AB67EB
:1016D000002405F14C0801230DF124092146404660
:1016E0000E94C9F80840C9E90034CDE90C340DF076
:1016F000AAFF012853D0A4F59F4414E0059463E7A2
:10170000029BB8FBF3F009FA00F12423C9B203FBF2
:101710000162029B03FB1080E8B1114628460FF0DE
:1017200003FB044628B315A80DF01EFD442115A89F
:101730000CF0A0FF42F2107323936B6FB34202D000
:10174000002E40F0128114B138460EF0C4F8204645
:1017500069B0BDE8F08F49081046079201EBC1015E
:1017600006EB81010EF02AFA079A04460028D4D02D
:10177000D9E708F101086DE724222846079302FB08
:101780000AF1721819440FF015FC079B0446002853
:1017900081D0C8E703FB026149F8041B88E72146B2
:1017A00058460DF050FFB0FA80FA594648460EF000
:1017B000D9F904464FEA5A1A00BB5A4641460CA8CA
:1017C0000EF08DFE0446C8B952460CA948460EF0EC
:1017D0002BF8044690B9029B0DF19808014626A803
:1017E0005A1CA34617F0B2FA4346029A5A454FD103
:1017F0004FF0000E4FF0010CE34565D20CA80EF03F
:1018000049F809A80EF046F8002C8CD10CA80DF16F
:1018100098080DF07BFD029B3246394618F80330DC
:1018200028460093049B0EF0A1FE044688B90121CE
:1018300007F118000DF058FF044650B915AB4D4A9A
:10184000394628460FF006FA044610B9029B002BD1
:101850005BD10CA80EF031F8002C7FF464AF524637
:10186000394628460EF05EFE044600287FF45BAF42
:1018700015AB404A394628460FF0ECF904460028DB
:101880007FF451AF394628460FF094FE04464AE7EC
:101890005946002248460591CDE906320DF0D3FEA7
:1018A000079A069B9040029993F800C001324CEAD7
:1018B0000000187008460599014403989042E9D841
:1018C0000BF1010B013390E798F801000CF1010CCA
:1018D00098F8002080EA0E0300EA0E00D9435BB2BC
:1018E00001F0010112FB01F252B203EA0209534076
:1018F00008F8013F49EA000E18F8013C5FFA8EFE35
:1019000043EAC11108F8011C76E7029B3A463946C2
:101910002846013B02930FF007FA90B9029B32462A
:101920000CA9284613F808300093049B0EF01EFE05
:1019300038B90CAB3A46394628460FF03BFB002835
:1019400084D0044685E700260496ECE60A4CEAE6D5
:1019500008FB056001350DF0BEFFEBB2049A9A4218
:10196000F6D8304617F088F9EDE600254FF0240848
:10197000F3E700BF79F2000880B2FFFF2DE9F04FD6
:101980002DED028BBBB004460E46914608EE103A90
:101990000DF0E6FC022840F09D814422002129A898
:1019A00020AD17F0D3F942F2107328460127379380
:1019B0000DF0ACFCE26D0023494629A807320493E0
:1019C000D208CDE902730DF065FD0346002862D10F
:1019D00018EE101A02A80EF0C5F8034600285AD1D6
:1019E00018EE101A28460EF0E9F80346002852D1E6
:1019F000394630460DF078FE034600284BD106F1FB
:101A00001807014638460DF06FFE0346002842D104
:101A100004F1040B06F10C000DF03CFF594628467A
:101A20000DF0A8FC00282EDA29ABB34A294620463F
:101A30000FF0C6F8034670BB48464FF001080DF0A2
:101A40005DFD431E0093009B01333FD129ABAA4AA1
:101A5000314620460FF0B4F80346E0B95A463946FD
:101A600038460FF0D3FB0346A8B93B463246314611
:101A700020460EF0A9FF034668B9012138460DF053
:101A800033FE034607E05A46294628460EF0F3F98E
:101A900003460028C2D029A800930DF065FB44211D
:101AA00029A80CF0E7FD42F2107220A837920DF041
:101AB00004FF02A80DF0EEFE009B002B00F00B814E
:101AC00018463BB0BDEC028BBDE8F08F009948464C
:101AD0000DF0B9FD29465FFA80FA304652460DF006
:101AE00065FE03460028D6D1524626A938460DF099
:101AF0005DFE03460028CED13B461F90324605A925
:101B0000CDE90580CDE90708CDE90900CDE90B80D5
:101B1000CDE90D08CDE90F00CDE91180CDE913081D
:101B2000CDE91500CDE91780CDE91908CDE91B00F5
:101B3000CDE91D8020460EF06FFD0346002840F0E1
:101B4000938005AB08A920461A460EF03DFF0346D8
:101B5000002840F089803B4632460BA920460EF013
:101B60006BFD034600287FD10BAB0EA920461A4619
:101B70000EF02AFF0346002876D10EAB08AA11A961
:101B800020460EF059FD034600286DD126AB2A46AB
:101B900014A920460EF040FD0346002864D126AB70
:101BA0002A4617A920460EF047FD034600285BD1C0
:101BB00005AB17AA1AA920460EF006FF0346002817
:101BC00052D10BAB14AA1DA920460EF0FDFE034610
:101BD000002849D11DAB1AAA294620460EF01CFD4B
:101BE0000346002840D12B462A46294620460EF0BF
:101BF000EBFE0346002837D11DAB1AAA26A92046C2
:101C00000EF01AFD034678BB26AB20461A4619464D
:101C10000EF0DAFE034638BB26AB02AA2046194670
:101C20000EF0D2FE0346F8B90EAB08AA31462046A4
:101C30000EF0CAFE0346B8B911AB04F110023946E2
:101C400020460EF0C1FE034670B93B460EAA394647
:101C500020460EF0E1FC034630B93B4611AA394656
:101C600020460EF0B1FE034605A801930DF012FECA
:101C700008A80DF00FFE0BA80DF00CFE0EA80DF03D
:101C800009FE11A80DF006FE14A80DF003FE17A81A
:101C90000DF000FE1AA80DF0FDFD1DA80DF0FAFDD7
:101CA000019B002B7FF4F7AE5246294630460DF0DB
:101CB0007DFD034600287FF4EEAE524626A9384645
:101CC0000DF074FD009B013B0093034600283FF498
:101CD000BAAEE0E6094B204600930DF041FB012827
:101CE000009B7FF4EDAE18EE103A4A46314620468E
:101CF000FFF73EFC0346E3E679F2000880B0FFFF01
:101D0000F7B505460C461046012116461F460DF054
:101D100074FB30B93946204603B0BDE8F0400DF001
:101D20004DBF4FF0FF3130460DF067FBA0B939468B
:101D300020460DF043FF10BB04F10C020146104693
:101D400001920DF05AFB019AC8B1291D104603B04B
:101D5000BDE8F0400EF0C3BB314628460DF084FCD0
:101D600068B9394628460EF07BFE40B93B463246FC
:101D70002146284603B0BDE8F040FFF7FFBD03B0A1
:101D8000F0BD30B58FB00C461946139DFBB1002352
:101D9000CDE906330893130F8DF82430130D8DF819
:101DA0002530130B12098DF826308DF827204FF4BB
:101DB0008E72237802FB0300129B05AA05930AABDF
:101DC0000430009306ABCDE901550FF087FD0FB04D
:101DD00030BD37B50223154601AA04460FF00CFDAD
:101DE00018B9019B1BB96FF0630003B030BD2368C5
:101DF00093F90030002BF6DB019B3BB12268117890
:101E0000A1B1042BEFD801D10B06ECD400232B6039
:101E1000019B5A1E0192002BE7D02368296813F812
:101E2000012B42EA01222A602360F1E70132013BE3
:101E300022600193E0E70000F8B50A23684E0546EA
:101E40000C46036033681BB90FF048FF0123336071
:101E500005F108032A46214604F1100042F8043F28
:101E60008B78043111F8034C1B0443EA042311F866
:101E7000044C234311F8014C884243EA046342F8BE
:101E8000043FEDD12B680C2B2ED00E2B5DD00A2BEE
:101E900028D128465349544D00F1A006426910301C
:101EA00055F8044B50F8087CC2F307237C40CB5C08
:101EB0006340140E0C5D83EA0443D4B20C5D83EAE4
:101EC0000463C2F307440C5D83EA042350F8044C16
:101ED000836063400468C3606340036153404361AF
:101EE0008642DBD10020F8BD28463F4CC0353D4935
:101EF000C269183054F8046B50F8107CC2F3072301
:101F00007E40CB5C7340160E8E5D83EA0643D6B2EC
:101F10008E5D83EA0663C2F307468E5D83EA06237D
:101F200050F80C6C8360734050F8086CC3607340C9
:101F300050F8046C03617340066843617340836129
:101F40005340C3618542D3D1CCE728462549264D6D
:101F500000F1E006446A203055F8042B50F8187C54
:101F6000C4F307237A40CB5C50F8087C5340220E20
:101F70008A5C83EA0243E2B28A5C83EA0263C4F3C6
:101F800007428A5C83EA022350F8142C8360534092
:101F900050F8102CC360534050F80C2C0361534090
:101FA000DAB243618A5C7A401F0ECF5D82EA076233
:101FB000C3F30727C3F30743CF5DCB5C82EA072255
:101FC00082EA034350F8042C836153400268C361E2
:101FD00053400362634043628642BBD182E700BF45
:101FE000000700243C0400243C050024F8B50378D5
:101FF00090F801C0012B057F0279077B8668447940
:102000002ED0022B2FD0002B30D14FF480738B6158
:102010000023C1F800C04D614B63C1E90B333FB3EE
:10202000CB61CB60037C012B45D0022B48D0002B29
:102030004BD14FF480430B620123027E002A47D02C
:1020400000230B620B61437F012B6AD0022B6BD004
:10205000002B6CD14FF0807300204B628862F8BD7A
:102060004FF40073D3E74FF44073D0E70023CEE77B
:10207000012A4E600BD0022A0CD072B94FF4806353
:10208000CB61032C09D8DFE804F00B0D10134FF4DB
:102090000063F5E74FF44063F2E727480BF0DCFDFF
:1020A0000023BEE74FF48053BBE74FF40053B8E77B
:1020B0004FF44053B5E74FF400430B620223BCE7F3
:1020C0004FF440430B620423B7E700230B62B4E7ED
:1020D0007BB3427CB2FBF3F403FB142414F0FF0F38
:1020E00027D1561EF610741C042C22DCC2EBC4024D
:1020F00012F0FF0210D0B2FBF3F39D4219D3EB1A9A
:102100004B61436903FA02F28A60032E07D8240464
:10211000A4F580340C6196E743698B60F5E70748C6
:10212000BCE74FF0007397E74FF0407394E700234C
:1021300092E74FF0FF3092E774AB01089DAB0108C6
:10214000F0B593B004460846164604A91D46FFF7AD
:102150004DFF48B92B6804A920460E93FFF77BF882
:10216000074618B14FF0FF3013B0F0BDFEF7EEFE9A
:1021700025680346A96994F84020012AF2D001227B
:1021800084F8402094F84120012AD0B246D16764F7
:10219000002E3ED0222284F841202A690132A26317
:1021A0002A69266341F28836013262636A6922F045
:1021B000406242F080626A61A961A26BA2B9012209
:1021C000022120460096FFF71FF810B9236802226B
:1021D000DA60012384F841300023C01A84F84030CB
:1021E00018BF01204042BFE7012206212046009689
:1021F0000393FFF709F80028EBD195F82010226B24
:10220000039B1170226B01322263A26B013AA2631D
:10221000D3E7636C43F008036364DDE70220DBE788
:1022200070B500F1A4060C460546304608F02EFEB7
:1022300004F11002214605F1140006F085FC38B9BE
:10224000236963606369A3600E23A3611023E360C5
:102250003046BDE8704008F0F9BD2DE9F041064672
:1022600000F1A4070C4615461436384608F00EFE59
:1022700004F110022146304606F066FCD0B923690D
:1022800004F12408A56163606369A3601023E3601F
:10229000216A21F000439D4201D8E5600AE000294F
:1022A000A5EB030506DA42462146304606F04CFC13
:1022B0000028EDD03846BDE8F04108F0C7BD000069
:1022C0002DE9F04100F1A408C8B00E46054640468D
:1022D000174608F0DBFD4FF48472002106A816F0C3
:1022E00035FDB36914350E2B22D12223364908A8B7
:1022F0008DF8183017F016FB0F230124B361404608
:1023000008F0A4FD012C0DD19DF81830112B59D0E7
:10231000222B14BF0023032308A9384687F8003175
:1023200017F000FB204648B0BDE8F041FEF7EFBDD6
:102330000F2B08D12223254908A88DF8183017F053
:10234000F1FA1023D9E702AA3146284606F0D0FF59
:10235000044618B1821C08BF0024D0E79DF80C3059
:1023600003F07F02112A01D0222AECD11B060CD5E2
:1023700004A9284607F02CF8041EC0DBE3D19DF821
:102380000C3003F07F038DF80C309DF80C3028469C
:10239000029A112B8DF8183002F104029DF80E10EC
:1023A00004BF059B07939DF80D301A449DF80F302C
:1023B0000A440093716808AB06F0B9FB041E08BF1D
:1023C00001249CE70523A7E7B5AB0108B4AB0108DE
:1023D00030B500F1A40585B0044628460193CDE947
:1023E000022108F053FD039904F11400DDE90132E4
:1023F00006F0BCFD0446284608F028FD204605B03E
:10240000BDE83040FEF783BD2DE9F04100F1A4089E
:1024100005460E46144640461F4608F037FD05F1B6
:102420001400314606F038FD054670B93FB1012F62
:10243000336A01D11C4402E0022F0ED01C46002C4E
:10244000AABF25466FF015053462404608F0FEFC31
:102450002846BDE8F041FEF75ABD7369EAE737B593
:1024600000F1A40504460191284608F00FFD0199EA
:1024700004F1140007F04EFA0446284608F0E6FC82
:10248000204603B0BDE83040FEF741BDF8B500F18D
:10249000A40705460C46384608F0F8FC214605F12D
:1024A000140007F037FA05F1200206462B6A1BB12B
:1024B0009C4216D123681360A3690BB11B682BB92A
:1024C0006B695B6B13B9606B16F0D6FB384608F08E
:1024D000BDFC204616F0D0FB3046BDE8F840FEF7C4
:1024E00016BD1A461B68E2E730B500F1A40585B0B9
:1024F000044628460193CDE9022108F0C7FC039960
:1025000004F11400DDE9013206F063FE04462846BA
:1025100008F09CFC204605B0BDE83040FEF7F7BC53
:102520002DE9F341064614460021282206F1A407AE
:102530002046002516F00AFC384606F114080195DD
:1025400008F0A4FC06F1180006F0E7FA28B901AA81
:102550000D49404606F05EFB0546384608F076FC1D
:102560006DB9736F019AC4E90033B36FC4E90235E2
:102570009B1AC4E90435C4E90635FF236362284683
:1025800002B0BDE8F08100BF990E00082DE9F041CE
:10259000804600F1A406D4B00C4608F1140730467A
:1025A000154608F073FC02AB03AA07A9384602944B
:1025B00007F0EAF90446C0B901464FF4847212A844
:1025C00016F0C4FB9DF8103008F1180105A8112B76
:1025D0008DF8483004BF069B139306F08DFA04462D
:1025E000C0B9174914A817F09DF9304608F02EFC21
:1025F000139B2B619DF84830112B1DD0222B44F2E8
:10260000FF1318BF002320466B6054B0BDE8F041B3
:10261000FEF77DBC039B38469DF8111004339DF8EE
:10262000122019449DF813300A440093089914AB02
:1026300006F07DFA0446D8E748F2FF13E3E700BF4F
:10264000B7AB0108F0B500F1A40605469FB00C46F3
:10265000304605F1140708F019FC95F8543003943E
:10266000002B43D003AB04AA08A9384607F08CF925
:10267000831C044649D12F21039817F08DFF0028B1
:102680003AD16B6913A938461B6AEB6407F02CFA40
:102690000446002830D1119B024613A91C93129BBB
:1026A0001D930346384606F05CFF044620BB40F607
:1026B00022038DF81600ADF81430039B18460193E1
:1026C00017F038F91499159A8DF8170038460691C5
:1026D0000792019BCDE9111204AA08A907F030FA6C
:1026E000044648B96B691B6AEB6405E0384606F09E
:1026F000A7FE04460028B5D0304608F0A7FB2046C8
:102700001FB0BDE8F040FEF702BC002808BF6FF024
:102710001004F1E7F0B500F1A40504469DB00F46A2
:10272000284604F1140608F0B1FB94F854300197E0
:1027300083B101AB02AA06A9304607F025F9044689
:1027400078B1284608F082FB20461DB0BDE8F04075
:10275000FEF7DDBB304606F073FE04460028E8D0E5
:10276000EFE79DF80C30222B1ED002AA06A93046B6
:1027700007F043F804460028E3D19DF80C30222BE3
:10278000DFD106AA12A9304606F087FD041ED8DB69
:102790001A9B06A930460F931B9B109300231A46E1
:1027A00006F0DFFE0446CCE704AA11A9304606F085
:1027B000CBF904460028C4D1199B142BD5D06FF057
:1027C0002604BEE72DE9F04300F1A4058046B3B02E
:1027D0000F462846144608F059FB98F8543008F183
:1027E0001406CDE90274002B4DD0029B05AA11A955
:1027F0003046049304AB07F0C7F80446002848D1DC
:102800009DF8183005AA11A963F07F038DF81830E0
:102810000346304607F065F80446002839D10DF12B
:10282000240903AB1CA930464A4607F0ADF8074619
:10283000002837D0821C40F085802F21039817F0A4
:10284000ABFE00287ED10DAC99E80F0084E80F00A4
:1028500006AA0EAB07CA83E807009DF8383003F0DC
:102860007F038DF83830039B1846019317F062F808
:10287000BB1C8DF83B00019B2CD122461CA9304685
:1028800007F05EF92BE0304606F0DAFD044600283A
:10289000ABD0284608F0DAFA204633B0BDE8F04362
:1028A000FEF735BB9DF818309DF8282003F07F0314
:1028B0009A4249D1222AC6D10BAA27A9304606F04E
:1028C00043F904460028E4D12F9B142BBBD06FF0B2
:1028D0002604DEE722461CA9304607F002F804462B
:1028E0000028D6D1012305AA11A9304688F8553011
:1028F00002AB07F049F804460028CAD188F8550011
:10290000814605AA11A9304606F077FF0446002843
:10291000BFD10237BDD09DF82830222BB9D11CAAD7
:1029200028A9304606F0B9FC041EB2DB309B4A46AB
:102930001CA930462593319B26934B4606F011FE89
:102940000446A6E73C46A4E76FF01404A1E70000A4
:102950002DE9F04F00F1A4080646C3B00D464046ED
:1029600008F094FAD6F8903063B1002D08BF1D46E8
:10297000336830469B6A9847044668B1404608F081
:1029800065FA05E045B96FF01204404608F05EFABA
:10299000204643B0BDE8F08F2B6828469B68D6E9F7
:1029A00025BAD6E92797984704460028E6D124227D
:1029B000014628A816F0CAF96A4B284623952493A5
:1029C000694B2593694B2693694B27932B685B6A68
:1029D00098472B6858452CBF2890CDF8A0B02846C2
:1029E0009B6A98472B6850452CBF2990CDF8A4A02E
:1029F0002846DB6A98472B6848452CBF2A90CDF8BB
:102A0000A89028469B6B984723462A9A18F07AF894
:102A10002B901F3023A920F01F00B84294BF2C90A8
:102A20002C9731A806F02DF80446002840F0868047
:102A3000319B014640985A6AD20816F087F9319ABC
:102A40000DA931A83C94D2E90832CDE93E439A421F
:102A500094BF3D923D9307F047F80446002869D1A2
:102A600018A931A807F040F80446002862D10346AF
:102A7000024618A931A806F074FD0446002859D171
:102A800041F22E438DF816001A9F4FF01009ADF851
:102A900014300823DDF864C08DF81730319B33976C
:102AA000DA691B6A089209934FF00113314A0A93BD
:102AB0000BAB106851686A46CDF8C8C0CDF81090CD
:102AC000CDF8009003C334230DA931A8159320231A
:102AD000CDE906C7CDE916C705AF0193CDE902736D
:102AE000012306F03EFD4B4620B110F1340F02D019
:102AF00004461FE00124009320236A460DA9039396
:102B000031A8CDE90137012306F02BFD20B110F1EA
:102B1000340FEDD1002CEBD0002201230DA931A8F8
:102B2000CDE900236A4606F00FF8044610B9319B40
:102B30001B6A3F9331A805F08DFF6CB12046FEF76C
:102B4000E6F9044600287FF419AF33682946304679
:102B50005B6A9847044611E72B682846DB6898476C
:102B6000EFE700BFA30E0008C70E0008EB0E000839
:102B7000070F0008B9AB010870B500F1A4060546BF
:102B8000304608F083F9D5F8904064B105F114009F
:102B900005F060FFD5F890000368DB6898470023D4
:102BA0000446C5F89030304608F050F9204670BD14
:102BB0002DE9F04300F1A4070D46044699B03846CC
:102BC00008F064F9C4F890502B6828469B68984731
:102BD000064648B10023C4F89030384608F036F96C
:102BE000304619B0BDE8F0832422014604F16C00A0
:102BF00004F1580916F0AAF8404BA5652846E3658C
:102C000004F114083E4B23663E4B63663E4BA366BD
:102C10002B685B6A9847D4F8943083422CBFE366F4
:102C2000E06628462B689B6A9847D4F89830834220
:102C30002CBF2367206728462B68DB6A9847D4F8A7
:102C40009C3083422CBF6367606728462B689B6B70
:102C50009847626F334617F055FFA0671F30D4F8CE
:102C6000A030494620F01F00834294BFE367E0672D
:102C7000404605F006FF0546002833D1636902AAE5
:102C80000DA940461B6AA664E364012302960393E0
:102C9000C4E9106605F058FF054600BB202310224A
:102CA0000E994046009305AB05F041FF0546B0B9CB
:102CB000069B082215490BA8A361079BE36117F047
:102CC0009FFB064648B90A9B1A0C012A02D19BB207
:102CD000012B82D96FF0150501E06FF033054046F6
:102CE00005F0B8FE00233846C4F8903008F0AEF87E
:102CF000284619B0BDE8F043FEF709B9A30E000855
:102D0000C70E0008EB0E0008070F0008B9AB01085A
:102D10000C4B03F10802883310B50446026043608F
:102D2000FFF72AFFD4F8A40012F0CAFA064B204697
:102D300003F108023433226040F8043F0FF032FB05
:102D4000204610BD24AF0108BCAE0108A0F104006C
:102D5000FFF7DEBF10B50446FFF7DAFF204615F097
:102D60008BFF204610BDA0F10400FFF7F3BF000069
:102D7000F0B57E4D85B015F04FF97D4B00212860F0
:102D80007C4800247C4A83F820401A605C62C3E9D6
:102D900004014FF4F0100021C3E90144C3E9060126
:102DA00013F0CAFD68B9754C23781BB914F01CFEEA
:102DB00001232370724B93F82520002A00F0BB807A
:102DC0005C6B704B14202A68C3E901240AF00AFDE9
:102DD0004FF6FF71831E00F1120223F8021F934287
:102DE000FBD1694B0025694C002618600027684814
:102DF0000BF0B6FB00227B21664812F049FB002253
:102E00007C21654812F044FB45210022634812F002
:102E10003FFB6348634BA0612360C4E90267C4E9D8
:102E200004550BF029FA0AF04FFD5F4A5F4B1A6018
:102E30000AF036FD0123656384F838305C4BC4E941
:102E40000867236013F092FD5A4B5B4C186015F035
:102E5000E3F85A4B25611860594B236004F1440391
:102E600002931023CDE900550393EFF30583002B64
:102E700063D00020534B0025534E00931C23206445
:102E8000684603930B2365670193029612F05CFA80
:102E900044226065294606F1200015F057FF012302
:102EA00020222946A387A6F13C00656115F04EFF5C
:102EB0004FF4805328214FF4D060C4E90B31434BC9
:102EC000A361434CA56515F0CFFE064670B3C21C46
:102ED00022F00302131A2846E260C3F5D06323F000
:102EE00003031946C4E904556F1C002931D100B110
:102EF000256100252262C4E9065325600BF090FA93
:102F00000EF09AFF334B60600093334B25810293A0
:102F10001023A57284F8245001950393C4E90A553F
:102F2000EFF30583CBB10020206366612B480BF0E3
:102F300017FB05B0F0BD9C6B43E711F09DFD01460A
:102F4000002896D14FF6FF706A46DFF894C000DF84
:102F500090E749083D460120C6E711F08DFD0028A5
:102F6000E1D16846DFF87CC000DFDDE7480B0224D2
:102F7000A806002400000208C8AD0108A00600242D
:102F8000B005002400000024D0060024B00B022469
:102F900060060024740B0224280B0224040700247A
:102FA00064B101081CAE0108A9CF0008F00A022490
:102FB0003CB00108700B022480130224E80A0224AA
:102FC000D8B00108C2AB0108D8130224DCAB010859
:102FD00024130224F7AB010858130224200600240E
:102FE000953601085538010808B57246064B01258B
:102FF000D3E84F4FC3E8465FE4B2002EF8D10CB9D6
:103000000AF0C0FC0AF008FE440B02240B4B10B57A
:10301000044640F8043BFEF70FFA094B002104F187
:10302000140003F10802943322603822636015F023
:103030008DFE4FF0FF332046236510BD00AF010821
:1030400020AE0108144B10B5044640F8043BFEF7CF
:10305000F3F9124B002104F1140003F10802883344
:1030600022604422636015F071FE0021382204F1D1
:10307000580015F06BFE0022402304F1A400C4E9BF
:103080002423C4F898304FF40073C4E9273308F0C0
:10309000F1F8204610BD00BF00AF010824AF0108C1
:1030A00010B50446802112F025FA00212046BDE823
:1030B000104012F01FBA08B5026500220B4600F15D
:1030C0003C0142654FF48072836482870269012A61
:1030D000D2B208BFC3640068FDF71AFC002008BD27
:1030E00008B5C0F8102200220B4600F5FE71C0F8AA
:1030F0001422A0F8FC210269C0F80832012AD2B2D9
:1031000008BFC0F80C320068FDF702FC002008BDC3
:103110000F4B00F16040DB6800F56140C3F3022310
:1031200010B5C3F107041A1D042C28BF0424062A75
:103130004FF0FF328CBF033B0023A24021EA020183
:1031400001FA03F31B01DBB280F8003310BD00BFAE
:1031500000ED00E02DE9F8430546294F3C69FDF7F5
:10316000F5FE022D0646274B26D1D7F81041264FF3
:103170001C4044F00044DFF888804CF25039042FA2
:103180001DD1D8F81000C0F3800070B934F00041B0
:1031900022D01E4A002C936943EA04039361184B22
:1031A00017DB5C610120BDE8F883FDF7CFFE801BD3
:1031B0004845E4D90320F6E71C400427DBE7D8F8AC
:1031C000103127EA030313F0040F0CBF0120002085
:1031D000DBE7C3F81411E5E7012D094B06D11A69A5
:1031E000D103E0D54FF480325A61DCE7D3F81021E7
:1031F000D203D8D54FF48032C3F81421D3E700BFEF
:10320000002000520000EE17040000804C0B022446
:103210000D4B19884FF6FD734A1E92B29A4297BF22
:103220000A4B4FF0026303EA812303F100638342F8
:1032300007D9B0F1006F34BF4FF0FF304FF40030CA
:1032400070474FF0FF30704780E8F11F00FC3F00EF
:10325000064B4FF6FD711A88531E9BB28B429ABFE4
:10326000034800EA82204FF40010704780E8F11F05
:1032700000FC3F0038B5114CE36803F00703062B50
:1032800006D0E06800F03F00163818BF012038BDB6
:10329000E36823F03F0343F01603E360FDF756FEB7
:1032A000054663689B0401D50020F0E7FDF74EFE5C
:1032B000401BB0F57A7FF4D90120E8E700480258B6
:1032C00038B50C460546012120460CF06BF928B9AB
:1032D00021462846BDE838400DF095B838BD0000BD
:1032E00070B505460E4609B9114870BD0028FBD0DF
:1032F00000240160C0E901440B79053B012BF3D8A0
:103300006C21012016F0C6FF686060B16C22214676
:1033100015F01CFDB179022016F0BCFFA86020B9A1
:1033200028460BF021FF0348DFE72046DDE700BF1A
:1033300000AFFFFF80AEFFFF38B50D4606490446DB
:10334000FFF7CEFF30B9294620462022BDE838409D
:103350000BF0AABE38BD00BF5CB10108034653E8BC
:10336000000F013843E80002002AF8D1704770B519
:10337000056BE0B00446B5F5C07F1DD84FF4C072B0
:103380000021684615F0E2FCE36B2A466946206C92
:103390009847A0B9266B6946204632460BF007FFD6
:1033A000054608B90123E3621EB1314668460BF0B9
:1033B00061F9284660B070BD6FF00405F9E76FF061
:1033C0000805F6E7F7B50093054690F894301446E3
:1033D0000191DDE90867F3B1D6B13B68DBB10FF0CD
:1033E0003DF823462846DDE900210BF005F93B4670
:1033F000324605F16801281DFEF7A2FE041E28468C
:1034000018BF012464420FF01FF8204603B0F0BD3E
:103410006FF00104F9E74FF0FF34F6E7074B5A6805
:1034200090235343064AD358DA69120701D508227C
:103430001A62D869C0F34010704700BF900B022495
:10344000F40C022410B586B004466846039180E867
:103450000C0006A800E90C0010E90700034B84E803
:1034600007002046E36006B010BD00BF1F7D0008C6
:1034700070B5002385680446066803619DB93378FA
:10348000022B01D9B36A6BB933890BB9022070BD25
:10349000B36AA361A3696561002BF7D0736B002049
:1034A000E361F4E71D467389B2895A430CD129467A
:1034B000206806F0FCFB431C05460BD00128E5D92B
:1034C000B3699842F3D3E1E72946304606F0A5FBFD
:1034D000A061DFE70120DAE738B50446056804207B
:1034E000A169F9B1284606F0CAFBC0B9E3691A78A8
:1034F000DAB1DB7AE52A03F03F03A37109D02E2A63
:1035000007D00F2B05D023F02003082B01D000207B
:1035100038BD0021204607F0DBF90028E0D0002369
:10352000A361F5E70028F2D0F9E70420F7E72DE9D9
:10353000F04F87B006468B4617464FF001090DF154
:10354000170ADDE910452544A3EB0408AC4201D17C
:10355000012011E008EB0403002259463046009395
:103560003B46CDE901A905F0A3F928B914F8013BC0
:103570009DF817209A42E9D007B0BDE8F08F2DE9F9
:10358000F04F89B006468846DDF84C9005924BB95D
:103590004FF0FF32C9F80020149A0020136009B0E0
:1035A000BDE8F08F013B07A900684FF0040A0793BC
:1035B00005F0B6F812A9054630680DF1140B05F0B8
:1035C000AFF80746AF42059B03D3C9F80030129B02
:1035D000E2E7EC1B95FAA5F241463046B4FA84F4D2
:1035E000B2FA82F2C4F11F04944228BF1446A2002A
:1035F000CDE901BA0092002205F05AF90028CED197
:10360000012303FA04F42D1BDCE72DE9F04700F158
:10361000A4060D46814686B03046904607F036FC3B
:10362000EA6909F1140902F00303012B5AD092034D
:103630006B6903D52A6A934238BF1346984524D252
:103640002946484605F028FC0446A8B905AB059074
:1036500005F12C014846029305F11003CDE90083E2
:10366000D5E90423FFF78BFF044628B9EB69C5F8B9
:10367000148043F48033EB61304607F0E7FB2046CB
:1036800006B0BDE8F047FDF742BC2ED92F6ABB4219
:1036900009D02946484605F0FFFB041E15D16B6989
:1036A000002B24DB2B624FF0000A2B6A98450ED8C2
:1036B0002946484605F0F0FB20B9381EB4BF6FF02C
:1036C0001500286200EAE074D6E7D5DBEBE70123BA
:1036D00005AA294648468DF814A005F047FC041EAB
:1036E000E3DAC9E76FF00804C6E70024C4E76FF027
:1036F0001504C1E7184B2DE9F74353F82060002368
:103700000C4617461D4698460B6033683046D3F882
:103710003C905B6A98472A464346CDE90001304613
:10372000C847A8B123682A46304647F83350336863
:10373000196B4346884723682D1807EBC30348EBF2
:103740000108586021680131B1F5707F2160DCD338
:10375000002003B0BDE8F0830000002408B5044B4E
:10376000027853F8220003689B6A9847C0B208BDEC
:10377000000000242DE9F0431D4689B006460F469F
:103780006C1E9046FFF7EAFF044440420440E4B256
:10379000202C1AD83046FCF7EFFF81462A464146D6
:1037A000684615F0C5FA621B49460DEB050015F099
:1037B000CDFA23466A4639463046FCF7E9FF003821
:1037C00018BF012009B0BDE8F0834FF0FF30F9E7E2
:1037D00007B58DF80710012381680DF107028039C4
:1037E000FFF7C8FF03B05DF804FB07B5816801234C
:1037F00001AA40398DF80430FFF7BCFF03B05DF833
:1038000004FB000013B5064B007853F8200000239A
:103810000468CDE900230A46E469A04702B010BD60
:10382000000000242DE9F843037807460BB1012B73
:1038300020D1114A2C214FF434664FF0000801FBCF
:103840000323926E9D6A56431C46013DE036636A2F
:10385000384603EBC50253F835101B68013DD2F81A
:103860000490C91AC8444A46FFF7CCFFB045EED3CE
:10387000BDE8F8830120FBE7200700242DE9F04391
:1038800085B01E461B4B4FF0000803920746027896
:103890000D4653F822400A4623682046CDE90068C9
:1038A000D3F83C904346C847039958B9124B1B784C
:1038B0002BB133462A463978104807F001FD4FF006
:1038C000FF3413E0236820462A46CDE90068D3F888
:1038D00014904346C847044640B1074B1B782BB1B0
:1038E00033462A463978064807F0EAFC204605B0F8
:1038F000BDE8F08300000024E40A0224FEAB0108C6
:103900002DAC01082DE9F7430446174699460E46AB
:1039100029B94FF0FF38404603B0BDE8F083002AD4
:10392000F7D00B6938468D681D44042329460DEBFA
:103930000302FFF7A3FF80460028EAD1BDF8041078
:1039400046F60812F368914222D1BDF8061099425A
:10395000DFD10423294438460DEB0302FFF78EFF25
:103960000028D6D1BDF8042046F607139A42D0D1DC
:103970000023BDF80620A4F80890A372F3682B4436
:103980000435E360134425616361C4E90067C2E75D
:10399000002BE7D0BDE700002DE9F04FDFF830B194
:1039A000074688460026DFF820910BF16C0A2DEDC2
:1039B000028B85B0CDE90223109BB34201D80020D1
:1039C00011E0109B3846404A9D1B029BB5F5003F15
:1039D00006EB030428BF4FF4003521462B46FFF7C2
:1039E0004DFF28B1012005B0BDEC028BBDE8F08F82
:1039F0003B78022B039B334408EE103A48D19BF8E6
:103A0000A432002B3CD198F80030012B25D1039C27
:103A10005846436913F00C0F1FD0344481688C4220
:103A200005EB040E49D28E4517D9AEEB0103A1EB8D
:103A3000040C002200690844864503D9844234BF3F
:103A4000031B0023641A09EB0C015046CDE9002149
:103A500004EB0C023946FEF794F998F80030022B7B
:103A60001DD19BF8A432D3B1002318EE102A414691
:103A7000504600932B46CDF80490FEF782F90EE0F5
:103A8000CDE900092B46224639465046FEF779F922
:103A90003B78012BB7D198F80030012B0AD12B4687
:103AA0004A4618EE101A4046FCF772FE002899D1DB
:103AB0002E4481E7029C0548ABE7621A2B464FF083
:103AC000000C02F00F02B5E7E40A00244C070024C2
:103AD000200700242DE9F74304460F4690461E4672
:103AE0004FF6FF79D4E904239A4215D22368DB68A4
:103AF00023B1E368934204BF0433236104232169A3
:103B000060680DEB0302FFF7B9FE18BBA37A2569C5
:103B100033B1E368AB4203D8012003B0BDE8F083C2
:103B20002189BDF80630494503F1040203D0BDF8F0
:103B300004C08C450BD116B1BDF80410318004359A
:103B40003D60A8F80030236913442361E5E715447C
:103B50002561C7E74FF0FF30DFE700002DE9F04FA8
:103B6000ADF5557D17780D46144604934FF48E73CA
:103B70007B43C65C00EB030C002E40F00F824FF439
:103B80008C7231460CF1040015F0E0F83223224625
:103B9000294611A8FFF7B6FE10B14FF0FF3009E13A
:103BA000119B002BF9D0129B002BF6D033460DF160
:103BB0001A0207A911A8FFF78DFF002840F0FA802C
:103BC000BDF81A30712BE8D143AA07992046FFF7B8
:103BD00055FE0028E1D1A64C30232FAA08A808944E
:103BE0008A3421460DF008FE0028D6D108992F9B73
:103BF0001944A14240F0FA8037AA08A83796FEF788
:103C0000E8F8379B034340F0EE808EAB60AA214674
:103C100008A80DF005FE002840F0E280619A072A0E
:103C200040F0DB809349629816F0EAFB002840F0F0
:103C3000D4808F9A082A40F0CD808F49909816F052
:103C4000DFFB002840F0C68004232FAA214608A8E5
:103C50000DF0D2FD002840F0BA8030232FAA214673
:103C600008A80DF0C9FD002840F0AE80379037AAB3
:103C7000214608A8FEF7ADF8002840F0A280379B47
:103C8000012B40F09E8004232FAA214608A80DF0A6
:103C9000B3FD002840F09280DDF8BC80B8F1200F21
:103CA00040F08680089B1FAC03F12005186808339C
:103CB00053F8041C2246AB4203C21446F6D100233B
:103CC000012260A8CDE98823CDE98A32CDE98C3381
:103CD0000BF028FB7FA80BF019FB60A80BF0FFFD91
:103CE00060A80BF01FFB032360A88DF880310BF058
:103CF00021FC28B160A80BF0F2FD7FA80BF0DDFDE0
:103D0000412343AA7FA960A80BF086FE002870D04B
:103D100060A84FF0FF340BF0E2FD7FA80BF0CDFD63
:103D20008BA80BF0B7FD88A80BF0B4FD60A80BF0D2
:103D3000D6FD7FA80BF0C1FD002C7FF42EAF0DF156
:103D40009C09214620220F944846CDE90D4414F0E9
:103D5000FDFF49460DA8FFF7EFFA28BB202217A95F
:103D60000DA80BF091F9F8B92FA90DA80BF062F985
:103D7000D0B901233025A246DFF804B18DF82830F0
:103D80002FA90DA80593CDF83CA0CDE90DAAFFF70A
:103D9000D3FA48B9059B002B62D0102259460DA8D2
:103DA0000BF072F900286DD00DA80BF0DDF9F4E6E8
:103DB0006FF00B000DF5557DBDE8F08F6FF00A0038
:103DC000F8E76FF00900F5E76FF00800F2E76FF031
:103DD0000700EFE76FF00600ECE76FF00500E9E79A
:103DE0006FF00400E6E76FF00200E3E76FF0010018
:103DF000E0E77FA960A80CF033FE002888D12022DC
:103E00001FA98BA80BF0D2FD8EA80BF07FFA8BA90F
:103E100060A80BF029FC0446B8B97FA960A80CF093
:103E20001FFE044688B97FAB8BAA8EA960A8FDF758
:103E3000A5FD044648B9014694A80BF0DEFA68B126
:103E40008EA988A80BF08EFE04468EA80BF035FDD7
:103E5000202217A988A80BF0E5FA61E7074CF4E7E0
:103E600020228EA90DA80BF00FF9002895D09BE712
:103E700000040008F0B0010800B1010880B0FFFFA5
:103E80005BAC010801220AA90DA80BF0FDF800287F
:103E90008AD18EA90DA80BF0CDF80346002883D156
:103EA00037AA202D02EB040028D90DF50E7C03461D
:103EB0000DF5167E6246083303CA724543F8080CB6
:103EC00043F8041C9446F5D1203DADB29DF828304E
:103ED00020340133A4B28DF828300023002D7FF464
:103EE0004FAF0DA80BF040F93BA90AA80C95CDE9FE
:103EF0000A55FFF721FA48B10AA856E72A468EA9C3
:103F0000059314F015FF059B1D46DFE70DF26D14B8
:103F100010220AA821460BF0B7F80028ECD12FA9EF
:103F20000AA80BF087F80028E6D12FAB53A913F8A5
:103F3000012BB8F1010811F8010F82EA000246EAEC
:103F40000206F4D1002ED7D10AA80BF00DF93146A4
:103F50004FF48C728EA814F0F9FE37A98EA8FDF7E5
:103F60006BFF00287FF419AE102531460DA82A46B4
:103F700014F0ECFE049B09AA294605FB07378EA81E
:103F80000DABCDF800900C370996CDE901470DF047
:103F9000A5FC003818BF012040420BE7012009E7CB
:103FA0002DE9F04F1378ADF50F7D82460D46012BBC
:103FB00093460DD14B6913F00C0F09D090F81C31CA
:103FC00033B94FF0FF3108460DF50F7DBDE8F08F96
:103FD000402200216DA8DFF8A88214F0B7FEA14AA4
:103FE000A14B0024AF682E69DFF898923E44DFF8B9
:103FF00098E2DFF898C29D489D497D94CDE96B23F6
:10400000EB68F318CDE96598CDE90239CDE9048E66
:10401000954BDFF864820A93CDE96344CDE967EC00
:10402000CDE96901CDE906C0CDE90812029BA342A2
:1040300042D829A963A80AF003FF29464FF6FF7367
:104040005A4623A8FFF75EFC01460028BBD14FF07B
:10405000FF35884E0746DFF838922C4606F15B089C
:10406000239B002BADD0249B002BAAD00DA90DF1D2
:1040700032030CAA23A8FFF72DFD011EA3DB40F09D
:104080005682BDF83230102B59D1BDF83070202F38
:1040900097D10D993B4643AA5846FFF7EFFB0146DF
:1040A000002890D143A93A4629A816F0A9F901465B
:1040B000002888D10127D3E7029BA3EB0409B9F5B7
:1040C000807F28BF4FF48079A74205D904EB09030C
:1040D0009F4238BFA7EB0409A64205D904EB0903A8
:1040E0009E4238BFA6EB040921464B46624A584619
:1040F000FFF7C4FB014600287FF465AF9BF8003052
:10410000012B12D16B6913F00C0F0ED0A7420CD803
:10411000A6420AD9E21B59465046CDF8048002F067
:104120000F0300934B46FDF72CFEB9F1000F04D0AE
:104130004A46414663A80AF01DFE4C4476E7012B2F
:104140003DD1BDF83030202B3FF63BAF0D9943AA4F
:104150005846FFF793FB014600287FF434AF9DF8E3
:104160003050202D7BD8402202906DA814F0EEFD37
:10417000039B02995B22659363A8049B7D916693E0
:10418000059B6793069B6893079B6993089B6A93BB
:10419000099B6B930A9BCDE9631131466C930AF03E
:1041A000E9FD3AA963A80AF04BFE2A4643A93AA8BA
:1041B00016F026F9003818BF0120454250E7222B9F
:1041C0007FF44EAF002D7FF44BAFBDF83030802B25
:1041D0003FF6F7AE43AC0D9958462246FFF74EFB2B
:1041E000014600287FF4EFAE302331AA41460EA8E5
:1041F000BDF830A00E960DF0FFFA70BB319B3AAAC5
:104200000E9D0EA81D4463AB29460DF009FB20BB93
:104210003B9A072A21D149463C9816F0F1F8E0B9BB
:10422000649A082A19D11549659816F0E9F8A0B9D9
:10423000032331AA29460EA80DF0DEFA68B9319A97
:104240005AB1511E0E9B3191187830B9581C134445
:104250009D420E9001D141291CD04FF0FF344FF008
:10426000FF35FDE6ABD9831F19CDE05B7F520E51C0
:104270008C68059B00030008F00B022409B10108BB
:1042800085AE67BB67E6096A72F36E3C3AF54FA5E7
:10429000F8B0010863A801250BF044F8002385A8B5
:1042A0008493CDE982530BF031F80E99A24B63A8A9
:1042B0000B915B1A02930BF012FB63A80BF032F820
:1042C000032263A88DF88C210BF034F9029B0B9923
:1042D00058B14FF0FF3463A80BF001FB82A80BF03C
:1042E000D9FA85A80BF0E9FAB9E70A4663A885A9C7
:1042F0000BF092FB0028ECD185A963A80CF0B0FB71
:104300000028E6D1A244302310AA0F945146CDE9EB
:104310001150CDE91305CDE915000FA80DF06CFA89
:1043200060B1A0F59F4411A80BF0B4FA14A80BF0EB
:10433000B1FA201E18BF01204442CCE7DDE90F325C
:1043400013449A4540F0F18011AA51460FA80DF090
:10435000B2FA044630B914AA51460FA80DF0ABFAD0
:10436000044610B1A4F59F44DDE731A80AF0CEFF62
:104370009DF88C31092BCDE91754CDE91945CDE9CC
:104380001B44CDE91D54CDE91F45CDE9214401D1A0
:104390006A4CC8E7789B002BFAD0012111A80BF0DA
:1043A0002CF8002817DA664C31A80BF086FA17A80B
:1043B0000BF070FA1AA80BF06DFA1DA80BF06AFA50
:1043C00020A80BF067FA002CADD10F9A5D4B9245F7
:1043D00018BF1C46A7E776A911A80AF0CBFF002852
:1043E000E1DA012114A80BF008F80028DBDB76A93C
:1043F00014A80AF0BFFF0028D5DA7A9D29A917A8CA
:104400000735ED08202D28BF20252A460BF0CEFACF
:1044100004460028C8D17A9BE900B3EBC50F3DD311
:1044200076A917A80AF0A6FF002807DB17A976AA25
:1044300008460CF054F804460028B5D176AA14A911
:104440001AA80CF0E3FE04460028ADD11AAA17A959
:104450001DA80BF0C9FB04460028A5D11DA976AA0A
:1044600008460CF006F9044600289DD11AAA11A9A5
:1044700020A80BF0B9FB0446002895D120A976AA04
:1044800008460CF0F6F8044600288DD163A80AF01F
:1044900067FF01280AD0A4F59D4485E7C91A17A82B
:1044A0000BF04AF904460028BAD07DE73AA80AF092
:1044B0002DFF6DAB1DAA3AA963A8FDF721FC0446A8
:1044C000A0B985AB20AA31A963A8FDF719FC044661
:1044D00060B931AB3AAA63A819460CF06BFD0446EB
:1044E00020B931A963A80DF065F804463AA80BF08D
:1044F000E4F9002C7FF458AF214637A80AF07DFF7D
:1045000000283FF450AF31A976AA08460CF0B1F864
:10451000044600287FF448AF11A931A80AF02AFF09
:10452000044600283FF440AF3DE7074CFBE6002F70
:1045300014BF2146012146E55B03000880B0FFFF60
:1045400000B2FFFF00B4FFFF1AB0FFFF0278074977
:1045500051F822304BB1013B41F822302BB9044BCA
:1045600053F822000368DB6818477047F005002401
:1045700000000024224B00EB4002012803EB8202E2
:104580002DE9F04104460A6025D0022826D048BB18
:104590001C4A5A601C4F002557F82420013247F866
:1045A00024200C22624303EB02089C54174B88F82A
:1045B000015053F82460336830469B6B984757F896
:1045C0002430C8F80800012B17D1336830469B68A7
:1045D000BDE8F041184700221A61DBE74FF0106296
:1045E000DA61D7E70A4B1B781BB10146094806F090
:1045F00067FE4FF0FF30BDE8F0812846FBE700BFC3
:10460000FC05002400000208F0050024000000243E
:10461000E40A02246CAC010873B5044601A9C0B2D7
:10462000FFF7A8FF054620B14FF0FF35284602B03E
:1046300070BD0198FCF7A0F806460198FFF786FFC9
:104640002C23064803FB0404631E0334A342EDD06D
:1046500013F8012FB242F9D0E6E700BF200700248B
:1046600013B5002001A9FFF785FF014610BB2023E9
:10467000134A0198FFF702F9041E18BF012401989C
:10468000FFF764FFD4B901A90120FFF773FF98B9C0
:10469000214620230B4A0198FFF7F0F8041E18BFAB
:1046A00001240198FFF752FF0CB184F00104204669
:1046B00002B010BD0124E2E70124F2E70024F4E790
:1046C000200700244C07002413B5002001A9FFF7A0
:1046D00051FF90B9019801236A4681688DF8003036
:1046E000403921F01F012039FFF744F804460198B2
:1046F000FFF72CFF204602B010BD0124FAE70000AE
:10470000F7B504460F46C0B26946FFF733FF30B134
:1047100001250098FFF71AFF284603B0F0BD1B489B
:104720002C2303FB040400982369A6681E44042379
:1047300031460DEB0302FFF7A1F805460028E7D14B
:10474000BDF8042046F60813E4689A421AD1BDF871
:1047500006309C4201D00325DBE704233119009881
:104760000DEB0302FFF78AF80028D1D1BDF8042031
:1047700046F607139A42EED1BDF80630234433447F
:104780003B60C6E7002CF1D0E5E700BF200700241E
:104790002DE9F04186B002230546002601AFDFF87F
:1047A0005880ADF80430294617F8010BFFF7E2FEF8
:1047B000044658B92868102302AA81682039FFF7F7
:1047C0005DF8044640B12868FFF7C0FE204606B0F9
:1047D000BDE8F0810126E6E71022414602A815F067
:1047E0000FFE04460028F1D02868FFF7AFFE002E28
:1047F000F0D04FF0FF34E9E7E0B0010838B54FF4EE
:104800008E7405464C4302EB011120440C310430F8
:10481000FDF712FB0028034613BF002201220346C6
:104820004FF0FF332A55184638BD00002DE9F743F5
:1048300004460F46C0B201A9FFF79CFE002863D1D1
:104840002046FFF7E9FE30B1314E2C2505FB04650B
:104850006B69DA060DD50CB9012503E025460198F0
:10486000FEF7E0FF0198FFF771FE284603B0BDE8B0
:10487000F083DDF8048098F80090B9F1010F2AD098
:10488000244829464246FFF78BFB05462C23019816
:104890006343F158F218204B99420AD11369926888
:1048A000D1438B4205D813448268934201D2002D34
:1048B000D8D01CB182680021FEF7A4FF174B1B78EB
:1048C000002BC9D0164B17491748002C18BF1946A2
:1048D00006F0F6FCC0E713F00C0FD1D03B46424681
:1048E000294606F16C00FFF739F9002802DA4FF08B
:1048F000FF35CBE7C4D13A46494606F16C00FFF7D5
:104900007DFF0028BCD0F2E74FF0FF35ADE700BFD8
:10491000200700248C0700243DB8F396E40A022403
:1049200096AC01088EAC0108A0AC010838B50C4665
:104930001546FBF721FF2544214611F8013B98421B
:1049400003D1A942F9D1012038BD0020FCE738B5D8
:104950000C460123114605462246FEF78FFF00282C
:1049600010DB4CB1012221462846FFF7DFFF18B1CA
:1049700003230020237038BD2378012B0CBF0123B3
:104980000223F6E70120F6E78168F0B589B0A1F1CE
:1049900020060546FBF7F0FE0B4B07466C460FCB97
:1049A00084E80F00102239460DEB020014F0CEF916
:1049B0002023224631462846FBF7EAFE003818BF7E
:1049C000012009B0F0BD00BFE0B0010830B5002300
:1049D00087B00D468168059302AA20390446CDE9C7
:1049E0000333FF2302931023FEF748FF002811DB57
:1049F000102202A92046FFF799FF68B103232B700C
:104A00000DF10702A168012320468039FEF736FF29
:104A100000280BDA01202CE01022174902A815F01B
:104A2000EFFC002814BF02230123E8E79DF80730BC
:104A30000DF10701204603F00F021B096A700122E5
:104A40002B71FFF773FF10B96B78042B03D9012387
:104A50006B7000232B71A268A91C2046603AFFF7F7
:104A600076FF0028D6D1A268E91C2046403AFFF71D
:104A70006EFF07B030BD00BFE0B001081FB50020D9
:104A800001A9FFF777FDA8B902A90198FFF79EFFDA
:104A9000044668B99DF80B30032B03D10198FEF74B
:104AA000A4FE04460198FFF751FD204604B010BD56
:104AB0000124F7E70124F8E713B50C46C0B201A9B9
:104AC000FFF758FD50B921460198FFF77FFF0446D4
:104AD0000198FFF73BFD204602B010BD0124FAE724
:104AE00030B585B00D460446012002A9FFF7E4FF6A
:104AF000E979012902D02046FEF76AFE9DF80B30C5
:104B0000012B02D12046FEF770FEAB682046A1685B
:104B100001930423A0390DEB0302FEF72BFE2A4676
:104B200000212046FBF748FE2A4601212046FBF7DC
:104B300043FE2046FFF728FF002005B030BD0428C3
:104B400009D0052803D1481E18BF01207047431A19
:104B50005842584170470120704710B50446FEF78F
:104B6000FDFD4FF43462A368E03B02FB103010BD42
:104B700030B583798DB00546002B03A914BF022000
:104B80000020FFF7F7FC60BB0398FFF7E6FF164B2A
:104B900029799A6E01392B6802EB4204013B4A43A2
:104BA00004FB03231C180398FEF7D8FD019003981B
:104BB000FBF7E2FD2022014604A814F0C7F82A7989
:104BC0002146019B8DF8102004AA0398FBF7E0FD15
:104BD000041E18BF01240398FFF7B8FC20460DB04F
:104BE00030BD0124F7E700BF200700242DE9F04F76
:104BF00004468DB000206379012BCDE9040040F01C
:104C000093812368012B40F08F812379012B40F0A1
:104C10008B81B94DB94E2A68B24202D105A9FFF77E
:104C20006FFD6B6913F00C0F00F0B981B249234698
:104C30002A6A01F16C00FEF791FF014618B922467D
:104C4000AF48FFF7DBFDEB6AB34203D104A90120B3
:104C5000FFF756FD2B6C13F00C0F00F0A781A9494C
:104C60002346EA6C01F14000FEF778FF20B92246A6
:104C70000121A348FFF7C2FD95F88831ABB104F1DB
:104C80002C0204F11C03114653F8040B934241F823
:104C9000040BF9D14FF48C7200219B4814F056F8A4
:104CA000224602219648FFF7A9FDDDE9043293422E
:104CB00088BF0593059BA3608F4D002305996E6AFD
:104CC0001A462F6D18469A46A846914201D89A4234
:104CD00005D206EBCA050AF1010A6D682A44994219
:104CE00002D8934280F08D8107EBC005914200F11C
:104CF00001006D682B44ECD89942E6D89A42E4D181
:104D0000D1464FF0000B814B5D460BF1010B1B7838
:104D10002BB10AF1010259467D4806F0D1FAD8F8C4
:104D20005830D8F8242099680023101D1F4650F8E9
:104D300039303B44994203D3B9F10109F6D21F46F9
:104D400021684B1EAB4200F24A8109F10100136851
:104D5000D8F8685052F83060D8F82800F61A0138B0
:104D600007EB060C52F83020D31A9C4540F22581FF
:104D70004FF434636FF0DF02012903FB15253D4436
:104D800040F01C817B1B18BF0123A37106A90020E2
:104D9000FFF7F0FB07A90120FFF7ECFB08A90220B1
:104DA000FFF7E8FB2379012B40F00A8108980021E6
:104DB0008268FEF727FD2368012B13D1214608984E
:104DC000FFF78EFEA3796BB906980393FEF72AFDD1
:104DD00021460698FFF784FE0898039B82681946CF
:104DE000FEF710FD002332460095DDE90701FEF7CE
:104DF000D3FD2046FFF7BCFE0223237118B1454ABC
:104E00001368013313603A4631460798FEF7FAFCFF
:104E1000334632460095DDE90601FEF7BDFD236805
:104E2000012B04D1A37913B90798FEF7FBFC2046A8
:104E3000FFF79EFE0323237118B1364A136801332E
:104E400013603A4631460698FEF7DCFC33460022F2
:104E5000069908980095FEF79FFDA379002B39D09D
:104E60000898FFF77AFED8F86830024606995B008A
:104E7000089800937319FEF78FFD18B1254A13683F
:104E8000013313600AA90898FFF7A0FD9DF82B30A5
:104E9000012B02D10698FEF7A8FC9DF829100129E4
:104EA00002D00698FEF794FC069809AAA3688168C8
:104EB00009930423A039FEF75DFC224600210698E1
:104EC000FBF77AFC224601210698FBF775FC069851
:104ED000FFF75AFD0023A5792046A371FFF748FE8E
:104EE00023680133236001232371A8B1094A1368A1
:104EF0000133136010E000BF200700243DB8F39693
:104F00008C0700244C070024C8090024E40A02246A
:104F1000C6AC0108E00A0024002D57D03A46002113
:104F20000898FEF76FFC51E00AA8FFF731FC50B972
:104F30000A98042304F108028168A039FEF79EFC58
:104F40000A98FFF703FB04F11C05A3680026394FFC
:104F5000A94604F12C0805930AA85FFA86FAA5F180
:104F6000100BFFF715FC68B90A9810235A468168A0
:104F7000A1F1A00C711CACEB4111FEF77FFC0A986B
:104F8000FFF7E4FA5A4612F8013BFF2B3DD1954258
:104F9000F9D11035002E7FF48FAE0126DCE7102208
:104FA000FF2104F10C0013F0D1FE4CE61022FF218A
:104FB00004F11C0013F0CAFE77E63D460023E4E648
:104FC000022B3FF420AF032B3FF43BAF0698FFF7D3
:104FD000BDFA0798FFF7BAFA0898FFF7B7FAB9F1E0
:104FE000FF3F7FF490AE144B1968002905DD134B89
:104FF0001B7813B1124806F063F900200DB0BDE82C
:10500000F08F91427FF67AAE63E6224651463846EB
:10501000FFF7F4FB002EBCD04B46424653F8041B6E
:10502000434542F8041BF9D1224602213846FFF7D6
:10503000E5FBAEE78C070024E00A0024E40A022422
:10504000DEAC0108F0B593B004460846164604A944
:105050001D46FCF7CBFF48B92B6804A920460E93E8
:10506000FCF7F9F8074618B14FF0FF3013B0F0BD68
:10507000FBF76CFF94F8402003462568012AF3D023
:10508000012284F8402094F84120012AD0B243D173
:105090006764002E3BD0122284F841202A69013235
:1050A000E2622A69666241F288360132A2626A6966
:1050B00022F040626A61E26AA2B90122022120461E
:1050C0000096FCF7A1F810B923680222DA600123E8
:1050D00084F841300023C01A84F8403018BF012002
:1050E0004042C3E701220421204600960393FCF7C7
:1050F0008BF80028EBD1626A039B127885F8202098
:10510000626A01326262E26A013AE262D3E7636C88
:1051100043F008036364DDE70220DBE72DE9F04795
:105120001C4690B090F894300546DDF86890DDE9B3
:1051300018A8CDE9002163B30DF090F94FF0FF33CB
:1051400028462E1D05F16807DDE9002109F054FA13
:1051500014B1BAF1000F23D1B8F1000F02D0B9F1A8
:10516000000F19D102A93846FCF740FF044638B9B0
:10517000012302A9CDE90B033046FCF76CF808B116
:105180004FF0FF3428460DF05FF9204610B0BDE81F
:10519000F0874FF0FF34F8E79CB1BAF1000F10D060
:1051A000224602AB39463046CDF808A0FFF74AFF49
:1051B00004460028E4D1B8F1000FE3D0B9F1000FA4
:1051C000E0D002AB424639463046CDF80890FCF7B5
:1051D000B7FF041E18BF01246442D3E700B5564B45
:1051E0008DB00A2800F2A480DFE800F00616243211
:1051F000404E5C6A78869400D3F8E0204F4842F035
:105200000102C3F8E020D3F8E03003F0010301937A
:10521000019B0DB05DF804FBD3F8E020484842F054
:105220000202C3F8E020D3F8E03003F00203029357
:10523000029BEEE7D3F8E020424842F00402C3F8B4
:10524000E020D3F8E03003F004030393039BE0E78E
:10525000D3F8E0203C4842F00802C3F8E020D3F83D
:10526000E03003F008030493049BD2E7D3F8E02076
:10527000364842F01002C3F8E020D3F8E03003F0E3
:1052800010030593059BC4E7D3F8E020304842F0B3
:105290002002C3F8E020D3F8E03003F020030693A7
:1052A000069BB6E7D3F8E0202A4842F04002C3F854
:1052B000E020D3F8E03003F040030793079BA8E712
:1052C000D3F8E020244842F08002C3F8E020D3F86D
:1052D000E03003F080030893089B9AE7D3F8E020BE
:1052E0001E4842F48072C3F8E020D3F8E03003F4A3
:1052F00080730993099B8CE7D3F8E020184842F4A7
:105300000072C3F8E020D3F8E03003F400730A938E
:105310000A9B7EE7D3F8E020124842F48062C3F88B
:10532000E020D3F8E03003F480630B930B9B70E72D
:105330000D4808F091FC00BF0044025800000258DC
:105340000004025800080258000C025800100258CD
:105350000014025800180258001C0258002002587D
:1053600000240258002802580BAD010838B5431C30
:105370000D4628D000F00F02134BC0F3031053F872
:105380002240FFF72BFF1149114BD1F894209A428C
:10539000FBD104FB04F2016802EB42030B40B3FBB8
:1053A000F2F3013B012B03D8436823EA0403436073
:1053B000012D21460CBF2A460022FBF781FA034B40
:1053C0004FF440725A6138BD1CB1010800640258A4
:1053D0000003008038B5044608F0AEFB0C490D4BC5
:1053E000D1F894209A42FBD1D4E905035B430268CB
:1053F00003EB430522EA0502134303604FF44073B5
:10540000B4F910004B610021BDE83840FFF7AEBF92
:1054100000640258000300802DE9F843461C05464D
:105420000C4600F09C801FFA80F9554A40F47061E8
:10543000B2F90030581C4BD10026524B09F00F0234
:10544000C5F3031053F82270FFF7C8FE4E494F4BC7
:10545000D1F894209A42FBD107FB07FCC4F38312D6
:1054600083680CEB4C0E0F2A6FEA0E0114BF02FB8F
:105470000CF243EA0E034FF4407E1CBF0B40134373
:1054800004F007028360022A3F4BC3F814E036D1D0
:105490000EF1004ED3F89480F045FBD119F0080FBF
:1054A000C4F383285DD03B0AD0F824E05B435B4320
:1054B000C3EB031903FB08F32EEA090E4EEA0303BC
:1054C0004362314B4FF4407EC3F814E002231EE0E8
:1054D00043F470638B4210D104F003035668032B2E
:1054E000ABD109F47063B3F5706FA6D13246214693
:1054F0002846BDE8F843FBF7CFB9083298E7032AFE
:105500003CD002F1FF3EDEF1000343EB0E03DFF877
:105510007890DFF878E0D9F89480F045FBD1D0F8A6
:1055200000E003FB0CFC013A01EA0E01012A41EA0A
:105530000C01016005D8436822074CBF3B43BB43C5
:105540004360C4F301123946FBF7BAF932462146EB
:105550002846FBF7A1F90C4B4FF440725A61BDE8A5
:10556000F8830CFB0CF9036AC9EB091E23EA0E0E43
:1055700009FB08F34EEA03030362A2E71346C6E7FA
:1055800080AD01081CB101080064025800030080CE
:10559000034BD9681A6822EA01021A605960704701
:1055A00000650258124B1A69194602F03802102A97
:1055B0001AD004D8BAB1082A16D00B6814E0182AF9
:1055C000FBD19A6A996AD86A11F47C7F586B0BD028
:1055D00002F00302012A02D0022A00D01A681B6BD3
:1055E000034B1B6B00E01B68014B9A699B6970477A
:1055F000004402582B4BD3F8882042F47002C3F8C1
:1056000088201A6942F010021A61274A136803F0D1
:105610000F03062B05D8136823F00F0343F007038D
:105620001360224B1A6842F001021A6000221A61CC
:105630001F4A19680A401C491A600A68120705D5F2
:105640000A6822F00F0242F007020A60002219499C
:105650009A61DA611A6299621749D9621749196326
:105660005A639963DA6319645A64196821F48021D2
:1056700019601A66124A536A43F480435362114B0D
:105680001B681B0C1B04B3F1005F02D20E4B0122FE
:105690001A600E4B43F2D2021A600D4A014B9A6017
:1056A000704700BF00ED00E00020005200440258A7
:1056B0007FEDF6EA000202020000FF018002010114
:1056C000C00000580010005C0881005100400052EA
:1056D000000000080A4B013B0FD00269002AFADAE9
:1056E0000369074A43F001030361013A05D00369E6
:1056F00013F00103F9D1184670470320704700BF2B
:10570000410D030030B5056C00F530630F4CA54228
:1057100003D9D0F8004B002C16DB002401291C61B2
:105720001C6944F400241C611C6944F018041C61C9
:105730001C6944F0C0441C6106D15A61D0F8003B9A
:1057400043F08023C0F8003B002030BD0A30544FA6
:10575000D0F8003E23F00303C0F8003ED0F8043830
:1057600043F00203C0F804380020704770B50023EE
:10577000940800F5805502F00302A34214D301EB14
:1057800084017AB100F5805000230468D80024FA1F
:1057900000F0C854013398B28242F7D1013A92B274
:1057A00001321144084670BD2E6841F82360013370
:1057B000E3E770B50E78012500F5006206F00F03EF
:1057C00074019D404B78012BD36917D11D4300F51F
:1057D0001060D56103591A040ED48A680559C2F3C2
:1057E0000A03CA782B4343EA824343EA865343F0D1
:1057F000805343F400430351002070BD43EA054544
:1058000000F53060D56103591B04F5D48B6802594B
:10581000C3F30A031343CA7843EA8243E7E700006D
:105820002DE9F8430668054616F0006609D0836E38
:10583000B3F5001F2ED013D8F3B1B3F5801F21D0DC
:1058400001262B68DB0540F10281AB6D042B00F2D1
:10585000FD80DFE813F024002B00F500290029006B
:10586000B3F5401FECD1B84A0026A96E136D23F49E
:1058700040130B431365E4E7B34AD36A43F40033A0
:10588000D362F0E702210430FBF746FC064600280D
:10589000D7D1E8E702212430FBF7C6FBF6E7AA4A96
:1058A000D36A43F40033D362344604E00021281D58
:1058B000FBF732FC0446002C40F0CB80A24AA96DD5
:1058C000136D23F007030B4313652B689F050DD55C
:1058D000EB6D802B00F0DA8000F2BD80002B00F031
:1058E000C980402B00F0CC80012634462B68580537
:1058F00010D5D5F8A830B3F5800F00F0EC8000F299
:10590000CD80002B00F0DB80B3F5001F00F0DD80C0
:10591000012634462B68190510D5D5F8AC30B3F103
:10592000007F00F0FD8000F2DE80002B00F0EC80B4
:10593000B3F1807F00F0EE80012634462B689A0197
:105940000DD5AB6C202B00F0078100F2F180002B0D
:1059500000F0F180102B00F0F980012634462B680E
:10596000DB040FD52B6EB3F5005F00F0198100F258
:10597000FB80002B00F00881B3F5805F00F00A8106
:10598000012634462B689F040FD56B6EB3F5003F9C
:1059900000F0268100F20C81002B00F01281B3F59B
:1059A000803F00F01781012634462B68580410D53B
:1059B000D5F8B030B3F1005F00F0338100F2188108
:1059C000002B00F01E81B3F1805F00F024810126DE
:1059D00034462B68590114D5EB6C43B1B3F5807F85
:1059E00040F027810121281DFBF796FB0446002C7F
:1059F00040F02281544AE96CD36C23F480730B434A
:105A0000D3642B681A040DD52B6FB3F1805F00F0BF
:105A10001581B3F1005F00F01F81002B00F01381AE
:105A2000012634462B68DB0140F12C816B6C032B83
:105A300000F26C81DFE813F01D01180164011D0103
:105A4000002105F12400FBF7EFFA33E70126344685
:105A50003BE7264639E7C02B03D0B3F5807F7FF4C0
:105A600043AFCCB9384AE96D136D23F4E0730B43AF
:105A700013653BE7344AD36A43F40033D362F0E75B
:105A80000021281DFBF748FB0446EAE7002105F149
:105A90002400FBF7C9FAF7E7264627E7B3F5C00F5E
:105AA00003D0B3F5000F7FF433AFD4B9264AD5F84D
:105AB000A810936D23F460030B4393652AE7224AF1
:105AC000D36A43F40033D362EFE70021281DFBF7CC
:105AD00023FB0446E9E7002105F12400FBF7A4FAC3
