:020000040804EE
:1000000000000824358D0608818D0608650906085C
:100010006B09060871090608770906080000000048
:1000200000000000000000000000000055C30408AC
:10003000818D060800000000EFC30408FFC3040818
:10004000818D0608818D0608818D0608818D060840
:10005000818D0608818D0608818D0608818D060830
:10006000818D0608818D0608818D0608818D060820
:10007000818D0608818D0608818D0608818D060810
:10008000818D0608818D0608818D0608C9980608AD
:10009000D9980608D5980608E5980608818D0608BF
:1000A000818D0608818D0608818D0608818D0608E0
:1000B000818D0608818D0608818D0608818D0608D0
:1000C000818D0608818D0608818D0608818D0608C0
:1000D000818D0608818D0608818D0608818D0608B0
:1000E000818D0608818D060800000000818D0608BC
:1000F000818D0608818D0608818D0608818D060890
:10010000818D0608AD8A0608818D0608818D060856
:10011000818D0608818D0608818D0608818D06086F
:10012000818D0608818D0608818D0608818D06085F
:10013000818D060863F30408818D0608818D060809
:10014000818D0608818D0608000000000000000077
:10015000818D0608818D0608818D0608818D06082F
:10016000818D0608818D0608818D0608818D06081F
:10017000818D0608818D0608818D0608000000002B
:10018000818D0608818D0608818D0608818D0608FF
:10019000818D0608818D0608818D0608818D0608EF
:1001A000818D0608818D0608818D0608818D0608DF
:1001B000818D0608818D0608818D0608818D0608CF
:1001C000818D0608818D0608818D0608818D0608BF
:1001D000818D0608818D0608818D0608818D0608AF
:1001E000818D0608818D0608818D0608818D06089F
:1001F000818D0608818D0608818D0608818D06088F
:10020000818D0608818D0608818D0608818D06087E
:10021000818D0608818D0608818D0608818D06086E
:10022000818D0608818D0608818D0608818D06085E
:10023000818D0608318D0608818D0608818D06089E
:10024000818D0608818D0608818D0608818D06083E
:10025000818D0608818D0608818D0608818D06082E
:10026000818D0608818D0608818D0608818D06081E
:10027000818D0608818D0608818D0608818D06080E
:10028000818D0608818D0608818D0608000000001A
:10029000818D0608818D060810B5054C237833B989
:1002A000044B13B10448AFF300800123237010BD49
:1002B000A018002400000000A4B6070808B5034BEE
:1002C0001BB103490348AFF3008008BD00000000E4
:1002D000A4180024A4B60708154B002B08BF134B25
:1002E0009D46A3F5803A00218B460F461348144AD9
:1002F000121A2FF0BDFF0F4B002B00D098470E4B6A
:10030000002B00D098470020002104000D000D486C
:10031000002802D00C4821F0DFF92FF0A9FA2000C4
:1003200029000EF02BFA21F0EBFB00BF00000800C3
:100330000000082400000000D9E60408A0180024EA
:10034000880D0124D916060800000000002070471F
:100350000022026042600A790270022282807047A5
:10036000002202604260142202701222428008229F
:100370008280012282717047044B10B5044640F818
:10038000083B21F053FE204610BD00BF90620708D5
:10039000044B10B5044640F8043B21F047FE2046CC
:1003A00010BD00BFAC62070838B500F1080405466F
:1003B000204621F003FE0023204685F82C30BDE8BE
:1003C000384021F019BE38B5041D0546204621F0FD
:1003D000F5FD0023204685F82830BDE8384021F09F
:1003E0000BBE10B50446FFF7C7FF3C21204621F0A5
:1003F000F7FB204610BD10B50446FFF7C9FF3421B6
:10040000204621F0EDFB204610BD00002DE9F04113
:10041000054698460C4631B3012A24D900F1080755
:100420000126384621F0CAFD85F82C60238838461D
:10043000DFED0E6A07EE103AB8EE477A27EE267A1D
:1004400085ED0D7AB4F90230C5F8388007EE903AA0
:10045000F8EEE77A67EEA67AC5ED0C7A21F0CCFDCE
:100460003046BDE8F0810020FBE700BFCDCCCC3D9D
:10047000F8B505461F460C4669B3072A2DD9061D57
:10048000304621F09BFD6288238830469FED147A28
:1004900042EA0343E28907EE903AA38901242F63DD
:1004A000F8EEE77A42EA034285F82840C7EE876A09
:1004B00007EE902AF8EEE77AC5ED0B6AC7EE876A79
:1004C000F5EEC06AF1EE10FACCBF2346002385F8A2
:1004D000293021F091FD2046F8BD0020FCE700BF47
:1004E00000007A44036810B504469B689847A368E7
:1004F000013BA3602BB923682046DB68BDE81040B0
:10050000184710BD0022C2607047C3680BB19B68DA
:10051000184770470021102210B504460170417041
:1005200004302FF0A5FE204610BD00002DE9F84F45
:10053000054600271E4B4FF0000905F1340805F170
:100540003C060324DFF86CA0BB4640F8043B21F0D6
:100550002DFD85F8287085F82970C5F82C902F633B
:1005600046F808AC304606F8047C21F01FFD013C3B
:1005700086F824B0C6F828903C36631C46F8109CD8
:1005800046F80CBCECD12846BDE8F88FC4F1030452
:100590003C2303FB0484444505D054F83C3D1B68D0
:1005A00020469847F7E72846FFF7F2FE2CF028FB95
:1005B000AC6207089062070870B500F592730446B4
:1005C00000F134069E4208D0A3F13C0553F83C3CB0
:1005D00028461B6898472B46F4E72046FFF7D8FECD
:1005E000204670BD10B5044600F5947021F01EFD44
:1005F00004F1680021F070FE04F1180002F01EFF03
:10060000054B6069236028B14368013B43600BB927
:10061000FFF768FF204610BD5C680708014800F03E
:10062000C9BB00BFC0180024014800F060BE00BF75
:10063000C018002410B504460021FFF763FF2046D0
:1006400010BD10B50446FFF760FF204610BD000046
:1006500038B5074B0546044645F8283B1DF020F900
:100660002846FFF7EEFF20461DF05CFA204638BD15
:100670000C8C07082DE9F041044600F59D6600F555
:10068000CE6800F5EE65144FA84505D045F8407DCD
:100690002846FFF7DDFFF7E704F5BC6004F5BA75FF
:1006A00021F0C4FC04F5B56021F0C0FC304621F017
:1006B00013FE04F53C70FFF795FF04F50E7021F072
:1006C000B5FC284621F008FE04F15000FFF774FF46
:1006D0002046BDE8F08100BF248C07082DE9F347D0
:1006E000044605469A46164B04F14006884645F8EE
:1006F000043B28469146FFF79DFF0021304621F03C
:10070000B7FC04F15407384621F050FC0A9B4A46D6
:10071000414620460093534621F03CFD0CE038460C
:1007200021F084FC304621F0E2FC2846FFF789FFE7
:100730002CF066FAF6E7F8E7204602B0BDE8F0874D
:10074000BC9C07082DE9F743044600254FF480526E
:10075000182104F1C00600952B46FFF7BFFF84F86F
:10076000BC50304621F022FC04F1F8071022294643
:1007700004F1E4002FF07CFD84F8F450384621F0B9
:1007800015FC04F58E70FFF7C5FEC4F830512946FC
:1007900004F59A7000F068F9012104F5A47000F0E6
:1007A00063F9022104F5AE7000F05EF9032104F54F
:1007B000B87000F059F904F5C4780325C1464846DD
:1007C0001DF0CAF815F1FF3509F14009F7D22046AE
:1007D00003B0BDE8F083C5F10305DFF8309008EB06
:1007E0008515454505D045F8409D2846FFF730FF63
:1007F000F7E7384621F01AFC304621F017FC204676
:1008000021F06AFD2CF0FCF9F6E7F8E7248C0708E4
:10081000F7B500254FF47A72064604460146C0E952
:1008200001523E4AC0E9045546F8182B304603F001
:1008300087F904F1680700952B464FF48052182180
:100840003846FFF74BFF84F8245104F5947084F880
:10085000255121F0ABFB13E0384621F03DFD304639
:1008600002F0ECFD2E4B6069236028B14368013B28
:1008700043600BB9FFF736FE2CF0C2F9EFE7F1E762
:10088000002640220021C4F84C5184F8505104F550
:10089000AE7084F85151C4F85461C4F858512FF027
:1008A000E7FC84F89C5184F89D5104F5D270C4F89B
:1008B000A061FFF72FFE0123204684F8B85184F889
:1008C000D5314FF47A7384F8BC5184F8BD5184F863
:1008D000BE5184F8BF5184F8C05184F8C151C4F8A6
:1008E000C451C4F8C851C4F8CC51C4F8D05184F8EC
:1008F000D45184F8D651C4F8D851C4F8DC51C4F8A6
:10090000E051C4F8E451C4F8E831C4F8EC51C4F83B
:10091000F051C4F8F45103B0F0BD00BFC86207083D
:100920005C6807082DE9F74304460025002304F11D
:1009300050070570836304F5BA7645708570C570FD
:10094000057145710574457480F8245080F8255070
:10095000056380F8345080F83550C0E90255C0E98D
:100960000555C0E90755C0E90A553C30FFF7D2FDEF
:100970003846FFF7DBFD00952B464FF480521821D7
:100980003046FFF7ABFE04F50E7884F83052C4F819
:100990003452404621F00AFB8022294604F51770A4
:1009A00004F53C792FF064FC0123A4F8DC5248469E
:1009B00084F8603284F8703284F8803284F890329F
:1009C00084F8A03284F8B03284F8C03284F8D0328F
:1009D00084F8DE5284F8DF52C4F8E052C4F8E452DE
:1009E000C4F8E852C4F8EC52FFF712FF07E03046B3
:1009F00021F072FC3846FFF7DFFD2CF001F904F519
:100A00009D60FFF79FFE08E04846FFF7EBFD40467C
:100A100021F00CFBEBE7FAE7ECE7204684F870578F
:100A200084F87157C4F87457C4F87857C4F87C57E1
:100A300003B0BDE8F083000010B5054C2046FFF779
:100A400071FF2046034A0449BDE8104020F042BE31
:100A5000C01800240000002475060408014801F0B5
:100A600071BF00BF5C200024002303294FF0000267
:100A700001704370837003734373036198BF012354
:100A80004260826098BF417083707047037B07EEBD
:100A9000901A33B1F5EEC07AF1EE10FAC4BF00231C
:100AA0000373F5EEC07AF1EE10FA0AD4B7EE007ACD
:100AB000F4EE477AF1EE10FA77FE277AC0ED027A6B
:100AC0007047DFED017AF9E70000000001230373AE
:100AD000002383607047406870478068704700005B
:100AE00007EE902AF8EE676ADFED1A7A86EEA77AAB
:100AF000DFED197AD0ED016A27EE277AD0ED027A80
:100B0000D9B137EE267AB4EEE77AF1EE10FA77FE35
:100B1000877AC0ED017AD0ED017AF5EEC07AF1EE78
:100B200010FA14D4B7EE007AF4EE477AF1EE10FA28
:100B300077FE277AC0ED017A704736EEC77AB4EEB9
:100B4000E77AF1EE10FA58BFF0EE477AE1E7DFED11
:100B5000037AEFE700007A44CDCC4C3E0000000061
:100B6000D0ED017A07EE101A77EE277A90ED027A2F
:100B7000B4EEE77AF1EE10FACCBF01200020704706
:100B8000D0ED017A07EE101A77EEC77A90ED027A6F
:100B9000B4EEE77AF1EE10FA4CBF01200020704766
:100BA0004078704738B5837804460D4613B9002560
:100BB000284638BD407800F0DDFC0028F7D0B5FAB3
:100BC00085F00121400900F083FC01226078114684
:100BD00000F0EEFB054610B101236373E8E7607394
:100BE0000249034801F035F8E2E700BF0463070853
:100BF000196307080021FFF7D5BF0121FFF7D2BF16
:100C0000837810B5044683B1437B33B1002240782A
:100C1000114600F0CDFB0023637300F04FFC01464A
:100C200018B9BDE8104000F053BC10BD002242606E
:100C300082600022027342730261FFF7E1BFFFF797
:100C4000DFBF000030B5002404704470002444600D
:100C500014786CB3B3EE027AD2ED017AF4EEC77A6F
:100C6000F1EE10FA0CDB4C6804B94B604C681C1BAD
:100C7000B4F5FA6F24BF01240C7000248C6015E0D9
:100C80000C7814B3B2EE087AF4EEC77AF1EE10FAEB
:100C90001BD88C6804B98B608C6842F20F751C1BE2
:100CA000AC424FF0000488BF0C704C6054787CB9A3
:100CB0004C788CB1CC6804B9CB60CC681B1B1A4C47
:100CC000A34284BF00234B7006E000244C60D5E7AC
:100CD00001234B700023CB600B7813B10123037009
:100CE00030BD4B78002BF9D192F84C10037009B944
:100CF0000E4B0BE0F3EE077A92ED147AB4EEE77A3E
:100D0000F1EE10FA04DD01234370094B4360E7E77D
:100D100092ED157ADFED077AB4EEE77AF1EE10FA8C
:100D2000F1DC4370E4E700BFDF930400CDCC4C3E20
:100D30006666263F00009C42F8B500F108050646AD
:100D40000C461746284621F039F996F82C301BB18D
:100D5000B16B09B1A14205D90024284621F04CF914
:100D60002046F8BD641A2846BC428CBF00240124EA
:100D700021F042F9F4E7F8B5051D06460C46174682
:100D8000284621F01BF996F828301BB1316B09B1C8
:100D9000A14205D90024284621F02EF92046F8BDAD
:100DA000641A2846BC428CBF0024012421F024F997
:100DB000F4E700002DE9F74F044640F2DC514FF410
:100DC000E130002500F07CFF04F59D674B4904F5F8
:100DD000BA764B4804F53C7800F036FF494806F0F7
:100DE000C3FC04F1540900F08DFB384600F02CFCE4
:100DF000304600F07BFF404601F084FB04F1500ACE
:100E0000484621F0DBF84846C4F88050C4E91E5536
:100E100021F0F2F8009542F210732A46514630460E
:100E200000F093FF18B93849354800F017FF04F176
:100E30008C0900254FF03C0A484621F0BFF80AFB18
:100E4000054010220021B03001352FF011FA48463C
:100E500021F0D2F8042D09F13C09EDD12B4D4FF0D2
:100E60003C09DFF89CB005F1040A15F8023C842126
:100E700015F8012C304619FB031323441A71012283
:100E800015F8023C19FB0311009341F28833214409
:100E900000F05BFF30B915F8023C59461C4A0220AD
:100EA00000F000FF02355545DFD1304601F018FA59
:100EB000404601F015FD384600F03CFE154910484B
:100EC00000F0C2FE01230021142223700023617070
:100ED00004F13C00A170E1702171617184F834105B
:100EE00084F83510A3632FF0C3F90BF0BDF8A060B0
:100EF0000BF0BAF8E06003B0BDE8F08F7463070848
:100F00007C6307084425002489630708CA6307082F
:100F1000A1630708B76307082DE9F0418AB000F51F
:100F2000BA7804460F4604AD414604A804F1100601
:100F300000F067FF0FCD0FC62B686D4604F53C71BE
:100F40003360284601F011FB04F1240695E80F00F8
:100F500086E80F006369002B4AD10123A370A36ABE
:100F6000002B4DD10123E370A3783BB123792BB93A
:100F70003649374800F06DFE01232371A37803B989
:100F80002371E3783BB163792BB93249304800F0E3
:100F900060FE01236371E37803B9637147F2305255
:100FA000394604F1500004F18406FFF7E4FE0546DB
:100FB00043F6982239463046FFF7BEFE40B33C3632
:100FC000B045F5D1A37813B9E37803B9637C2278EF
:100FD000012A1FD1002D36D0002B34D102231E4907
:100FE000627023701A480AB0BDE8F04100F02CBED0
:100FF000FB1A40F6B832934294BF00230123ADE7B9
:10100000FB1A40F6B832934294BF00230123AAE7AB
:101010000546D7E7022A0CD105B1A3B103230F4936
:101020000B482370002363700AB0BDE8F04100F064
:1010300010BE032A07D135B12BB90223084923700A
:1010400001236370CEE70AB0BDE8F0812B63070887
:101050007C63070841630708556307086163070855
:101060006A6307082DE9F04F2DED028BABB0044603
:1010700058228A460DF14C0804F15406002108ADAF
:1010800040469FED478A2FF0F3F83046CDF8A4A0F4
:1010900020F094FF04F17803F0EE488A04F18C0903
:1010A00047460DF18C0B93E8070085E807003046B2
:1010B0000FAE20F0A1FF95E80700002588E80700A3
:1010C000484620F07BFF09F124030FCB86E80F0090
:1010D000484620F091FF07F10C0C96E80F008CE8D1
:1010E0000F003B7B4BB1D7ED047A013578EEA78A30
:1010F000D7ED057AEDB238EE278A103709F13C09B1
:101100005F45DDD175B107EE905A0123F8EE677A9D
:101110008DF8983088EEA77A8DED277A88EE277AB9
:101120008DED287A627806AE8AB35346424604F5BE
:10113000EE613046FFF786FD9DF818509DF81920A6
:10114000079B8DF8192004F134028DF8185007938D
:101150000B930C930D9396E8030082E80300CDB93E
:101160000E9304F59D662A460BA96D4630463C3425
:1011700000F0AFFA3146684600F0C2FA0FCD0FC456
:101180002B6823602BB0BDEC028BBDE8F08F0023F1
:101190000125D6E7102200210BA82FF069F8E0E71F
:1011A000000000002DE9F043B1B0044668220F466C
:1011B00016AE04F15409002101AD304604F1500887
:1011C0002FF056F84846159720F0F8FE04F1780302
:1011D00093E8070085E8070048464FF0010920F032
:1011E0000BFF95E8070008AD86E8070004F18C06C0
:1011F000304620F0E3FE06F124030FCB85E80F0014
:1012000030463C3620F0F8FE15AB03EB091C09F123
:10121000010995E80F00B9F1050F8CE80F00E7D13F
:1012200004F1340229AB04F13C062BAD04F5BA7984
:1012300092E8030083E803000FCE0FC5336804A8CB
:101240002B6004F1840500F0A3F943F69822394697
:101250002846FFF771FD064610B13C354D45F4D1E7
:10126000222200210DF132002FF002F8012339462D
:1012700047F230528DF84930404623788DF83030AF
:1012800063788DF83130FFF776FDA2780CA9637C86
:101290008DF83200002B08BF13468DF835208DF8ED
:1012A00033608DF8343063690E93A3690F93E3695B
:1012B0001093236A04F53C74119320469DF8113075
:1012C0008DF848309DF813308DF849309DF8143072
:1012D0008DF84A30069B1393079B149301F030F965
:1012E00015A9204601F016F931B0BDE8F08338B5F4
:1012F00004460AF0B9FE054600F03AF820462946B1
:10130000FFF70AFEA368EB1AB3F5FA6F04D3294678
:101310002046FFF7A7FEA560E36847F22F52EB1ABD
:10132000934204D929462046FFF73CFFE56038BDCB
:1013300070B50C48002405F0F8FB0A4E0546AC4297
:101340000EDAE1B2304605F0E7FB0238012805D895
:101350000120054B1870054B187070BD0134EEE785
:101360000020F6E7442500244620002447200024DE
:1013700008B50AF079FE0A4B1B7883B9094A41F295
:1013800087311368C31A8B4209D91060FFF7D0FF69
:1013900028B105490548BDE8084000F055BC08BD26
:1013A0004620002448200024DF630708EF63070875
:1013B00003282DE9F04705460C46174601D90020C1
:1013C0000BE01AD058B901200AF028FF2146092065
:1013D0000AF024FF294B01205C55BDE8F087012865
:1013E00005D102200AF01AFF21460820F0E7032069
:1013F0000AF014FF21469920EAE7214B1B7813B12C
:10140000204B1B78A3B9204B00221A7001221F4BDE
:101410001A701F4A1368013313601E4A13680133A0
:101420001360002FCBD01C491C4800F012FCC6E70B
:101430001B48002605F079FBDFF864A08146B14522
:10144000E1DD3146504605F015FB8046A0B103684A
:1014500041F6527122461B699847D8F800300121A5
:1014600040461B6A984738B9074B01221A70074B50
:101470001870084B1860ADE70136E0E74220002401
:101480004620002447200024040000245420002487
:101490004C20002450200024CC630708EF63070889
:1014A0004425002410B500240022E0B20134114686
:1014B000FFF77EFF042CF7D110BD00000023034A84
:1014C000985C10B90133042BFAD1704742200024F4
:1014D00038B504460A4D39B12B78834204D0FFF762
:1014E000EDFF08B1FFF7DEFF214600202C700AF067
:1014F00095FE214607200AF091FE012038BD00BF6D
:101500004120002408B5012100200AF003FE01213A
:1015100007200AF0FFFD012108460AF0FBFD01212A
:1015200009200AF0F7FD012102200AF0F3FD012154
:1015300008200AF0EFFD012103200AF0EBFD012154
:1015400099200AF0E7FD00210846FFF7C1FFFFF7E9
:10155000A9FFFFF7EDFE044B0122044904481A706D
:10156000BDE8084000F070BB40200024648F0708ED
:10157000EF630708022805D9034B187818B1034B0D
:101580001878704701207047462000244720002427
:10159000002242600A4A127802700A4A12784270A7
:1015A000094A12788270094A1278C270084A127881
:1015B0000271084A12688260074A1268C260704766
:1015C000402000244620002447200024040000245A
:1015D000542000244C2000245020002470470B6825
:1015E00003604B6843608B688360704708B51423C1
:1015F00003FB010000F59A70FFF7D2FA0022BDE864
:1016000008401146FFF7D4BE0021FFF7EFBF0121CC
:10161000FFF7ECBF0221FFF7E9BF0321FFF7E6BFA9
:1016200010B5044600F5C4701CF03AF904F5E470F6
:101630001CF036F904F502701CF032F904F5127052
:10164000BDE810401CF02CB92DE9F041044686B0ED
:10165000FFF7E6FF102504F59A7004F1C006FFF7C6
:10166000E5FA04F5A470FFF7E1FA04F5AE70FFF7B0
:10167000DDFA04F5B870FFF7D9FA0027304604F117
:10168000F80820F09BFC2A46002104F1E4002EF02B
:10169000EFFD304684F8F47001AE20F0ADFC40461A
:1016A00020F08CFC2A46394602A8019704F58E7575
:1016B0002EF0DEFD0FCE0FC5336840462B600123B0
:1016C000C4F8307184F81C3106B0BDE8F04120F058
:1016D00093BC2DE9F04100F1C00706460D46904647
:1016E000384606F1E40420F069FC95E80F0084E830
:1016F0000F0086F8F4803846BDE8F04120F07CBC4D
:10170000F8B50C4601F1F807064604F58E74384624
:1017100020F054FC35460FCC0FC5236838462B60AB
:1017200020F06AFC3046F8BD10B4D0E900340968F6
:101730006210E4075DF8044B01EB020044BF8A58D5
:10174000D35818470146043008B5FFF7EDFF08BD30
:10175000034A0346C26007C983E80700704700BF19
:10176000F863070810B586B004460391684606A9D9
:1017700080E80C0001E90C00204603A9FFF7E8FF10
:10178000204606B010BD37B56C46054684E80C000F
:1017900094E80C00FFF7E6FF284603B030BD0000D8
:1017A0000329F0B504468DB00D4616465BD8002AD5
:1017B00059D000EB811000F5C4701CF071F84FF4A3
:1017C0007A72022DA6FB026727D0032D37D0012D98
:1017D0004FF0000310D0294A214608A8CDE9002384
:1017E0006B460CCBFFF7CFFF32463B4608A904F50A
:1017F000C4701CF070F833E0214A214608A8CDE9F6
:10180000022302AB0CCBFFF7BEFF32463B4608A9D2
:1018100004F5E4701CF05FF822E01A4B214608A89A
:1018200004930023059304AB0CCBFFF7ACFF3246C7
:101830003B4608A904F502701CF04DF810E0124B6D
:10184000214608A806930023079306AB0CCBFFF7AD
:101850009AFF32463B4608A904F512701CF03BF88B
:1018600008A8FEF7EEFE0DB0F0BD08A8FEF7E9FEF1
:101870002BF0C6F9F9E7F8E7F7E700BF0916040807
:101880000F160408151604081B1604082DE9F04F5E
:1018900004462DED028B9FEDA38A93B0BFF35B8FBF
:1018A00094F8BC3004F59A76BFF35B8F002B00F000
:1018B000198104F1C0070AF0D7FB029009AD384640
:1018C000B04620F07BFB04F1E403B1460FCB85E882
:1018D0000F0094F8F43038460027019320F08CFB79
:1018E000019B002B00F0E1804846FFF7EFF801373D
:1018F00009F11409042FF3D10023B24699461D467D
:101900001F46CDE90533CDE90733019B002B00F0DD
:10191000D3805046FFF7DFF807EE900A06AAF4EEF0
:10192000C87AF1EE10FACCBF01230023002D08BFC6
:101930001D4602F8093009F101090AF1140AB9F14A
:10194000040FE2D1DFB34FF000094FF0140A0DF19C
:101950001C0B05AB5FFA89F113F809206AB10AFB89
:1019600009600391FFF746F9039930B1012220463F
:1019700009F80B200A22FFF713FF09F10109B9F159
:10198000040FE6D10A2020F0C9FBFFF797FD0146BE
:1019900008B9FFF79DFD4FF000090DF11C0A4FF04B
:1019A000140B19F80A302BB10A2201210BFB096034
:1019B000FFF796F809F10109B9F1040FF1D1DDB390
:1019C0004FF000090DF1200A4FF0010B06AB5FFA52
:1019D00089F113F809206AB11423039103FB09600C
:1019E000FFF70BF9039928B109F80AB00A2220463B
:1019F000FFF7D6FE09F10109B9F1040FE6D10A207B
:101A000020F08CFBFFF75AFD014608B9FFF760FD97
:101A10004FF000090DF1200A4FF0140B19F80A30AD
:101A20002BB10A2200210BFB0960FFF759F809F1DD
:101A30000109B9F1040FF1D10EAE04F5C2791222F9
:101A400000210DF136002EF013FC404608F1140879
:101A5000FFF743F846F8040BC145F6D104F1F80846
:101A600004F58E76404620F0A9FA01230DF1340CDE
:101A70008DF834309DF804308DF83530BCE80F0017
:101A80000FC6DCF8003040463360029BC4F83031AA
:101A900020F0B2FA002F40D1002D14BF0A20002000
:101AA000C0F1140020F03AFBF8E605EB8703484646
:101AB0001968FEF7EBFF1AE71B495046FFF750F88D
:101AC00005AB8346184909F803005046FFF758F85C
:101AD00006AB002F08BF5F46002D08BF054603F880
:101AE000090028E72046FFF79BFD3046FFF7A7F8DF
:101AF00004F5A470FFF7A3F804F5AE70FFF79FF8A4
:101B000004F5B870FFF79BF80849094813B0BDEC1D
:101B1000028BBDE8F04F00F097B8002D7FF4BEAE09
:101B20000A20BDE76F12833A0AD7A33C0464070872
:101B30000C64070810B5BFF35B8F90F8BC3086B01B
:101B40000446BFF35B8F03F0FF02B3B90123BFF379
:101B50005B8F014680F8BC30BFF35B8F0A4B02A855
:101B6000CDE900326B460CCBFFF70DFE02A92046F3
:101B700020F0DAFB02A8FEF764FD06B010BD02A853
:101B8000FEF75FFD2BF03CF88D18040808B5FFF751
:101B9000D9FD08BD08B5FFF7F9FF08BD012806D03B
:101BA000044B054A02280CBF1846104670470348EC
:101BB000704700BF40640708366407083B640708A5
:101BC0001B4B1B68F0B50746E5B00C46154633B312
:101BD000182104A89847002638468DF82760FFF79B
:101BE000DDFF144B4FF4B47100900AA8B44208BF53
:101BF0001C46114B114AB54208BF1D4604ABCDE946
:101C000001452EF057FD0E488DF88F6108F0B8FBA6
:101C100018B10AA90A480AF069F965B0F0BD0AF0DE
:101C200023FA084A0346182104A82EF043FDD2E700
:101C30005820002446640708E895070851640708FF
:101C4000AC3000244B6407080A4601460020FFF729
:101C5000B7BF0A4601460120FFF7B2BF0A46014658
:101C60000220FFF7ADBF000030B5C1B004460D46FD
:101C70004FF48071684632F095FE0028AFBF002314
:101C8000064A07490220A1BF6A46294620468DF828
:101C9000FF30FFF795FF41B030BD00BF1B64070860
:101CA000286407080CB407B504AB53F8042B019360
:101CB000FFF7DAFF03B05DF804EB02B070470000F5
:101CC00070B50C460146084808F03EFD064E0AF085
:101CD000CBF90546304608F053FB20B90AF0C4F9A9
:101CE000401BA042F6D370BDAC30002438B500F1E3
:101CF000C4050446284620F061F9002304F180025F
:101D00000121A4F8683184F86A3184F86B31C4F891
:101D10006C31BFF35B8FC4F8C030BFF35B8FC4F886
:101D20007031C4F87431C4F87831C4F8E83084F8FC
:101D3000EC1084F8ED30C4E93C3310349442F4D113
:101D40002846BDE8384020F057B92DE9F74304464E
:101D50000F4690461E461BB9002003B0BDE8F08335
:101D60000B6868469B6898479DF80030013BDBB2E2
:101D7000F62BF1D8BDF80420531E0F2BECD8BDF87C
:101D800002301344013BB3F5803FE5D204F1C409AE
:101D9000484620F013F994F86851072D03D94846B6
:101DA00020F02AF9D8E70AF05FF9082E04EB0512B3
:101DB0009DF828108CBFF3080023C2F8F060861B42
:101DC000C2F8E870484603FB056582F8EC8082F8AB
:101DD000ED10C2F8F45094F86831013384F868319A
:101DE00020F00AF90120B8E7D0F87431022B06D8A8
:101DF000D0F87801022894BF00200120704701200C
:101E0000704770B50D4614220021044605F1C40642
:101E10002EF02EFA304620F0D1F895F86A31284697
:101E20002370BFF35B8FD5F8C030BFF35B8F636067
:101E3000D5F87031A360D5F87431E360D5F8783106
:101E40002361FFF7D1FF6070304620F0D5F82046BF
:101E500070BD10B504460AF007F9BFF35B8FC4F8F4
:101E6000C000BFF35B8F10BDF8B514460D460D4F93
:101E70000646023CFFF7EDFF04EB4505AC420FD0F0
:101E80003046FFF7E6FF074806F0F7FD48B1384651
:101E900006F0F5FD24F8020F3046FFF7DAFFEDE714
:101EA0000120F8BD002C0024F8B500F1C40504465B
:101EB0000F46284620F082F894F86A6126B1284639
:101EC00020F09AF83046F8BDD4F86C31FB1AB3F51F
:101ED000FA6FF4D32846C4F86C7120F08DF82046D0
:101EE000FFF7B7FF40F2DC52C821184807F0B0FFF7
:101EF0002046FFF7AEFF40F213424FF4165114484C
:101F000006F03AFE20B913491348FFF7A2FED9E7BD
:101F10002046FFF79EFFC8210D4806F0D9FD284650
:101F200020F04CF8012394F86B2184F86A3112B93F
:101F30001E4684F86B31284620F05EF826B107492A
:101F40000548FFF781FEBDE70126BBE7782C00249A
:101F5000002C0024C6640708DA640708E864070850
:101F60002DE9F341089D06460F4690461C4695B163
:101F70008BB1FFF76EFF00944346022239460848B2
:101F800006F034FD38B12A462146304602B0BDE89D
:101F9000F041FFF769BF002002B0BDE8F08100BF4B
:101FA000002C00242DE9F341089D06460F4690467B
:101FB0001C4695B18BB1FFF74CFF009443460322BA
:101FC0003946084806F012FD38B12A462146304607
:101FD00002B0BDE8F041FFF747BF002002B0BDE806
:101FE000F08100BF002C002473B50D461446CAB121
:101FF00009784B1EDBB2F62B14D8AB885A1E0F2A79
:1020000010D86A88D618013EB6F5803F0AD2AD795D
:102010000094012D03D1FFF7C5FF02B070BDFFF79B
:102020009FFFFAE70020F8E770B500F1C4050E46FF
:10203000044628461FF0C2FF36B9C4F8746128462A
:10204000BDE870401FF0D8BF0023C4F87831F6E730
:1020500070B500F1C40504460E4628461FF0AEFFD9
:10206000D4F870310133C4F870314EB9D4F87431FA
:102070000133C4F874312846BDE870401FF0BCBF7E
:10208000D4F878310133C4F87831F4E72DE9F04F12
:1020900000F1C406044695B08A4630461FF08EFF14
:1020A00094F8687194F86931304607931FF0A4FFE3
:1020B000002F00F093804FF000095FFA89F29742F9
:1020C00040F28C80079B304603EB090292FBF7F548
:1020D00007FB15251FF072FF2901E831621854F83B
:1020E0000180137906935379D2E902120893B8F16B
:1020F000000F76D0AAEB020B8B4534BF4FF0000BDC
:102100004FF0010B304609F101091FF075FFBBF1DB
:10211000000FD2D0EBB241460AA805F1010907939E
:10212000D8F800309B689847202200210CA82EF098
:102130009FF80CAA0AA92046FFF756FF002852D1A3
:102140009DF82E303049012B304B31480CBF4922CD
:1021500048220992069A002A14BF8B469B4606F035
:10216000AAFC2C4B099A002808BF1846BDF82C3051
:1021700029490493BDF82A300590012003939DF866
:10218000283002920193089B244A00935B46FFF794
:1021900089FDD8F8003040461B69984706992046CB
:1021A000FFF756FF30461FF009FF94F86831079A91
:1021B00030469342B9FBF7F388BF04EB051507FBE4
:1021C000139788BFC5F8F4A084F869711FF014FF55
:1021D0002046FFF73EFE0A201FF0A0FF15B0BDE825
:1021E000F08FC3468EE7D8F800300CA9BDF82C203C
:1021F0004046D3F80CB05346D8470028A0D00699E3
:102200002046FFF711FFCDE77864070870640708E0
:10221000002C00247C640708DA640708816407083E
:1022200038B50446BFF35B8F94F8BC30BFF35B8FC7
:10223000CBB12046FFF70DFE09F016FF054601461B
:102240002046FFF731FE30B92046FFF702FE14208A
:102250001FF064FFE6E72046FFF7FBFD2946204616
:10226000FFF714FFF0E738BD10B4D0E90034096877
:102270006210E4075DF8044B01EB020044BF8A588A
:10228000D35818470146043008B5FFF7EDFF08BDE5
:10229000034A0346C26007C983E80700704700BFCE
:1022A0006464070810B586B004460391684606A921
:1022B00080E80C0001E90C00204603A9FFF7E8FFC5
:1022C000204606B010BD37B56C46054684E80C00C4
:1022D00094E80C00FFF7E6FF284603B030BD00008D
:1022E00030B5BFF35B8F90F8BC3087B00446BFF3C6
:1022F0005B8F03F0FF021BBB0123BFF35B8F014623
:1023000080F8BC30BFF35B8F114B02A8CDE90032DF
:102310006B460CCBFFF7D7FF02A9204620F004F84C
:10232000054602A8FEF78DF955B10023BFF35B8F78
:10233000084984F8BC30BFF35B8F0748FFF78EFC79
:1023400007B030BD02A8FEF77CF92AF059FC00BFA7
:1023500021220408F2640708DA64070808B5FFF7C9
:1023600091FF08BD08B5FFF7F9FF08BDBFF35B8F0C
:102370000078BFF35B8F003018BF0120704700006A
:102380002DE9F04F0446B1B018301D4604F594799C
:1023900090468B4601F07DF90521209004F225102E
:1023A000FFF7E4FF824648461FF008FE94F8BC3170
:1023B000D4F8D8114846219394F8BD312F91229337
:1023C00094F8BE31D4F8C461239394F8BF31D4F8A3
:1023D000EC71249394F8C031259394F8C13126937D
:1023E000D4F8C8312793D4F8CC312893D4F8D0311D
:1023F000299394F8D4312A9394F8D5312B9394F8F7
:10240000D6312C93D4F8DC312D93D4F8F0312E93BF
:10241000D4F8F4411FF0F0FD9FED387A284605F11D
:10242000400C0023F0EE476A2F99027C4AB1D0EDB0
:10243000057A013376EEA76AD0ED067ADBB237EE85
:10244000277A10306045F0D13BB107EE903AF8EEB4
:10245000677AC6EEA76A87EE277A2D9A58462B68C8
:102460009E42B7EEC77A94BF9E1B00269F421196EC
:1024700094BFDF1B0027CDE91D122C9A41461C9208
:102480002B9A1B922A9ACDE919422E9ACDE917A2CE
:10249000209A1692299A1592289A1492279ACDE991
:1024A0001272269A1092259A0F92249A0E92239ACB
:1024B0000D92229A95ED155A0C92219AB7EEC55AB3
:1024C0008DED067BB7EEE67A0B9295F850208DEDF8
:1024D000047B95ED027A0A92B7EEC77A6A798DEDA0
:1024E000085B0292064A8DED007B2EF0E3F88045F2
:1024F00094BF0020012031B0BDE8F08F0000000043
:10250000C065070840F25B720149183001F0FCBA5F
:10251000B265070870B500F5947504460E46284666
:102520001FF04CFD314604F5A6706C222DF0A2FD83
:102530000123284684F8B831BDE870401FF05CBD27
:1025400070B500F5947604460D46304604F5DE7409
:102550001FF034FD0FCD0FC40FCD0FC42B683046D4
:102560002360BDE870401FF047BD70B5002301F542
:1025700094760D460446438030461FF01FFD05F15A
:10258000180001F086F80521207005F22510FFF7EC
:10259000EDFED5F8EC31607030466360D5F8F0316F
:1025A000A360D5F8F431E3601FF026FD204670BD2E
:1025B00038B500F59474054620461FF0FFFC09F07D
:1025C00053FDC5F8EC012046BDE838401FF014BDAE
:1025D00038B50446FFF7ECFF4FF47A634EF66022FD
:1025E0001149124800F000FA054620466DB9FFF780
:1025F000DFFFBFF35B8F0E4984F82551BFF35B8F7C
:102600000C48BDE83840FFF724BBFFF7D1FF01239A
:10261000BFF35B8F084984F82531BFF35B8F054812
:10262000BDE83840FFF710BB050000245C20002403
:1026300014650708206507082865070838B50446AB
:102640000D4600F225100521FFF790FE68B9D4F879
:10265000E03141F28732EB1A93420ED9C4F8E051CF
:102660002046BDE83840FFF7B3BF2046FFF7A0FF84
:102670002046BDE83840FFF79BBF38BD70B500F17C
:10268000180504460E46284601F003F818BB05213C
:1026900004F22510FFF76AFEE8B1D4F8E431D4F86B
:1026A000E821F31A934216D32046C4F8E461FFF7F9
:1026B0007FFF194B194A2846194901F009F958B109
:1026C0002046FFF775FF17491748FFF7BDFA4FF48B
:1026D0007A73C4F8E83170BD204604F59475FFF7AD
:1026E00067FF12491048FFF7B4FA28461FF066FC4E
:1026F000D4F8F03128460133C4F8F0311FF07CFCE7
:10270000D4F8E83147F230525B00934294BFC4F8EA
:10271000E831C4F8E821DEE73365070859650708A2
:102720004B6507085E650708686507087465070854
:1027300070B50446ADF51C7D6C22002104F594753E
:1027400001A82DF095FD28461FF038FC94F8B861DB
:1027500046B16C2204F5A67101A82DF08BFC002374
:1027600084F8B83128461FF047FC96B304F11806E8
:10277000304600F08EFF60B301AB4FF400721CA92D
:102780002046FFF7FDFD20B32046FFF711FF002391
:102790001CAA1349304601F0A2F9E8B92046FFF718
:1027A00007FF10491048FFF754FA28461FF006FCAF
:1027B000D4F8F4316C2201A9013304F5A670C4F8F1
:1027C000F4312DF057FC0123284684F8B8311FF06E
:1027D00013FC0DF51C7D70BD2046FFF7E9FEF8E700
:1027E00083650708A365070868650708F8B5044608
:1027F00000F5927600F2251705213046FFF7B6FD69
:1028000088B32046FFF7D4FE09F02EFC054620468B
:10281000FFF7CEFE29462046FFF710FF2046FFF7C0
:10282000C7FE29462046FFF729FF05213846FFF756
:102830009DFDA0B104F11805284600F02AFF70B1F3
:102840002046FFF7B5FE284601F050F82046FFF776
:10285000AFFE2046FFF76CFF2046FFF7A9FE1420CD
:102860001FF05CFCC8E7F8BD10B4D0E9003409687B
:102870006210E4075DF8044B01EB020044BF8A5884
:10288000D35818470146043008B5FFF7EDFF08BDDF
:10289000034A0346C26007C983E80700704700BFC8
:1028A0000865070810B586B004460391684606A976
:1028B00080E80C0001E90C00204603A9FFF7E8FFBF
:1028C000204606B010BD37B56C46054684E80C00BE
:1028D00094E80C00FFF7E6FF284603B030BD000087
:1028E00010B5052186B0044600F59270FFF73EFD55
:1028F000B8B90123BFF35B8F214684F82431BFF3BD
:102900005B8F0B4BCDE900306B4602A80CCBFFF779
:10291000DAFF02A904F168001FF006FD02A8FDF726
:1029200090FE06B010BD02A8FDF78BFE2AF068F9F4
:10293000ED27040808B5FFF7A5FF08BD08B5FFF7A8
:10294000F9FF08BDD0F88C0018B1036853F88C3C2F
:102950001844704770B5074B044605460E4644F8C8
:10296000043B0B1D0FCB84E80F00337D28462B75ED
:1029700070BD00BF94770708D0F88C0008B520B16F
:1029800003681B6E9847012800D0022008BD70B56F
:102990000446164629B1D0F88C30586803685B6944
:1029A000984709F061FB0546D4F88C0000210368C4
:1029B0005B6E9847D4F88C0003681B6D984709F04C
:1029C00053FB401BB04208D22046FFF7D5FF012839
:1029D00003D00A2009F05AFBF1E72046FFF7CCFFAD
:1029E000431E5842584170BD2DE9F0410446D0F8CD
:1029F0008C000D4616461F4658B103680121DB6C5A
:102A000098473B46324629462046BDE8F041FFF74D
:102A1000BEBFBDE8F08110B50446006808B11FF0E4
:102A2000F2F8204610BD00000B4B10B5044640F8EC
:102A3000643BFFF7F0FF04F14C00FFF7ECFF04F1FB
:102A40003400FFF7E8FF04F11C00FFF7E4FF201D4E
:102A5000FFF7E1FF204610BD286807082DE9F04187
:102A6000002205461E4B0446114645F8043B284605
:102A700018F0E2FB04F11C0600223046114618F063
:102A8000DBFB04F1340700223846114618F0D4FB72
:102A900004F14C0800224046114618F0CDFB0022FC
:102AA00004F16400114618F0C7FB10E04046FFF740
:102AB000B2FF3846FFF7AFFF3046FFF7ACFF2846BE
:102AC000FFF7A9FF2AF09CF8F3E7F5E7F7E7002303
:102AD000204684F87C30C4F88030BDE8F08100BF27
:102AE0002868070838B518F080F998B1A0F1C40437
:102AF000094D2846FFF7B2FF084BC5F88C40284621
:102B00002B600023064A85F888300649BDE8384026
:102B10001EF0E0BD0446EBE75C20002434680708A3
:102B200000000024292A0408006918B180680030D8
:102B300018BF01207047000003692DE9F0410446E9
:102B400086B00E46904613B903689B6B984725697B
:102B500001AC2B689F68084B0093331D0FCB84E8B2
:102B60000F00337D4246694628468DF81430B84739
:102B700006B0BDE8F08100BF94770708036970B51F
:102B800004460D46164613B903689B6B98472069A7
:102B9000324629460368BDE87040DB681847704735
:102BA000C06810B103685B68184770470020704721
:102BB00010B5044610211FF013F8204610BD08B5CB
:102BC000FFF7F6FF08BD006908B100F09AB9704739
:102BD000006908B100F0E7B97047006908B100F07A
:102BE0000FB97047006908B100F0F0B8704700698C
:102BF00008B100F085B97047006908B100F00BB961
:102C00007047006908B100F009B94FF0FF30704714
:102C1000006908B100F02FB97047006908B100F0F1
:102C200064B94FF0FF307047036810B504469B68E5
:102C30009847A368013BA3602BB923682046DB6853
:102C4000BDE81040184710BD38B504464FF4AA70CF
:102C50001EF092FF054600F0BBF910201EF08CFF1D
:102C600001220346C5602561C0E90122124A0260C3
:102C70006069636190B92368204625695B6B98475A
:102C8000686038BD29F0F4FE2B6828465B689847D9
:102C90002AF0E8F829F02CFF29F0B2FF4368013B45
:102CA0004360002BE7D1FFF7BFFFE4E74FF4AA71C1
:102CB00028461EF095FFEFE7406807080121D0F88D
:102CC00048011FF00FB900002DE9F0410446C0B0E3
:102CD0004FF001082E4FA3684BB32D4D0123642202
:102CE000FF21D4F848011FF01EF9D4F84C011FF061
:102CF00065F9A068D8B1D4F81431B3F5807F0AD152
:102D0000D4F84C011FF078F909F0D2F9BD42ECD0AB
:102D1000002DEADCDFE7D4F8142169460368C2F528
:102D200080725B699847061E07DABE4206D0002310
:102D300084F8183140B0BDE8F08107D109F0B8F946
:102D4000D4F84C011FF058F93546DFE70025D4F8D8
:102D50001431B3F5807F10D0D4F80C311DF8052064
:102D600023441A73D4F80C310133DBB2C4F80C31AC
:102D7000D4F814310133C4F814310135AE42E6D130
:102D8000D4F84C011FF038F984F81881ADE700BF82
:102D900047F4FFFF0C30704738B500250446112278
:102DA00040F8045B29462DF063FAE582204638BDE1
:102DB00008B5034690F8180138B1586803681B6ECF
:102DC00098470128CCBF0020012008BD70B50546FA
:102DD00080680C46164690B10368D5F850111B6BFD
:102DE0009847A8682146324603681B6998470446FD
:102DF000A86800210368DB6A984724EAE47070BD84
:102E000007B502AB012203F8011D1946FFF7DEFFEB
:102E100003B05DF804FBD0F81401704738B583683F
:102E2000044653B1D0F84C011FF0C8F8D4F814315F
:102E300033B9D4F84C011FF0DFF84FF0FF3515E03F
:102E4000D4F81431A3B1D4F8103123441D7BD4F845
:102E500010310133DBB2C4F81031D4F81431013B26
:102E6000C4F81431D4F84C011FF0C6F8284638BD18
:102E70004FF0FF35F6E770B5044680680D461646FC
:102E800060B1D4F84C011FF099F8D4F8143133B97B
:102E9000D4F84C011FF0B0F84FF0FF3070BD9E42E7
:102EA0002946A8BF1E46A819814218D0D4F814316B
:102EB00093B1D4F8103123441A7BD4F81031013384
:102EC000DBB2C4F81031D4F81431013BC4F814312A
:102ED000134601F8013BE7E74FF0FF33F9E7D4F879
:102EE0004C011FF089F83046D8E7D0F8143123B1EF
:102EF000D0F810311844007B70474FF0FF30704716
:102F0000704738B50446D0F84C0108B11FF056F8A8
:102F1000A06840B194F819210368002A3AD05B6890
:102F200098470023A360D4F84C0108B11FF064F85F
:102F3000D4F8440150B11FF059F9D4F8440110B14C
:102F400003685B6898470023C4F84431D4F84851BB
:102F50004DB128461EF0CCFF142128461EF040FE3D
:102F60000023C4F84831D4F84C514DB128461FF025
:102F70005DF8242128461EF033FE0023C4F84C31AE
:102F80000023C4F80C3184F81831C4F81031C4F8A7
:102F9000143138BD1B6BD4F850119847A0680368F2
:102FA0009B689847BDE710B50446FFF701FF01286D
:102FB00005D0D4F814010028D4BF0020012010BD92
:102FC00010B504460021FDF79DFA204610BD000013
:102FD00038B50025144B04464FF48072036029462F
:102FE000C0E901550C302DF043F9C4F80C5184F8B8
:102FF000185104F58E70C4F8105184F81951C4F8B2
:103000001451FFF7DDFF04F59670FFF7C5FE40F29F
:10301000DC53C4F844512046C4F84851C4F84C511C
:10302000C4F8503138BD00BFB868070810B5044671
:10303000FDF76BFA204610BD074B10B50446036040
:10304000FFF75FFF04F59670FFF7E5FC04F58E705F
:10305000FFF7ECFF204610BDB868070810B504461E
:10306000FFF7EAFF4FF4AA7120461EF0B9FD204693
:1030700010BD10B4D0E9003409686210E4075DF8AF
:10308000044B01EB020044BF8A58D358184701464D
:10309000043008B5FFF7EDFF08BD0000034A034602
:1030A000C26007C983E80700704700BF9868070837
:1030B00010B586B004460391684606A980E80C0066
:1030C00001E90C00204603A9FFF7E8FF204606B0FF
:1030D00010BD37B56C46054684E80C0094E80C003A
:1030E000FFF7E6FF284603B030BD00002DE9F043AE
:1030F0000B680E4604468BB0DB6A002130469847C9
:10310000336804F5967130469B6C9847D4F8483183
:103110003BB914201EF030FD05461EF0D3FEC4F866
:103120004851D4F84C313BB924201EF025FD05460A
:103130001EF03CFFC4F84C51D4F84C011EF03EFF89
:10314000D4F84491B9F1000F43D1BC201EF014FD16
:1031500005460746314B05F1400847F8043B384621
:10316000FDF768FA494640461EF082FF05F1540912
:1031700048461EF01BFF2A4B4FF480521821284668
:10318000009300231FF006F8264B214606A8C4F83A
:10319000445102930023039302AB0CCBFFF799FF3A
:1031A00006A928461FF0C0F810E048461EF03EFF72
:1031B00040461EF09CFF3846FDF743FABC212846E6
:1031C0001EF00EFD29F01CFDF2E7F4E706A8FDF75E
:1031D00038FAD4F84C011EF00FFF3368214606A8D8
:1031E0005D6B114B04930023059304AB0CCBFFF7ED
:1031F00070FF06A93046A84706A8FDF722FA01236A
:1032000084F818310BB0BDE8F0831421D7E72421EE
:10321000D5E706A8FDF715FAD4E7FAE7BC9C07083E
:10322000A4680708C92C0408BD2C040870B504461E
:103230000E46FFF766FEA3684BB990201EF09CFC7B
:10324000054618F01DFA0123A56084F81931A56818
:1032500015B90025284670BD60680368DB6F984784
:103260000146284617F08EFC05460028F1D1A068DB
:1032700031460368DB689847094B984203D010B188
:1032800084F81851E6E7A1682046FFF72FFF0125D3
:10329000F6E7902128461EF0A3FC29F0B1FC00BF00
:1032A00039F4FFFFF0B5124B8DB006460D46009382
:1032B0000B1D174601AC0FCB84E80F002B7D694630
:1032C00006A83A468DF8143000F052F806A93046A8
:1032D000FFF7ACFF04E006A8FFF79DFB29F090FC88
:1032E000044606A8FFF797FB20460DB0F0BD00BFCF
:1032F0009477070870B58CB004460D461646002139
:10330000182268462CF0B4FF6846FFF745FD6A4670
:1033100029466068ADF8166000F05BF8694606A8BB
:1033200017F04DFF06A92046FFF780FF08E006A82A
:10333000FFF771FB6846FFF76EFB29F061FCF9E7C8
:10334000044606A8FFF767FB6846FFF764FB2046C4
:103350000CB070BD08B5FFF79AFE08BD08B5FFF7C1
:10336000F9FF08BDCB68C3600BB15B6818477047B5
:10337000F0B587B00C4605461746012611220021FC
:1033800001A82CF075FF002120468DF8046008F09C
:103390005BFD0378314620468DF8053008F054FD7A
:1033A0000378022120468DF8063008F04DFD0378A1
:1033B000032120468DF8073008F046FD03783A4691
:1033C00001A928468DF8083017F0E2FE284607B01C
:1033D000F0BDF0B5002385B004460E4602AD029361
:1033E0008DF80C301746036829465B6C98472368B4
:1033F00000953A461D68314601232046A84705B08E
:10340000F0BD704770B504460D4608F02DFEA06172
:103410002946A0680368BDE870401B68184770B56E
:1034200004460D46164608F01FFEA0612946A06816
:1034300032460368BDE870405B68184710B5044623
:10344000C0682CF0D3FA204610BD2DE9F0410546A6
:103450000E464FF47A7708F007FE8046A8680368A6
:103460001B699847044658B908F022FE08F0FCFD95
:10347000AB8AA0EB08007B439842EFD3204605E0DF
:10348000A86803685B69984730700120BDE8F08147
:1034900038B5148815462144FFF7D7FF08B1013429
:1034A0002C8038BD2DE9F74F002602AD8A46C16851
:1034B00025F8026D2A460446FFF7EAFF18B90020F6
:1034C00003B0BDE8F08FE3680DF10809012793F818
:1034D000008009F8036DBDF80630052B07D14FF0C9
:1034E000FF33A068E36403689B6A9847E7E74946AF
:1034F0002046FFF7AAFF0028E1D0BDF80630E268B9
:10350000591CADF806109DF80510D1549DF80530F2
:1035100003F07F0207FB02661A064FEAC717DAD4E8
:1035200008F0F0089DF80630B8F1300F03F1FF33D2
:103530008AF800301DD12A46E1682046FFF7A8FF2F
:103540000028BCD02A46E1682046FFF7A1FF0028EA
:10355000B5D0E2689AF80030134459789D78137812
:1035600005EB01259B07ADB201D50235ADB20227AF
:1035700001E000273D46BDF806B0A7EB0B0707EBBF
:103580000B0296422AD949462046FFF75EFF0028E3
:1035900095D0A06C88B1B8F1300F0ED19AF8002008
:1035A000C2F1FF2202F57F02FE325A44AA4204D938
:1035B00002689DF8051012689047BDF80620218A20
:1035C000914208D99DF80500E1688854BDF80620AD
:1035D0000132ADF806200BF1010BD0E7A26C22B945
:1035E000218A594538BFADF80620BDF8060067E7C7
:1035F00073B50025DC1103F07F06A3B20CB146F0D1
:103600008006681C0DF1080CC0B2654405F8046C16
:103610000546002CEED1C0F10405515501ADA04284
:1036200005DD231A615D013413445971F7E7013058
:1036300002B070BDF8B5064617461C46FFF7D8FF26
:10364000B368C0B21A680444C0F105011846556851
:1036500022463944A847054608F006FDB061A8B2E5
:10366000031B58425841F8BD023330B598B20C469E
:10367000631A14F8015B9BB21DB1431C155498B238
:10368000F6E7C11A0A44191202F8013C02F8021CBA
:1036900030BD38B50546806808B9002038BD0368DC
:1036A000DB6A9847EC6C68B9002CF6D1A8686FF01B
:1036B0000203EB640368DB689847A86803689B6AA9
:1036C0009847EAE7B4FA84F04009E7E72DE9F04FBC
:1036D0008BB00446894617461E46149D9DF860A08F
:1036E000FFF7D7FF8046002840F0E980A068036814
:1036F000DB6A9847002840D00123E382734B049390
:1037000045F25443ADF8143004238DF816300523E8
:1037100004A9E268194411F8051CD15401330C2B9B
:10372000F6D1002D47D09DF858309DF854205B010C
:1037300043F0040343EAC203DBB2BAF1000F01D045
:1037400043F002031FB1002E37D143F08003E2683B
:1037500048461373638AE2681B125373E368628AF4
:103760009A73218A2DF0ECFC238A1130984227D9D4
:10377000A06803689B6A9847A1E0D4F808B0216C60
:10378000DBF8003051B11B6A5846B4F84420984722
:103790000128B1D06FF00103E36490E0DB6904F12C
:1037A000280104A80193FFF7D5F8B4F8442004A930
:1037B0005846019BEBE72B46BFE743F0C003C6E743
:1037C00049460F23E2682046FFF74EFF814605B3C6
:1037D000218A28462DF0B4FC09F102031844238AFB
:1037E0009842C5D84B462946E2682046FFF73CFF81
:1037F000218A054617982DF0A3FC0230238A28441D
:103800009842B5D82B46E26817992046FFF72CFF5F
:10381000814617B3218A38462DF092FC09F1020344
:103820001844238A9842A3D84B46E268394620467A
:10383000FFF71AFF814686B1218A30462DF080FCC1
:1038400009F102031844238A984291D84B46E26852
:1038500031462046FFF708FF8146A9F105034FF4E2
:103860007A75E26810219BB22046FFF7E3FE08F06C
:10387000FBFBC4E90600A06803681B69984758B9B8
:1038800008F0F2FBE369C01AA38A6B439842F2D3B3
:103890006FF00303E3646BE70DF10F012046FFF7C0
:1038A00001FE04287FF464AFE368DD785DB94FF072
:1038B000010808F0D9FB84F82050E061E564404637
:1038C0000BB0BDE8F08FE56452E700BF00044D5136
:1038D00010B54FF0010C86B00024CDE9034CCDE9C2
:1038E00001440094FFF7F2FE06B010BD2DE9F34746
:1038F0000446FFF7CEFE8046D0B108F0B5FB628AE1
:103900004FF47A7307465343E269821A9A4203D806
:10391000A269821A93421FD294F8203063B16FF0EB
:103920000303A0684FF00008E36403689B6A9847AC
:10393000404602B0BDE8F087E268C0211170E2683D
:1039400053700222A068E16803685B68984701230E
:10395000C4E9067784F82030A06803681B6998479B
:103960000028E5D00DF107012046FFF79BFD064634
:1039700083B2002B73D0E368E7611A7802F0F0029B
:10398000302A57D1626A002AD2D09DF807209918B0
:10399000901C49781D5C184405EB0125D11CADB283
:1039A00019442A462CF000FCE3689DF807202B44BC
:1039B000134400229A70B2B2E1689DF807C091F8F2
:1039C00000900CF10200666A09F006090CF103038D
:1039D0000844A2EB0C02B9F1020F25D12B440CF1E3
:1039E000050C521B11F803E00B446544053A93F8AB
:1039F00001A029440AEB0E2AB047E36840221FFACF
:103A00008AFA1A704FEA2A22E36883F80190E36881
:103A10009A700422E36883F803A0A068E168036851
:103A20005B689847A76183E72B44033A1944521B0C
:103A3000B0477DE7C02A0BD1D0221A700022E3687C
:103A40005A700222A068E16803685B6898476FE7D4
:103A5000D02A7FF46DAF002384F8203068E7204639
:103A6000FFF717FE002808BF4FF0000860E72DE9B8
:103A7000F0470446884617461D469DF82060FFF72C
:103A800008FE48B3B4F81090404649462DF058FB64
:103A9000EB1D184481451FD341460523E2682046AB
:103AA000FFF7E2FD00211FFA81FC4318E2680131B3
:103AB000AC459BB204D217F80CC002F803C0F2E781
:103AC000002EA3F1050320469BB214BF3121302103
:103AD000BDE8F047FFF7AEBD0020BDE8F087F7B5C1
:103AE00005460E461F46144662B1018A10462DF067
:103AF00027FB03462246314600972846FFF7B7FFCB
:103B000003B0F0BD1046F4E70164A0F8442070470C
:103B100038B504460D4609B9002038BD038A4BB9B3
:103B200008462BF05BFFE060E0682582003018BF9C
:103B30000120F2E7C0682CF0FBFB0028F3D1EBE793
:103B400070B50C4B002504460E46456040F8283BF6
:103B500008F060F94FF0FF33A6604FF48071E36422
:103B60002046A5642582FFF7D3FF0F2320466382FA
:103B7000A38270BDD068070801207047012A03D0D6
:103B8000022A03D0002070470160FBE70B68036046
:103B9000F8E7012A03D0022A03D000207047016011
:103BA000FBE70B680360F8E7012A03D0022A03D081
:103BB000002070470160FBE70B680360F8E7012A0B
:103BC00003D0022A03D0002070470160FBE70B6896
:103BD0000360F8E7012A03D0022A03D000207047CF
:103BE0000160FBE70B680360F8E7012A03D0022AB3
:103BF00003D0002070470160FBE70B680360F8E723
:103C0000012A03D0022A03D0002070470160FBE79D
:103C10000B680360F8E7012A03D0022A03D00020D2
:103C200070470160FBE70B680360F8E7012A03D0E7
:103C3000022A03D0002070470160FBE70B68036095
:103C4000F8E7012A03D0022A03D000207047016060
:103C5000FBE70B680360F8E7012A03D0022A03D0D0
:103C6000002070470160FBE70B680360F8E7012A5A
:103C700003D0022A03D0002070470160FBE70B68E5
:103C80000360F8E7012A03D0022A03D0002070471E
:103C90000160FBE70B680360F8E7012A03D0022A02
:103CA00003D0002070470160FBE70B680360F8E772
:103CB000012A03D0022A03D0002070470160FBE7ED
:103CC0000B680360F8E7012A03D0022A03D0002022
:103CD00070470160FBE70B680360F8E7012A03D037
:103CE000022A03D0002070470160FBE70B680360E5
:103CF000F8E7012A03D0022A03D0002070470160B0
:103D0000FBE70B680360F8E7012A03D0022A03D01F
:103D1000002070470160FBE70B680360F8E7012AA9
:103D200003D0022A03D0002070470160FBE70B6834
:103D30000360F8E7012A03D0022A03D0002070476D
:103D40000160FBE70B680360F8E7012A03D0022A51
:103D500003D0002070470160FBE70B680360F8E7C1
:103D6000012A03D0022A03D0002070470160FBE73C
:103D70000B680360F8E7012A03D0022A03D0002071
:103D800070470160FBE70B680360F8E7012A03D086
:103D9000022A03D0002070470160FBE70B68036034
:103DA000F8E7012A03D0022A03D0002070470160FF
:103DB000FBE70B680360F8E7012A03D0022A03D06F
:103DC000002070470160FBE70B680360F8E7012AF9
:103DD00003D0022A03D0002070470160FBE70B6884
:103DE0000360F8E7012A03D0022A03D000207047BD
:103DF0000160FBE70B680360F8E7012A03D0022AA1
:103E000003D0002070470160FBE70B680360F8E710
:103E1000034B10B50446036003F0F6FD204610BDC9
:103E2000FC68070810B50446FFF7F2FF642120463E
:103E30001DF0D6FE204610BD2DE9F0410A4C0027AA
:103E4000A4F24C4604F12C0504F1D80855F8040BF3
:103E500018B11DF0D8FE45F8047CA845F6D1DC3C2D
:103E6000B442EFD1BDE8F0815C24002404F0E4B852
:103E7000B1F57A6F19D0A1F6AA73132B15D9A1F653
:103E8000C8721B2A03D80A4BD340DB070DD4A1F616
:103E9000E6711C2997BF07480120C840C04398BF5E
:103EA00000F0010080F0010070470120704700BF62
:103EB000FFFCF30FFFFCF71F2A2909D800EB810351
:103EC000DB6A2BB140560428D4BF00200120704784
:103ED0000020704770B501F10D050C460646E9B2A9
:103EE000FFF7EAFF48B106EB8404206E08B11DF02D
:103EF0008AFE00232366FF23735570BD2DE9F04130
:103F00002A2A1E464FF0010305468846144680F8CB
:103F1000D83013D896B100EB8207F86A28B11DF0AB
:103F200072FE0023FB62FF232B5530461DF03CFE42
:103F30003246F86241462CF09DF82E55BDE8F081DE
:103F400010B58368044613B1032201469847204602
:103F500010BD000000F10803002213B5036002A9A0
:103F60001323044641F8043D29F0CCF9019B074A8C
:103F70002060A360A2F1130129F0F0F9019B2268EF
:103F8000002120466360D15402B010BDF3680708D9
:103F900010B54FF47A61044603F06FFD50B340F65C
:103FA000AF71204603F069FD20B34FF47B612046DA
:103FB00003F063FDF0B140F6B271204603F05DFD01
:103FC000C0B140F6B371204603F057FD90B140F602
:103FD000B171204603F051FD60B140F6B471204646
:103FE00003F04BFD30B1204640F6B571BDE81040FE
:103FF00003F043BD002010BD10B54FF47A610446B4
:1040000003F03BFDF0B140F6AA71204603F035FD08
:10401000C0B140F6AB71204603F02FFD90B140F6E1
:10402000AC71204603F029FD60B140F6AD71204629
:1040300003F023FD30B1204640F6AE71BDE81040DC
:1040400003F01BBD002010BD10B54FF47A6104468B
:1040500003F013FDC0B140F6BA71204603F00DFD28
:1040600090B140F6BB71204603F007FD60B140F609
:10407000BC71204603F001FD30B1204640F6BD7111
:10408000BDE8104003F0F9BC002010BD10B54FF49E
:104090007A61044603F0F1FC60B140F6B771204646
:1040A00003F0EBFC30B1204640F6B871BDE810409B
:1040B00003F007BD002010BDC06B20B100222221FB
:1040C0003C3004F030B970470068FFF7F5BF036873
:1040D00013211B6A1847036811211B6A1847072917
:1040E00038B5044615460BD80368002201F6FA716C
:1040F0001B69984725B12046BDE83840FFF7EBBF64
:1041000038BDC06B00220B213C3004F017B90068A9
:10411000FFF7F7BFC06B002212213C3004F00EB94C
:104120000068FFF7F7BFC06B20B1002220210C30E0
:1041300004F0DBB870470068FFF7F5BF0068FFF7D1
:10414000F2BF0068FFF7EFBF0068FFF7ECBF006841
:10415000FFF7E9BF0068FFF7E6BF0068FFF7E3BFBE
:104160000068FFF7E0BF0068FFF7DDBF0068FFF7FA
:10417000DABF70B506460C464CB1E1683046FFF731
:10418000F8FFA56820461DF01FFD2C46F4E770BD22
:1041900070B506460C464CB1E1683046FFF7F8FFB3
:1041A000A56820461DF010FD2C46F4E770BD13B540
:1041B0000B4604466A46D0E9000182E8030093E812
:1041C000030084E8030092E8030083E8030002B0E0
:1041D00010BD38B505460C46FFF7E9FFAB68A2688D
:1041E000AA60A360E268EB68EA60E36038BD38B5B6
:1041F00005460C46FFF7DBFFAB68A268AA60A36028
:10420000E268EB68EA60E36038BD70B58B6804462D
:1042100016460D1D012053B11A691D4630689042A3
:1042200039BF9A680120DA6800201346F3E790B19D
:10423000CA68AA4203D1C4E90035204670BD2846A9
:1042400028F0A8FF336802699A424FF00003F2D3C6
:10425000C4E90003F1E72846F4E72DE9F74300F14C
:10426000040805460E46836844464BB13268196916
:1042700091423ABFDA6823469A681C461346F4E72F
:10428000A04503D0326823699A422CD218201DF031
:1042900073FC3668074600F110090661A0454FF02F
:1042A0000000786124D16B691BB12A691369B3429C
:1042B0000AD34A4629466846FFF7A7FFDDE90042D0
:1042C000002A4ED0002C4AD1904548D01069864231
:1042D0002CBF002001204346394628F05DFF6B6962
:1042E00001336B613C4604F1140003B0BDE8F08378
:1042F0002369B34219D9EB689C420BD0204628F0C1
:1043000049FF0369B34208D2C368002B0ABF0446C1
:104310002346002322461C46D2E74A4629466846E1
:10432000FFF773FFDDE90034F4E71AD22A699442FB
:1043300009D0204628F012FF0369B34205D9E3688B
:104340005BB9224618460446BAE74A4668462946FB
:10435000FFF75BFFDDE90002F5E70246F3E7012026
:10436000B9E7384627461DF02FFCBBE72DE9F74398
:10437000804603F021FB1B4B02AD444644F8083B4A
:1043800041F20203204645F8043D2946FFF765FF48
:10439000002640F6A2722946066020460192FFF7E9
:1043A0005CFF40F6A3730660294620460193FFF7A1
:1043B00054FF3746066040F6E47940F6DC7629463D
:1043C00020460196FFF749FF013607604E45F6D1BA
:1043D000404603B0BDE8F083404603F015FB28F0EB
:1043E0000FFC00BFFC68070810B564201DF0C4FB7B
:1043F0000446FFF7BBFF05E0642120461DF0F0FBFB
:1044000028F0FEFB204610BD2DE9F04F85B04FF49B
:104410007A6300F10806044604AD304645F8043DD1
:104420002946FFF71AFF0368072B08D994F838309C
:10443000042B04D90027384605B0BDE8F08FE36BA4
:10444000002BF7D02046FFF7D7FD0028F2D04FF41D
:104450007A63E76B294630460393FFF7FEFE03229B
:104460000178384602F0FAFA40F6AA73E76B29465B
:1044700030460393FFF7F1FE04220178384602F03C
:10448000EDFA40F6AB73E76B294630460393FFF72E
:10449000E4FE05220178384602F0E0FA40F6AC73FB
:1044A000E76B294630460393FFF7D7FE06220178D3
:1044B000384602F0D3FA40F6AD73E76B2946304632
:1044C0000393FFF7CAFE07220178384602F0C6FAC6
:1044D00040F6AE73E76B294630460393FFF7BDFE07
:1044E00008220178384602F0B9FA40F6A27329464C
:1044F00030460393FFF7B1FE0168092201293ED13E
:104500004FF00D0AE06B02F0A9FA40F6A2732946BB
:104510003046DFF878800393FFF79FFE00230722E1
:1045200009214FF47A6B0360E06B3C3003F0FBFE33
:10453000DC2394F8389007462946304609FB038966
:104540000193CDF80CB0FFF788FE01784846FFF7DD
:10455000C1FC94F83820019B29463046E46B02FBED
:104560000388CDF80CB0FFF778FE02683C343B4678
:10457000404652442146D2B2FFF7C0FC5BE702211D
:10458000E06B02F06BFA4FF0000ABEE7EC2000246B
:104590000068FFF739BF00002DE9F74F4FF47A6349
:1045A00002AD00F10806044645F8043D29463046B0
:1045B000FFF753FE0368072B08D994F83830042B13
:1045C00004D90027384603B0BDE8F08FE36B002B19
:1045D000F7D02046FFF7DCFC0028F2D0E76B4FF461
:1045E0007A6929463046CDF80490FFF736FE03225B
:1045F00001783846DFF818B102F030FAE76B40F680
:10460000AF73294630464FF0DC080193FFF725FED3
:1046100004220178384602F021FA4FF47B63E76BFD
:10462000294630460193FFF718FE052201783846E7
:1046300002F014FA0622E06B012102F00FFAE76B98
:1046400040F6B173294630460193FFF706FE072274
:104650000178384602F002FAE76B40F6B473294657
:1046600030460193FFF7F9FD08220178384602F041
:10467000F5F9E76B40F6B573294630460193FFF72D
:10468000ECFD09220178384602F0E8F9E76B40F6C4
:10469000B273294630460193FFF7DFFD0A22017805
:1046A000384602F0DBF940F6B373E76B2946304633
:1046B0000193FFF7D2FD0B220178384602F0CEF9C4
:1046C000E06B092211213C3003F02DFE94F838A054
:1046D000074629460AFB08BA3046CDF80490FFF792
:1046E000BCFD01785046FFF7F5FB94F83830E46BD9
:1046F000294603FB08B830463C34CDF80490FFF758
:10470000ACFD3B46027821464046FFF7F7FB59E7F0
:10471000EC2000240068FFF73FBF00002DE9F74FB1
:104720004FF47A6302AD00F10806044645F8043DF3
:1047300029463046FFF791FD0368072B08D994F806
:104740003830042B04D90027384603B0BDE8F08F79
:10475000E36B002BF7D02046FFF776FC0028F2D061
:10476000E76B4FF47A6929463046CDF80490FFF79D
:1047700074FD032201783846DFF8C0B002F06EF90C
:10478000E76B40F6BA73294630464FF0DC080193D8
:10479000FFF763FD04220178384602F05FF9E76B0A
:1047A00040F6BB73294630460193FFF756FD0522BC
:1047B0000178384602F052F9E76B40F6BC7329469F
:1047C00030460193FFF749FD06220178384602F092
:1047D00045F940F6BD73E76B294630460193FFF774
:1047E0003CFD07220178384602F038F9E06B0522DB
:1047F0000C213C3003F097FD94F838A00746294679
:104800000AFB08BA3046CDF80490FFF726FD017880
:104810005046FFF75FFB94F83830E46B294603FB02
:1048200008B830463C34CDF80490FFF716FD3B46FF
:10483000027821464046FFF761FB85E7EC20002423
:104840000068FFF76BBF00002DE9F74F4FF47A6364
:1048500002AF00F10808054647F8043D39464046D6
:10486000FFF7FBFC0368072B08D995F83830042BB9
:1048700004D90024204603B0BDE8F08FEC6B002C77
:10488000F8D04FF47A6939464046CDF80490FFF7E6
:10489000E4FC03220178204602F0E0F8E86B0122F4
:1048A00024213C3003F03FFD95F838B00446BBF1BD
:1048B000040FDFD8DFF840A0DC2639464046CDF8AB
:1048C0000490FFF7CAFC01780BFB06A0FFF702FB80
:1048D00095F83830ED6B394603FB06A640463C356B
:1048E000CDF80490FFF7B9FC2346027829463046FC
:1048F000FFF704FBBEE700BFEC2000240068FFF7D1
:10490000A3BF37B54FF47A630D4602A904460830B9
:1049100041F8043DFFF7A1FC2368142105601B6AE0
:104920002046984703B030BD37B540F6B9730D4601
:1049300002A90446083041F8043DFFF78EFC2368C5
:10494000122105601B6A2046984703B030BDF7B5B9
:1049500041F2040302AC00F10806054644F8043DA8
:104960000F4630462146FFF778FC40F6A3730760F8
:10497000214630460193FFF770FC012312210360AA
:1049800028462B681B6A984703B0F0BD2DE9F34712
:1049900090F838300446042B04D90025284602B08C
:1049A000BDE8F08702AD00F1080640F6A377304677
:1049B00045F8047D2946FFF750FC0368002B41D0E1
:1049C0002946304601974FF02A08FFF746FC4FF082
:1049D0003109002341F204070360E36B002BDCD0B4
:1049E0003946204603F049F80028D6D0D4F83CA038
:1049F000294630460197FFF730FC032201785046E4
:104A000002F02CF8D4F83CA0294630460197FFF775
:104A100024FC04224178504602F020F8E06B49461D
:104A200002223C3003F07FFC94F838600546E16BCD
:104A30000346084CDC2042463C3106FB0040FFF7B1
:104A40005DFAABE74FF00C084FF0100940F6B9776C
:104A5000C3E700BFEC2000240068FFF797BF2DE9F3
:104A6000F347A1F108089A46064691465FFA88F393
:104A7000032B5AD80AB1524557D94FF47A6702AC82
:104A800006F1080544F8047D21462846FFF7E5FBBA
:104A90002146C0F8008028460197FFF7DEFB036837
:104AA00021462846019703F6C878FFF7D6FB07682A
:104AB0003046414607F6CC7702F0DFFFA0B9214629
:104AC0002846CDF80480FFF7C8FB2146C0F80090C7
:104AD00028460197FFF7C1FB3368C0F800A00E21FC
:104AE0001B6A3046984720E03946304602F0C5FF41
:104AF0000028E4D040F6A373214628460193FFF72F
:104B0000ACFB0368012BDAD002A9284641F8088DD6
:104B1000FFF7A3FB03684B45D1D1214628460197F7
:104B2000FFF79BFB03685345C9D102B0BDE8F0878E
:104B3000F7B50D461F4602A940F6A3730446083098
:104B400041F8043D1646FFF788FB0123324629460B
:104B500003603B462046FFF782FF03B0F0BD000034
:104B6000C36B2DE9F347044623B90027384602B04A
:104B7000BDE8F0874FF47A6902AD00F1080645F808
:104B8000049D29463046FFF768FB2946D0F800808F
:104B90003046CDF80490FFF760FB49460768204691
:104BA00002F06BFF0028E0D008F6C87820464146A6
:104BB00002F063FF0028D8D007F6CC7720463946AC
:104BC00002F05BFF0028D0D0D4F83CA02946304644
:104BD000CDF80490FFF741FB03220178504601F025
:104BE0003DFFD4F83C9029463046CDF80480FFF7CD
:104BF00034FB04220178484601F030FFD4F83C90A1
:104C000029463046CDF80480FFF727FB052241787E
:104C1000484601F023FFD4F83C9029463046CDF8B1
:104C20000480FFF71AFB06228178484601F016FF40
:104C3000D4F83C9029463046CDF80480FFF70DFBB0
:104C40000722C178484601F009FFD4F83C80294684
:104C500030460197FFF701FB08220178404601F03A
:104C6000FDFED4F83C80294630460197FFF7F5FA5F
:104C700009224178404601F0F1FED4F83C802946F3
:104C800030460197FFF7E9FA0A228178404601F0A1
:104C9000E5FED4F83C80294630460197FFF7DDFA5F
:104CA00040F6A377C1780B22404601F0D7FE294693
:104CB00030460197FFF7D1FA0368012B2AD1294624
:104CC000304601974FF02609FFF7C7FA002333213A
:104CD0000360E06B09223C3003F025FB94F8388038
:104CE0000746B8F1040F3FF641AF4FF47A63E46B27
:104CF0002946304601933C34FFF7AFFA026821465B
:104D000006484A44DC243B46D2B208FB0400FFF7C5
:104D1000F5F82BE74FF008091321DAE7EC2000241F
:104D20000068FFF71DBFC36B37B5044613B90020F9
:104D300003B030BD4FF47A6102F09FFE0028F6D038
:104D400002A94FF47A63E56B04F1080041F8043DD1
:104D5000FFF783FA03220178284601F07FFEE06B1B
:104D600001220A213C3003F0E9FAE1E70068FFF78D
:104D7000DABF2DE9F7430546C06B20B90027384656
:104D800003B0BDE8F08303220A210C3003F099FA46
:104D900007460028F2D00321E86B01F065FE0728E2
:104DA0000446ECD805F1080802AE0421E86B04F6CD
:104DB000D27401F059FE8146404646F8044D314612
:104DC000FFF74BFA0521C0F80090E86B01F04CFEAC
:104DD0003146054640460194FFF73FFA036803EB6E
:104DE00005230360CBE70068FFF7C3BF07292DE960
:104DF000F74307460E469146984630D800F108041E
:104E000002AD4FF47A63204645F8043D2946FFF78A
:104E100024FA066006F6DC76294620460196FFF75E
:104E20001CFA41F6FF732946994594BFC0F80090DB
:104E3000036040F6A173204603240193FFF70DFAA7
:104E4000C0F800803B680F2138461B6A984730B194
:104E5000013C052007F01AF914F0FF04F2D103B069
:104E6000BDE8F08373B540F6A3730D4602A904466E
:104E70000830164641F8043DFFF7EFF901233246AA
:104E80002946036000232046FFF7B0FF02B070BD43
:104E90002DE9F7434FF47A6302AE00F108050446AA
:104EA00046F8043D31462846FFF7D7F90368072B3B
:104EB00008D994F83830042B04D90027384603B0B9
:104EC000BDE8F083E76B002FF8D04FF47A612046FD
:104ED00002F0D3FD0028F0D04FF47A68314628461E
:104EE000CDF80480FFF7B9F90168204601F6DC71BE
:104EF00002F0C3FD0028E0D0E76B31462846CDF82C
:104F00000480FFF7AAF90178384602AF032201F0C6
:104F1000A5FD47F8088D28463946D4F83C90FFF7A0
:104F20009CF903683146284603F6DC730193FFF7CA
:104F300094F904220178484601F090FD394628464C
:104F4000D4F83C90CDF80080FFF787F9036831462C
:104F5000284603F6DC730193FFF77FF905224178B9
:104F6000484601F07BFD40F6A173E76B31462846C9
:104F70000193FFF772F906220178384640F6A377CD
:104F800001F06CFD314628460197FFF766F903688A
:104F900043B33146284601974FF01E08FFF75DF9ED
:104FA00000233D210360E06B04224FF0DC093C301C
:104FB00003F0B9F994F838200C4B074631462846DF
:104FC00002FB09394FF47A63E46B0193FFF745F96B
:104FD00002683C343B46484642442146D2B2FEF782
:104FE0008DFF6BE74FF015080D21DCE7EC20002466
:104FF0000068FFF74DBFC36B37B5044613B90020F7
:1050000003B030BD4FF47A6102F037FD0028F6D0CE
:1050100002A94FF47A63E56B04F1080041F8043DFE
:10502000FFF71BF903220178284601F017FDE06B1A
:1050300001220F213C3003F081F9E1E70068FFF71E
:10504000DABF2DE9F34100F1080702AD4FF47A68A9
:105050000646384645F8048D2946FFF7FEF80368F2
:10506000072B15D8F46BACB129463846CDF804802F
:10507000FFF7F3F803220178204601F0EFFCF06B14
:10508000012240213C3003F059F902B0BDE8F08123
:105090000020FAE72046F8E70068FFF7D2BF2DE9C5
:1050A000F3410546C06B20B90026304602B0BDE88A
:1050B000F081022240210C3003F003F9064600285B
:1050C000F2D00321E86B01F0CFFC05F1080740F6B0
:1050D000A57302AC8046384644F8043D2146FFF7EC
:1050E000BCF80421C0F80080E86B01F0BDFC40F67C
:1050F000A4730546214638460193FFF7AEF80560D4
:10510000D3E70068FFF7CBBFF7B54FF47A6302AD82
:1051100000F10806044645F8043D29463046FFF7ED
:105120009CF80368072B07D994F83830042B03D96F
:105130000025284603B0F0BDE36B002BF8D041F208
:105140000201204602F099FC0028F1D041F202034E
:10515000E76B294630460193FFF77FF80322017879
:10516000384601F07BFCE06B012215213C3003F056
:10517000DAF894F838600546E16B0346044CDC200D
:105180001D223C3106FB0040FEF7B8FED1E700BF10
:10519000EC2000240068FFF7B7BF2DE9F34706466F
:1051A000C06B10220B210C3003F08BF8804648B303
:1051B00040F6D27406F1080740F6DA79E5B2F06BF2
:1051C00069005F31C9B201F04FFC01A9824638463F
:1051D0000194FFF742F805F13001C0F800A0F06B30
:1051E000490001F0FE0101F03FFC01A905463846E7
:1051F0000194FFF732F8013403684C4503EB0523B3
:105200000360DBD1404602B0BDE8F0870068FFF7DD
:10521000C4BF73B50446C06B012212210C3003F0E9
:1052200050F8054670B10321E06B01F01DFC02A9A6
:1052300040F6F873064604F1080041F8043DFFF714
:105240000CF80660284602B070BD0068FFF7E1BFA9
:1052500070B58B68044616460D1D012053B11A69BE
:105260001D463068904239BF9A680120DA680020F4
:105270001346F3E790B1CA68AA4203D1C4E90035E6
:10528000204670BD284627F085FF336802699A42A0
:105290004FF00003F2D3C4E90003F1E72846F4E736
:1052A0002DE9F74300F1040805460E46836844469D
:1052B0004BB13268196991423ABFDA6823469A685D
:1052C0001C461346F4E7A04503D0326823699A428E
:1052D0002BD218201CF050FC36680023A04507464E
:1052E00000F110090661436124D16B691BB12A6981
:1052F0001369B3420AD34A4629466846FFF7A8FF16
:10530000DDE90042002A4ED0002C4AD1904548D019
:10531000106986422CBF002001204346394627F001
:105320003BFF6B6901336B613C4604F1140003B031
:10533000BDE8F0832369B34219D9EB689C420BD0D6
:10534000204627F027FF0369B34208D2C368002B29
:105350000ABF04462346002322461C46D2E74A469B
:1053600029466846FFF774FFDDE90034F4E71AD2F6
:105370002A69944208D0204627F0F0FE0369B34220
:1053800004D9E3685BB92246002006E04A46684635
:105390002946FFF75DFFDDE900020446B2E7024659
:1053A000FBE70120B9E7384627461CF00DFCBBE7B8
:1053B0002DE9F04F85B04FF47A6300F108060446FA
:1053C00004AD304645F8043D2946FEF746FF036824
:1053D000072B08D994F83830042B04D90027384615
:1053E00005B0BDE8F08FE36B002BF7D02046FEF749
:1053F0004DFE0028F2D04FF47A63E76B2946304621
:105400000393FEF72AFF03220178384640F6B87866
:1054100001F024FB40F6B773E76B2946304603934F
:10542000FEF71BFF04220178384601F017FB04F158
:10543000200704A9384641F8088DFFF731FFF3EE45
:10544000097A90ED007AB4EEE77AF1EE10FA07D51A
:1054500029463846CDF80C80FFF722FFD0ED007AC0
:105460000DF1100817EE903A002748F80C3D7A1D10
:1054700018F807100137E06BD2B201F0EFFA042FF1
:10548000F5D1E06B06220E21DFF854B03C304FF02E
:10549000DC0802F048FF94F838904FF47A6A074627
:1054A00009FB08B929463046CDF80CA0FEF7D5FE19
:1054B00001784846FEF70EFD94F83830E46B294633
:1054C00003FB08B830463C34CDF80CA0FEF7C5FE0F
:1054D0003B46027821464046FEF710FD7FE700BFBD
:1054E000EC2000240068FFF763BF73B50546C06B6E
:1054F00018B90026304602B070BD05220F210C30CD
:1055000002F0DFFE06460028F3D00024211DE86BE0
:10551000C9B201F0A9FA0DF804000134042CF5D148
:105520000321E86B01F0A0FA02A900F6E67041F849
:10553000040D05F12000FFF7B3FE009B0360D9E7DF
:105540000068FFF7D2BF436810B50C46FBB15A683C
:105550004260D2B1D1688B424FF0000113D1D160CB
:10556000926842B142604268D16809B14160FAE78D
:10557000926802B1426003F1100294E8030082E8ED
:105580000300184610BD9160F5E70260F3E71820AC
:105590001CF0F2FA0346EEE72DE9F0470D4680468F
:1055A0001031184616461F46FFF7CDFF2B78466090
:1055B000044603700023C0E90233E96829B10246BA
:1055C0003B464046FFF7E8FFE060AE68A1464FF07B
:1055D000000A26B306F110013846FFF7B4FF33780E
:1055E00005460370C0E902AAC9F80800C0F8049093
:1055F000F16829B102463B464046FFF7CDFFE8601F
:10560000B668A946E5E727F033FA21464046FEF79B
:10561000B0FD27F027FC27F06BFA27F0F1FA2046BF
:10562000BDE8F087436810B50C46FBB15A6842608C
:10563000D2B1D1688B424FF0000113D1D160926892
:1056400042B142604268D16809B14160FAE79268AC
:1056500002B1426003F1100294E8030082E8030003
:10566000184610BD9160F5E70260F3E718201CF0C2
:1056700083FA0346EEE72DE9F0470D4680461031E8
:10568000184616461F46FFF7CDFF2B7846600446A6
:1056900003700023C0E90233E96829B102463B46A2
:1056A0004046FFF7E8FFE060AE68A1464FF0000A11
:1056B00026B306F110013846FFF7B4FF33780546EC
:1056C0000370C0E902AAC9F80800C0F80490F168A4
:1056D00029B102463B464046FFF7CDFFE860B66879
:1056E000A946E5E727F0C4F921464046FEF750FDFC
:1056F00027F0B8FB27F0FCF927F082FA2046BDE836
:10570000F087000030B587B004460D4602F054F92A
:10571000474B0022236084F8392084F83A20EB6B51
:10572000E363FF2384F8383095F83930042B3ED1F9
:1057300004F1080005F10803984224D02369A16907
:105740000093CDE9011013B15A608B6803B1019346
:10575000002304F10C022361E361C4E905222969F5
:1057600069B16B46FFF718FF03469A6812BB636185
:105770000346DA6802BBA361EB692061E36100992B
:105780000298FEF7F6FC04F1200005F12003984290
:105790001DD195F8393084F8393095F83A3084F8CD
:1057A0003A30EB6BE36395F8383084F838302046B4
:1057B00007B030BD1346D8E71346DAE700990298E0
:1057C000FEF7D7FC204602F01FF927F019FAA36A6A
:1057D000226B0393CDE904201BB10021596093682B
:1057E00003B10493002304F12402A3626363C4E9B8
:1057F0000B22A96A69B103ABFFF73DFF03469A6824
:1058000062B9E3620346DA6852B923636B6BA06244
:10581000636303990598FEF7BBFCBAE71346EEE70E
:105820001346F0E703990598FEF7B2FCCAE700BFFC
:10583000FC6807082DE9F04F80469FB0B8B100F131
:105840003C03414D002703933946404601F056F989
:10585000014605A8FFF756FF05A802F01EF848B953
:10586000013705A8FEF7D4FADC35052FECD11FB0BF
:10587000BDE8F08F95F8D84064B30026AA57531CB2
:1058800011D005EB8603D96A19B103982AF0F2FB0F
:10589000A95711F0FF0408D101362B2EEED105A82F
:1058A000FEF715FCDCE70021F3E700209DF84E90A1
:1058B0009DF84CA09DF84DB002F000FD5B465246AD
:1058C0004946CDE90040404601F008FD322006F08F
:1058D000DDFBE1E7E6B205A83146FFF712F800224A
:1058E000314605A8FFF7BEFA0134082CF2D1E6B222
:1058F000002305A81A463146FFF7B1F800233146C8
:1059000005A81A46FFF714F901340C2CEFD1002436
:105910000022E1B205A8FEF7E2FB0134082CF7D122
:1059200005A8FEF7D8FB4FF47A7105A8FEF7FCFF37
:105930004FF6FF7105A8FFF70AF891E705A8FEF7F3
:1059400067FA27F05DF900BFEC200024124A00231B
:105950002DE9F0411846561E02F12C0702F1D80C31
:105960004FF0FF0E40F24C45D118F4180CEB030831
:1059700081F8D800F91804F801EF41F8040B41450B
:10598000F9D1DC33AB42EFD1044A00200449BDE831
:10599000F0411BF09FBE00BFEC200024000000245B
:1059A000393E0408002330B5036685B0C36B044656
:1059B000002B00F0EF818B1E132B00F2E781DFE854
:1059C00013F0F70085001501E501E501E501E501AA
:1059D000E50114003D004F0061007300A300C70003
:1059E000E500B50033014501C701A14B00F14001BD
:1059F0000090684603939F4B0293FEF7EAFB6846CC
:105A0000FEF79EFA9C4B009403939C4B04F15001CB
:105A100068460293FEF7EBFB6846FEF791FA2368AF
:105A200000209D6B02F04AFC01462046A847214613
:105A3000E06B01F0ACFB206E05B030BD904B00F187
:105A400040010090684603938E4B0293FEF7C1FB22
:105A50006846FEF775FA8C4B009403938B4BD5E7A1
:105A60008B4B00F14001009068460393894B0293F1
:105A7000FEF7AFFB6846FEF763FA874B009403938B
:105A8000864BC3E7864B00F14001009068460393C4
:105A9000844B0293FEF79DFB6846FEF751FA824B5A
:105AA00000940393814BB1E7814B00F140010090DA
:105AB000684603937F4B0293FEF78BFB6846FEF725
:105AC0003FFA7D4B009403937C4B9FE77C4B00F1A6
:105AD00040010090684603937A4B0293FEF779FBEE
