:020000040804EE
:1000000000000824198A0608658A060849060608B9
:100010004F060608550606085B06060800000000A5
:1000200000000000000000000000000039C00408CB
:10003000658A060800000000D3C00408E3C0040875
:10004000658A0608658A0608658A0608658A0608BC
:10005000658A0608658A0608658A0608658A0608AC
:10006000658A0608658A0608658A0608658A06089C
:10007000658A0608658A0608658A0608658A06088C
:10008000658A0608658A0608658A0608AD95060829
:10009000BD950608B9950608C9950608658A06083B
:1000A000658A0608658A0608658A0608658A06085C
:1000B000658A0608658A0608658A0608658A06084C
:1000C000658A0608658A0608658A0608658A06083C
:1000D000658A0608658A0608658A0608658A06082C
:1000E000658A0608658A060800000000658A060819
:1000F000658A0608658A0608658A0608658A06080C
:10010000658A060891870608658A0608658A0608D2
:10011000658A0608658A0608658A0608658A0608EB
:10012000658A0608658A0608658A0608658A0608DB
:10013000658A060847F00408658A0608658A060885
:10014000658A0608658A06080000000000000000B5
:10015000658A0608658A0608658A0608658A0608AB
:10016000658A0608658A0608658A0608658A06089B
:10017000658A0608658A0608658A06080000000088
:10018000658A0608658A0608658A0608658A06087B
:10019000658A0608658A0608658A0608658A06086B
:1001A000658A0608658A0608658A0608658A06085B
:1001B000658A0608658A0608658A0608658A06084B
:1001C000658A0608658A0608658A0608658A06083B
:1001D000658A0608658A0608658A0608658A06082B
:1001E000658A0608658A0608658A0608658A06081B
:1001F000658A0608658A0608658A0608658A06080B
:10020000658A0608658A0608658A0608658A0608FA
:10021000658A0608658A0608658A0608658A0608EA
:10022000658A0608658A0608658A0608658A0608DA
:10023000658A0608158A0608658A0608658A06081A
:10024000658A0608658A0608658A0608658A0608BA
:10025000658A0608658A0608658A0608658A0608AA
:10026000658A0608658A0608658A0608658A06089A
:10027000658A0608658A0608658A0608658A06088A
:10028000658A0608658A0608658A06080000000077
:10029000658A0608658A060810B5054C237833B9C7
:1002A000044B13B10448AFF300800123237010BD49
:1002B000A0180024000000003CA6070808B5034B66
:1002C0001BB103490348AFF3008008BD00000000E4
:1002D000A41800243CA60708154B002B08BF134B9D
:1002E0009D46A3F5803A00218B460F461348144AD9
:1002F000121A2FF035FE0F4B002B00D098470E4BF3
:10030000002B00D098470020002104000D000D486C
:10031000002802D00C4821F051F82FF01BF92000E2
:1003200029000EF09DF821F05DFA00BF00000800E2
:100330000000082400000000BDE30408A018002409
:10034000C80C0124BD1306080000000000207047FF
:10035000036810B504469B689847A368013BA360F7
:100360002BB923682046DB68BDE81040184710BD54
:100370000022C2607047C3680BB19B681847704782
:100380000021102210B504460170417004302FF096
:10039000E7FD204610BD000010B5044600F596703C
:1003A00021F0B6FC04F16C0021F008FE04F11C0001
:1003B00002F012FF054BA069636028B14368013B5E
:1003C00043600BB9FFF7C4FF204610BD406007082B
:1003D000014800F099BB00BFC0180024014800F09C
:1003E0001ABD00BFC018002410B504460021FFF755
:1003F000BFFF204610BD10B50446FFF7BCFF2046E6
:1004000010BD000038B5074B0546044645F8283BAB
:100410001DF0B8F82846FFF7EEFF20461DF0F4F96E
:10042000204638BDA88207082DE9F041044600F5B2
:10043000856600F5B66800F5D665134FA84505D06A
:1004400045F8407D2846FFF7DDFFF7E704F5A46097
:1004500021F05EFC04F59D6021F05AFC304621F04D
:10046000ADFD04F50A70FFF797FF04F5C87021F0A1
:100470004FFC04F1D00021F0A1FD04F13C0021F07B
:1004800047FC2046BDE8F081C08207082DE9F3470C
:10049000044605469A46164B04F14006884645F840
:1004A000043B28469146FFF79FFF0021304621F08C
:1004B00051FC04F15407384621F0EAFB0A9B4A46F6
:1004C000414620460093534621F0D6FC0CE03846C6
:1004D00021F01EFC304621F07CFC2846FFF78BFF04
:1004E0002CF000FAF6E7F8E7204602B0BDE8F08706
:1004F000589307082DE9F743044600254FF480522E
:10050000182104F1C00600952B46FFF7BFFF84F8C1
:10051000BC50304621F0BCFB04F1F80710222946FC
:1005200004F1E4002FF01CFD84F8F450384621F06B
:10053000AFFB04F58E70FFF723FFC4F83051294656
:1005400004F59A7000F078F9012104F5A47000F028
:1005500073F9022104F5AE7000F06EF9032104F581
:10056000B87000F069F904F5C4780325C14648461F
:100570001DF064F815F1FF3509F14009F7D2204666
:1005800003B0BDE8F083C5F10305DFF8309008EB58
:100590008515454505D045F8409D2846FFF732FFB3
:1005A000F7E7384621F0B4FB304621F0B1FB204696
:1005B00021F004FD2CF096F9F6E7F8E7C082070871
:1005C000F7B54FF47A72002500F11C060446C260AC
:1005D000011D3E4A056085604260C0E90555304610
:1005E00003F07CF904F16C0700952B464FF4805220
:1005F00018213846FFF74AFF84F8285104F5967011
:1006000084F8295121F044FB13E0384621F0D6FC50
:10061000304602F0E1FD2E4BA069636028B14368CB
:10062000013B43600BB9FFF793FE2CF05BF9EFE75A
:10063000F1E7002640220021C4F8505184F85451BB
:1006400004F5B07084F85551C4F85861C4F85C5191
:100650002FF086FC84F8A05184F8A15104F5D470E1
:10066000C4F8A461FFF78CFE0123204684F8BC5136
:1006700084F8D9314FF47A7384F8C05184F8C151A9
:1006800084F8C25184F8C35184F8C45184F8C55128
:10069000C4F8C851C4F8CC51C4F8D051C4F8D451EE
:1006A00084F8D85184F8DA51C4F8DC51C4F8E05128
:1006B000C4F8E451C4F8E851C4F8EC31C4F8F0517E
:1006C000C4F8F451C4F8F85103B0F0BD905B0708CA
:1006D000406007082DE9F743002500F13C08044677
:1006E00000260570457004F1D0078570C57005714E
:1006F0004571057445748574C57480F82C5080F874
:100700002D508563C0E90255C0E90555C0E907557C
:10071000C0E90955C0E90C55404621F0B9FA40221C
:10072000294684F8605084F8615004F16C006666D4
:10073000A5662FF015FC84F8AC5084F8AD5004F198
:10074000B400C4F8B060FFF71BFE00952B464FF4D1
:10075000805218213846C4E93255FFF797FE04F558
:10076000C87984F88C51484621F092FAC4F8E061C7
:1007700004F50A7684F8B451402284F8B55129462C
:10078000C4F8B85104F5F470C4F8BC51C4F8C051B1
:10079000C4F8C451C4F8C851C4F8CC51C4F8D051FD
:1007A000C4F8D451C4F8D85184F8DC5184F8DD5130
:1007B000C4F8E4512FF0D4FB3046FFF701FF07E007
:1007C000384621F0FBFB404621F0A2FA2CF08AF8D3
:1007D00004F58560FFF78EFE08E03046FFF7DCFD8C
:1007E000484621F095FAEBE7FAE7ECE7204684F873
:1007F000B05684F8B156C4F8B456C4F8B856C4F824
:10080000BC5603B0BDE8F08310B5054C2046FFF799
:1008100061FF2046034A0449BDE8104020F0CCBDEA
:10082000C01800240000002429040408014801F035
:1008300057BF00BF9C1F0024002303294FF0000274
:1008400001704370837003734373036198BF012386
:100850004260826098BF417083707047037B07EEEF
:10086000901A33B1F5EEC07AF1EE10FAC4BF00234E
:100870000373F5EEC07AF1EE10FA0AD4B7EE007AFF
:10088000F4EE477AF1EE10FA77FE277AC0ED027A9D
:100890007047DFED017AF9E70000000001230373E0
:1008A000002383607047406870478068704700008D
:1008B00007EE902AF8EE676ADFED1A7A86EEA77ADD
:1008C000DFED197AD0ED016A27EE277AD0ED027AB2
:1008D000D9B137EE267AB4EEE77AF1EE10FA77FE68
:1008E000877AC0ED017AD0ED017AF5EEC07AF1EEAB
:1008F00010FA14D4B7EE007AF4EE477AF1EE10FA5B
:1009000077FE277AC0ED017A704736EEC77AB4EEEB
:10091000E77AF1EE10FA58BFF0EE477AE1E7DFED43
:10092000037AEFE700007A44CDCC4C3E0000000093
:10093000D0ED017A07EE101A77EE277A90ED027A61
:10094000B4EEE77AF1EE10FACCBF01200020704738
:10095000D0ED017A07EE101A77EEC77A90ED027AA1
:10096000B4EEE77AF1EE10FA4CBF01200020704798
:100970004078704738B5837804460D4613B9002592
:10098000284638BD407800F0A9FC0028F7D0B5FA19
:1009900085F00121400900F04FFC012260781146EA
:1009A00000F0BAFB054610B101236373E8E76073FA
:1009B0000249034801F001F8E2E700BFCC5B0708F9
:1009C000E15B07080021FFF7D5BF0121FFF7D2BF88
:1009D000837810B5044683B1437B33B1002240785D
:1009E000114600F099FB0023637300F01BFC0146E5
:1009F00018B9BDE8104000F01FBC10BD00224260D5
:100A000082600022027342730261FFF7E1BFFFF7C9
:100A1000DFBF000030B5002404704470002444603F
:100A200014786CB3B3EE027AD2ED017AF4EEC77AA1
:100A3000F1EE10FA0CDB4C6804B94B604C681C1BDF
:100A4000B4F5FA6F24BF01240C7000248C6015E00B
:100A50000C7814B3B2EE087AF4EEC77AF1EE10FA1D
:100A60001BD88C6804B98B608C6842F20F751C1B14
:100A7000AC424FF0000488BF0C704C6054787CB9D5
:100A80004C788CB1CC6804B9CB60CC681B1B1A4C79
:100A9000A34284BF00234B7006E000244C60D5E7DE
:100AA00001234B700023CB600B7813B1012303703B
:100AB00030BD4B78002BF9D192F84C10037009B976
:100AC0000E4B0BE0F3EE077A92ED147AB4EEE77A70
:100AD000F1EE10FA04DD01234370094B4360E7E7B0
:100AE00092ED157ADFED077AB4EEE77AF1EE10FABF
:100AF000F1DC4370E4E700BFDF930400CDCC4C3E53
:100B00006666263F00009C422DE9F04104461F4ED8
:100B100040F2DC514FF4E13004F13C0500F052FFAB
:100B20001B49304600F044FF04F58567284604F56C
:100B30000A7800F091F9174806F0E4FC00F096FB03
:100B4000384600F035FC294604F1CC0001F070FA7B
:100B50002946404601F0A0FB404601F08DFD384695
:100B600000F09CFE0C49304600F022FF0123237068
:100B700000236370A370E370237163710BF0E6F8D8
:100B8000A0600BF0E3F8E060BDE8F081445C07088A
:100B90003C5C070884240024515C07082DE9F041DF
:100BA0008CB000F1CC0804460A4604AD04A80F46F8
:100BB000414600F0C4FF04F110060FCD0FC695E8C2
:100BC00007006D4686E8070004F50A71284601F023
:100BD00098FB04F12C0695E80F0086E80F00636986
:100BE000002B39D10123A370236B002B3CD10123AF
:100BF000E370A3783BB123792BB92D492D4800F040
:100C0000DCFE01232371A37803B92371E3783BB1A0
:100C100063792BB92849274800F0CFFE012363717F
:100C2000E37803B963713946404600F069FFA37861
:100C300013B9E37803B9E37C2278012A1CD1002898
:100C400033D093BB02231D496270237019480CB046
:100C5000BDE8F04100F0ACBEFB1A40F6B83293425A
:100C600094BF00230123BEE7FB1A40F6B83293423B
:100C700094BF00230123BBE7022A0CD100B1A3B12A
:100C800003230F490B482370002363700CB0BDE8A9
:100C9000F04100F092BE032A07D130B12BB90223F4
:100CA0000849237001236370D0E70CB0BDE8F081E0
:100CB000F35B0708445C0708095C07081D5C07082C
:100CC000295C0708325C07082DE9F04100F13C0877
:100CD000A4B004460A460E460DA8414602AD00F0F7
:100CE0003FF900238DF808308DF809300023039375
:100CF00063786BB36F4604F5D66133460DAA384668
:100D0000FFF788FE97E8030085E80300039B9DF842
:100D1000087004930593069307932FB110220021C6
:100D20000DEB02002FF01CF904F585643A4604A986
:100D3000204600F082FB214608A800F095FB3346D0
:100D40002A4608A9404600F08CF924B0BDE8F0819D
:100D500001238DF80830D9E730B5C1B004460A4602
:100D600000F13C0125A800F047F904F1CC010DA8E1
:100D700000F03EFE684600F0BFFA00230DAA1A44B8
:100D800092F82020002A44D11433502BF6D10125AB
:100D9000162200210DEB02002FF0E2F82378A27852
:100DA00004A98DF8103063788DF815208DF8113076
:100DB0009DF840308DF8135083F001038DF8123008
:100DC000E37C002B08BF13468DF81430636906934B
:100DD000236A0793636A0893A36A04F50A74099364
:100DE00020469DF801308DF828309DF803308DF8AD
:100DF00029309DF804308DF82A30029B0B93039B19
:100E00000C9301F069FA25A9204601F04FFA41B090
:100E100030BD0025BCE738B504460AF097FF05460B
:100E200000F05AF920462946FFF7B8FEA368EB1AEE
:100E3000B3F5FA6F04D329462046FFF745FFA560B6
:100E4000E36847F22F52EB1A934204D92946204611
:100E5000FFF782FFE56038BDF0B5044687B020F0AB
:100E60001FFF0023254604F14006E362C4E909336D
:100E700005F130001035102200212FF071F8B54235
:100E8000F6D10027002301AE102263673946A4F88B
:100E9000707002A8019704F178052FF061F80FCE69
:100EA0000FC5336820462B60C4F88C7007B0BDE8CE
:100EB000F04020F013BF38B505460C4620F0F0FE98
:100EC00005F1240394E8070083E807002846BDE8FD
:100ED000384020F003BF10B5044620F0E1FE0023A7
:100EE000204684F82430BDE8104020F0F7BE0329E6
:100EF00070B506460C4615460DD8033420F0D0FEDA
:100F000006EB041495E80F0084E80F003046BDE8B6
:100F1000704020F0E3BE70BD032938B505460C468D
:100F20000AD8033420F0BCFE0023284624012B55A8
:100F3000BDE8384020F0D2BE38BD10B5044620F0E0
:100F4000AFFE0023204684F8303084F8403084F827
:100F5000503084F86030BDE8104020F0BFBE000083
:100F6000F8B50F460446002115460C304C222EF0F1
:100F7000F7FF3846A56520F093FE07F1240300260D
:100F800093E8070084E80700BB19A5191036303331
:100F90000C35402E0FCB85E80F00F5D1384620F0F8
:100FA0009DFE9FED147A224604F14001F0EE476A5F
:100FB0000023107B48B1D2ED047A013376EEA76AA4
:100FC000D2ED057ADBB237EE277A10329142F0D1BA
:100FD00073B107EE903A0122F8EE677A84F84C205C
:100FE00086EEA76AC7EE276A84ED146AC4ED156A17
:100FF0002046F8BD00000000F8B506460F4615462D
:1010000000214022344610302EF0AAFF384644F822
:10101000045B20F045FE07F12403002593E8070058
:1010200084E807007B197419103530331034402DD3
:101030000FCB84E80F00F5D107F1700206F15003E1
:1010400007F1780506F1580492E8030083E80300ED
:101050000FCD0FC42B683846236020F03FFE30468A
:10106000F8BD2DE9F04106460C461746984606F1B4
:10107000780520F015FE0FCC0FC523682B6006F114
:10108000700397E8030083E80300C6F88C803046BD
:10109000BDE8F04120F022BE70B50C48002405F0F8
:1010A00012FC0A4E0546AC420EDAE1B2304605F0BB
:1010B00001FC0238012805D80120054B1870054BAA
:1010C000187070BD0134EEE70020F6E78424002498
:1010D000861F0024871F002408B50AF037FE0A4B3C
:1010E0001B7883B9094A41F287311368C31A8B42CE
:1010F00009D91060FFF7D0FF28B105490548BDE8C0
:10110000084000F055BC08BD861F0024881F00243D
:10111000755C0708855C070803282DE9F04705463C
:101120000C46174601D900200BE01AD058B901200F
:101130000AF0E6FE214609200AF0E2FE294B0120D2
:101140005C55BDE8F087012805D102200AF0D8FEE1
:1011500021460820F0E703200AF0D2FE214699201C
:10116000EAE7214B1B7813B1204B1B78A3B9204B26
:1011700000221A7001221F4B1A701F4A1368013394
:1011800013601E4A136801331360002FCBD01C4933
:101190001C4800F012FCC6E71B48002605F093FB34
:1011A000DFF864A08146B145E1DD3146504605F0E7
:1011B0002FFB8046A0B1036841F6527122461B699D
:1011C0009847D8F80030012140461B6A984738B943
:1011D000074B01221A70074B1870084B1860ADE7D7
:1011E0000136E0E7821F0024861F0024871F0024A9
:1011F00004000024941F00248C1F0024901F00244E
:10120000625C0708855C07088424002410B500246C
:101210000022E0B201341146FFF77EFF042CF7D123
:1012200010BD00000023034A985C10B90133042B61
:10123000FAD17047821F002438B504460A4D39B1EF
:101240002B78834204D0FFF7EDFF08B1FFF7DEFFF4
:10125000214600202C700AF053FE214607200AF098
:101260004FFE012038BD00BF811F002408B50121B9
:1012700000200AF0C1FD012107200AF0BDFD012177
:1012800008460AF0B9FD012109200AF0B5FD012147
:1012900002200AF0B1FD012108200AF0ADFD012174
:1012A00003200AF0A9FD012199200AF0A5FD0021E3
:1012B0000846FFF7C1FFFFF7A9FFFFF7EDFE044B5C
:1012C0000122044904481A70BDE8084000F070BBD0
:1012D000801F002400860708855C0708022805D9BE
:1012E000034B187818B1034B1878704701207047EA
:1012F000861F0024871F0024002242600A4A1278B9
:1013000002700A4A12784270094A12788270094AB9
:101310001278C270084A12780271084A1268826014
:10132000074A1268C2607047801F0024861F00248D
:10133000871F002404000024941F00248C1F002415
:10134000901F002470470B6803604B6843608B68F4
:101350008360704708B5142303FB010000F59A7001
:10136000FFF706FB0022BDE808401146FFF7D4BE98
:101370000021FFF7EFBF0121FFF7ECBF0221FFF7CC
:10138000E9BF0321FFF7E6BF10B5044600F5C470BE
:101390001CF0F8F804F5E4701CF0F4F804F50270A1
:1013A0001CF0F0F804F51270BDE810401CF0EAB82B
:1013B0002DE9F041044686B0FFF7E6FF102504F55D
:1013C0009A7004F1C006FFF719FB04F5A470FFF74B
:1013D00015FB04F5AE70FFF711FB04F5B870FFF7CD
:1013E0000DFB0027304604F1F80820F059FC2A468E
:1013F000002104F1E4002EF0B3FD304684F8F470CF
:1014000001AE20F06BFC404620F04AFC2A463946EB
:1014100002A8019704F58E752EF0A2FD0FCE0FC520
:10142000336840462B600123C4F8307184F81C31C6
:1014300006B0BDE8F04120F051BC2DE9F04100F1CB
:10144000C00706460D469046384606F1E40420F0F3
:1014500027FC95E80F0084E80F0086F8F4803846F2
:10146000BDE8F04120F03ABCF8B50C4601F1F807B0
:10147000064604F58E74384620F012FC35460FCC33
:101480000FC5236838462B6020F028FC3046F8BD95
:1014900010B4D0E9003409686210E4075DF8044B29
:1014A00001EB020044BF8A58D35818470146043064
:1014B00008B5FFF7EDFF08BD034A0346C26007C940
:1014C00083E80700704700BF8C5C070810B586B042
:1014D00004460391684606A980E80C0001E90C0067
:1014E000204603A9FFF7E8FF204606B010BD37B538
:1014F0006C46054684E80C0094E80C00FFF7E6FF14
:10150000284603B030BD00000329F0B504468DB075
:101510000D4616465BD8002A59D000EB811000F525
:10152000C4701CF02FF84FF47A72022DA6FB0267EC
:1015300027D0032D37D0012D4FF0000310D0294ABA
:10154000214608A8CDE900236B460CCBFFF7CFFF5F
:1015500032463B4608A904F5C4701CF02EF833E06F
:10156000214A214608A8CDE9022302AB0CCBFFF7A4
:10157000BEFF32463B4608A904F5E4701CF01DF896
:1015800022E01A4B214608A804930023059304ABDC
:101590000CCBFFF7ACFF32463B4608A904F50270BE
:1015A0001CF00BF810E0124B214608A8069300230C
:1015B000079306AB0CCBFFF79AFF32463B4608A9D0
:1015C00004F512701BF0F9FF08A8FEF714FF0DB028
:1015D000F0BD08A8FEF70FFF2BF084F9F9E7F8E754
:1015E000F7E700BF71130408771304087D1304089C
:1015F000831304082DE9F04F04462DED028B9FED77
:10160000A38A93B0BFF35B8F94F8BC3004F59A764D
:10161000BFF35B8F002B00F0198104F1C0070AF0C3
:1016200095FB029009AD3846B04620F039FB04F135
:10163000E403B1460FCB85E80F0094F8F430384648
:101640000027019320F04AFB019B002B00F0E18072
:101650004846FFF723F9013709F11409042FF3D1A4
:101660000023B24699461D461F46CDE90533CDE914
:101670000733019B002B00F0D3805046FFF713F98E
:1016800007EE900A06AAF4EEC87AF1EE10FACCBF83
:1016900001230023002D08BF1D4602F8093009F17F
:1016A00001090AF1140AB9F1040FE2D1DFB34FF0D6
:1016B00000094FF0140A0DF11C0B05AB5FFA89F11C
:1016C00013F809206AB10AFB09600391FFF77AF960
:1016D000039930B10122204609F80B200A22FFF7B6
:1016E00013FF09F10109B9F1040FE6D10A2020F036
:1016F00087FBFFF797FD014608B9FFF79DFD4FF007
:1017000000090DF11C0A4FF0140B19F80A302BB127
:101710000A2201210BFB0960FFF7CAF809F1010950
:10172000B9F1040FF1D1DDB34FF000090DF1200A3A
:101730004FF0010B06AB5FFA89F113F809206AB18B
:101740001423039103FB0960FFF73FF9039928B1C4
:1017500009F80AB00A222046FFF7D6FE09F101096E
:10176000B9F1040FE6D10A2020F04AFBFFF75AFD39
:10177000014608B9FFF760FD4FF000090DF1200A9E
:101780004FF0140B19F80A302BB10A2200210BFB81
:101790000960FFF78DF809F10109B9F1040FF1D1E2
:1017A0000EAE04F5C279122200210DF136002EF0A2
:1017B000D7FB404608F11408FFF777F846F8040B0A
:1017C000C145F6D104F1F80804F58E76404620F0C4
:1017D00067FA01230DF1340C8DF834309DF8043094
:1017E0008DF83530BCE80F000FC6DCF800304046FD
:1017F0003360029BC4F8303120F070FA002F40D1E2
:10180000002D14BF0A200020C0F1140020F0F8FAC7
:10181000F8E605EB870348461968FFF71FF81AE753
:101820001B495046FFF784F805AB8346184909F871
:1018300003005046FFF78CF806AB002F08BF5F4649
:10184000002D08BF054603F8090028E72046FFF7EA
:101850009BFD3046FFF7DBF804F5A470FFF7D7F8DF
:1018600004F5AE70FFF7D3F804F5B870FFF7CFF8C2
:101870000849094813B0BDEC028BBDE8F04F00F0F9
:1018800097B8002D7FF4BEAE0A20BDE76F12833AF1
:101890000AD7A33C985C0708A05C070810B5BFF303
:1018A0005B8F90F8BC3086B00446BFF35B8F03F0CB
:1018B000FF02B3B90123BFF35B8F014680F8BC3050
:1018C000BFF35B8F0A4B02A8CDE900326B460CCB0D
:1018D000FFF70DFE02A9204620F098FB02A8FEF7B4
:1018E0008AFD06B010BD02A8FEF785FD2AF0FAFFBA
:1018F000F515040808B5FFF7D9FD08BD08B5FFF7D1
:10190000F9FF08BD012806D0044B054A02280CBF88
:101910001846104670470348704700BFB95C070877
:10192000AF5C0708B45C07081B4B1B68F0B50746A3
:10193000E5B00C46154633B3182104A89847002695
:1019400038468DF82760FFF7DDFF144B4FF4B47174
:1019500000900AA8B44208BF1C46114B114AB54278
:1019600008BF1D4604ABCDE901452EF01BFD0E4816
:101970008DF88F6108F076FB18B10AA90A480AF0C1
:1019800027F965B0F0BD0AF0E1F9084A03461821CD
:1019900004A82EF007FDD2E7981F0024BF5C0708BB
:1019A000848C0708CA5C0708EC2F0024C45C070875
:1019B0000A4601460020FFF7B7BF0A46014601204C
:1019C000FFF7B2BF70B50C460146084808F02EFD7F
:1019D000064E0AF0BBF90546304608F043FB20B935
:1019E0000AF0B4F9401BA042F6D370BDEC2F0024DE
:1019F0002DE9F0470D460446012688B05422002107
:101A00000C3005F1C4092EF0ABFA84F8206084F89C
:101A1000346084F8486084F85C600AF097F9804686
:101A2000484620F03DF905F5887201AB07CA83E806
:101A3000070084E8070023789BB34AB1424507D8E2
:101A400047F23053A8EB02029A4294BF00230123CD
:101A5000274605F1400E04AE43F6982A237305F598
:101A60008E7307F1100C0FCB86E80F008CE80F0087
:101A70003A7CC2B1FB693BB1434505D8A8EB0303EF
:101A8000534594BF00220122103587F820201437D7
:101A90007545E4D1484620F021F9204608B0BDE85C
:101AA000F0873346D4E70122EEE7D0F8F40050B1D6
:101AB000884207D8091A47F2305081428CBF002073
:101AC0000120704700207047D0F8F80050B18842DC
:101AD00007D8091A43F6982081428CBF00200120C4
:101AE000704700207047D0F80031022B06D8D0F89C
:101AF0000401022894BF0020012070470120704794
:101B0000F8B500F1C40605460F46304620F0C8F887
:101B100039462846FFF7C9FF044658B139462846DA
:101B2000FFF7D2FF044628B12846FFF7DCFF80F01C
:101B30000100C4B2304620F0D1F82046F8BDF8B517
:101B400001F1C4060D4604461746304620F0A8F8B9
:101B500095F8E830394628462370D5F8F0306360B0
:101B6000D5F8F430A360D5F8F830E360D5F8FC3050
:101B70002361D5F800316361D5F80431A361FFF723
:101B800094FF394660702846FFF79EFFA0702846F4
:101B9000FFF7A9FFE070304620F0A0F82046F8BD1E
:101BA00038B500F1C4040546204620F079F80AF063
:101BB000CDF8C5F8F0002046BDE8384020F08EB8DA
:101BC000F8B514460D460D4F0646023CFFF7E8FFF8
:101BD00004EB4505AC420FD03046FFF7E1FF074864
:101BE00006F019FE48B1384606F017FE24F8020F39
:101BF0003046FFF7D5FFEDE70120F8BD402B00246C
:101C00002DE9F341089D06460F4690461C4695B1C6
:101C10008BB1FFF7C5FF00944346022239460848BE
:101C200006F0B2FD38B12A462146304602B0BDE882
:101C3000F041FFF7C5BF002002B0BDE8F08100BF52
:101C4000402B00242DE9F341089D06460F4690469F
:101C50001C4695B18BB1FFF7A3FF009443460322C6
:101C60003946084806F090FD38B12A4621463046EC
:101C700002B0BDE8F041FFF7A3BF002002B0BDE80D
:101C8000F08100BF402B00242DE9F0418AB00446CA
:101C90000D46904606AB1022002118462EF060F942
:101CA00008230090122214212046FFF7CBFF06469E
:101CB000C0B304F1C40704F5887438461FF0F0FF80
:101CC000BDF81820BDF81A309FED187A43EA024398
:101CD000BDF82420C4F8088007EE903ABDF82630FD
:101CE000F8EEE77A43EA02430122C7EE876A07EE7D
:101CF000903A2270F8EEE77AC4ED016AC7EE876A7F
:101D0000F5EEC06AF1EE10FACCBF13460023637003
:101D100003AB94E8070083E8070085E8070038462E
:101D20001FF0DCFF30460AB0BDE8F08100007A44C5
:101D30002DE9F043D0F8083142F20F7285B0044625
:101D4000CB1A8846934227D901AD0027C4F8081161
:101D50000A462946019704F1C406C5E90177FFF751
:101D600093FF81463046B9F1000F18D11FF098FF5C
:101D7000D4F8FC30D4F800513046013384F8109187
:101D80000135C4F8FC30C4F800511FF0A7FF022D44
:101D900002D92068FFF79FF805B0BDE8F0831FF077
:101DA0007FFF04F5887395E8070083E80700304655
:101DB0001FF094FF29462068FFF77DF830461FF09A
:101DC0006FFFC4F8F480C4F8007130461FF086FF3E
:101DD000E2E7000003292DE9F043164689B00546E5
:101DE000894698464FF000023ED8002E3ED008AB00
:101DF0001F4943F8142D11F8091000930223FFF72F
:101E0000FFFE044660B305F1C40738461FF048FFE3
:101E1000012105EB0912DFED176A04AD82F81C11F0
:101E200002F58E73BDF80C10C2F8288107EE101A67
:101E3000BDF90E1007EE901AB8EE477AF8EEE77A81
:101E400027EE267A67EEA67A82ED497AC2ED487AC5
:101E50000FCB85E80F0086E80F0038461FF03EFFE5
:101E6000204609B0BDE8F0831446F9E73446F7E7A9
:101E7000E85C0708CDCCCC3D2DE9F04FD0F80C3113
:101E800041F2873287B00446CB1A894693424AD939
:101E9000002602AF00F1C408C4F80C11CDE90066B9
:101EA0005FFA86FB1022002138462EF059F84B4687
:101EB0003A46594620463501FFF78CFF8246404698
:101EC000BAF1000F32D125441FF0EAFE404685F8F2
:101ED0001CA11FF003FF59462068FFF71DF80123DE
:101EE00001930136042EDBD140461FF0D9FE009B42
:101EF00083B30023C4F8F890C4F80431D4F8045133
:101F0000022D08D9002384F81C3184F82C3184F880
:101F10003C3184F84C3140461FF0E0FE022D02D9DE
:101F20002068FFF70AF807B0BDE8F08F25441FF0DE
:101F3000B7FE05F58E7597E80F0085E80F0040465F
:101F40001FF0CCFE3A4659462068FEF7D0FFCDF888
:101F500000A0C6E7019B002BD0D0D4F8FC20D4F819
:101F6000043101320133C4F8FC20C5E738B504461A
:101F7000BFF35B8F94F8C030BFF35B8FD3B12046C3
:101F8000FFF70EFE09F0E2FE05462046FFF708FEC9
:101F900029462046FFF7CCFE2046FFF701FE2946E2
:101FA0002046FFF769FF2046FFF7FAFD14201FF0D7
:101FB00027FFDDE738BD10B4D0E9003409686210AE
:101FC000E4075DF8044B01EB020044BF8A58D35884
:101FD00018470146043008B5FFF7EDFF08BD0000C3
:101FE000034A0346C26007C983E80700704700BF81
:101FF000DC5C070810B586B004460391684606A964
:1020000080E80C0001E90C00204603A9FFF7E8FF77
:10201000204606B010BD37B56C46054684E80C0076
:1020200094E80C00FFF7E6FF284603B030BD00003F
:1020300070B506460546002486B046F8C41B3046F7
:102040001FF02EFE85F8E84085F8E940C5F8FC4011
:10205000C5F80041C5F80441C5F80841C5F80C4170
:10206000C5F81041C5F81441C5F81841C5E93B440D
:10207000C5E93D4405EB041001341022002100F5B0
:102080008E702DF06DFF042CF4D130461FF026FE2B
:1020900040F2DC52C821134807F04CFD40F21342D5
:1020A0004FF41651104806F029FCC8210E4806F0DE
:1020B000D0FB0E4B294602A80093002301936B46E8
:1020C0000CCBFFF7A8FF02A9281D1FF09FFF02A855
:1020D000FEF791F906B070BD02A8FEF78CF92AF060
:1020E00001FC00BFB82B0024402B00246D1F040806
:1020F00008B5FFF76EFF08BD08B5FFF7F9FF08BD8B
:10210000BFF35B8F0078BFF35B8F003018BF0120F7
:10211000704700002DE9F04F0446B1B01C301D4659
:1021200004F5967990468B4601F081F905212090BF
:1021300004F22910FFF7E4FF824648461FF0B0FD85
:1021400094F8C031D4F8DC114846219394F8C13199
:102150002F91229394F8C231D4F8C861239394F854
:10216000C331D4F8F071249394F8C431259394F8D2
:10217000C5312693D4F8CC312793D4F8D0312893A5
:10218000D4F8D431299394F8D8312A9394F8D931DA
:102190002B9394F8DA312C93D4F8E0312D93D4F8C2
:1021A000F4312E93D4F8F8411FF098FD9FED387A62
:1021B000284605F1400C0023F0EE476A2F99027C77
:1021C0004AB1D0ED057A013376EEA76AD0ED067AF2
:1021D000DBB237EE277A10306045F0D13BB107EE25
:1021E000903AF8EE677AC6EEA76A87EE277A2D9ABC
:1021F00058462B689E42B7EEC77A94BF9E1B0026B6
:102200009F42119694BFDF1B0027CDE91D122C9A27
:1022100041461C922B9A1B922A9ACDE919422E9A7A
:10222000CDE917A2209A1692299A1592289A14920B
:10223000279ACDE91272269A1092259A0F92249A23
:102240000E92239A0D92229A95ED155A0C92219A8C
:10225000B7EEC55A8DED067BB7EEE67A0B9295F890
:1022600050208DED047B95ED027A0A92B7EEC77A85
:102270006A798DED085B0292064A8DED007B2EF0A7
:1022800091F8804594BF0020012031B0BDE8F08F67
:1022900000000000A45D070840F81C1B40F25B72C0
:1022A000014901F0FFBA00BF965D070870B500F55F
:1022B000967504460E4628461FF0F2FC314604F59A
:1022C000A8706C222DF04EFD0123284684F8BC3105
:1022D000BDE870401FF002BD70B500F5967604466B
:1022E0000D46304604F5E0741FF0DAFC0FCD0FC444
:1022F0000FCD0FC42B6830462360BDE870401FF03F
:10230000EDBC70B5002301F596760D46044643807A
:1023100030461FF0C5FC05F11C0001F088F80521CE
:10232000207005F22910FFF7EBFED5F8F031607050
:1023300030466360D5F8F431A360D5F8F831E36036
:102340001FF0CCFC204670BD38B500F596740546EC
:1023500020461FF0A5FC09F0F9FCC5F8F001204665
:10236000BDE838401FF0BABC38B50446FFF7ECFFB3
:102370004FF47A634EF660221149124800F002FAD7
:10238000054620466DB9FFF7DFFFBFF35B8F0E49AF
:1023900084F82951BFF35B8F0C48BDE83840FFF744
:1023A0000CBBFFF7D1FF0123BFF35B8F084984F813
:1023B0002931BFF35B8F0548BDE83840FFF7F8BA15
:1023C000050000249C1F0024F85C0708045D070832
:1023D0000C5D070838B504460D4600F229100521AA
:1023E000FFF78EFE68B9D4F8E43141F28732EB1A78
:1023F00093420ED9C4F8E4512046BDE83840FFF7B7
:10240000B3BF2046FFF7A0FF2046BDE83840FFF7E6
:102410009BBF38BD70B500F11C0504460E4628462A
:1024200001F005F818BB052104F22910FFF768FE3A
:10243000E8B1D4F8E831D4F8EC21F31A934216D37A
:102440002046C4F8E861FFF77FFF194B194A284678
:10245000194901F00BF958B12046FFF775FF1749EC
:102460001748FFF7A5FA4FF47A73C4F8EC3170BD42
:10247000204604F59675FFF767FF12491048FFF7ED
:102480009CFA28461FF00CFCD4F8F431284601339E
:10249000C4F8F4311FF022FCD4F8EC3147F230528A
:1024A0005B00934294BFC4F8EC31C4F8EC21DEE742
:1024B000175D07083D5D07082F5D0708425D0708A7
:1024C0004C5D0708585D070870B50446ADF51C7DE6
:1024D0006C22002104F5967501A82DF041FD2846D7
:1024E0001FF0DEFB94F8BC6146B16C2204F5A871C4
:1024F00001A82DF037FC002384F8BC3128461FF0DA
:10250000EDFB96B304F11C06304600F090FF60B37B
:1025100001AB4FF400721CA92046FFF7FBFD20B36E
:102520002046FFF711FF00231CAA1349304601F093
:10253000A4F9E8B92046FFF707FF10491048FFF754
:102540003CFA28461FF0ACFBD4F8F8316C2201A904
:10255000013304F5A870C4F8F8312DF003FC012311
:10256000284684F8BC311FF0B9FB0DF51C7D70BD09
:102570002046FFF7E9FEF8E7675D0708875D070873
:102580004C5D0708F8B5044600F5947600F229176B
:1025900005213046FFF7B4FD88B32046FFF7D4FE8F
:1025A00009F0D4FB05462046FFF7CEFE294620461B
:1025B000FFF710FF2046FFF7C7FE29462046FFF72A
:1025C00029FF05213846FFF79BFDA0B104F11C054A
:1025D000284600F02CFF70B12046FFF7B5FE2846D4
:1025E00001F052F82046FFF7AFFE2046FFF76CFFE0
:1025F0002046FFF7A9FE14201FF002FCC8E7F8BD33
:1026000010B4D0E9003409686210E4075DF8044BA7
:1026100001EB020044BF8A58D358184701460430E2
:1026200008B5FFF7EDFF08BD034A0346C26007C9BE
:1026300083E80700704700BFEC5C070810B586B060
:1026400004460391684606A980E80C0001E90C00E5
:10265000204603A9FFF7E8FF204606B010BD37B5B6
:102660006C46054684E80C0094E80C00FFF7E6FF92
:10267000284603B030BD000010B5052186B00446E1
:1026800000F59470FFF73CFDC8B92368BBB1012386
:10269000BFF35B8F214684F82831BFF35B8F0B4B70
:1026A000CDE900306B4602A80CCBFFF7D8FF02A99A
:1026B00004F16C001FF0AAFC02A8FDF79CFE06B016
:1026C00010BD02A8FDF797FE2AF00CF98525040835
:1026D00008B5FFF7A3FF08BD08B5FFF7F9FF08BD70
:1026E000D0F88C0018B1036853F88C3C184470473C
:1026F00070B5074B044605460E4644F8043B0B1DD7
:102700000FCB84E80F00337D28462B7570BD00BFCA
:10271000306E0708D0F88C0008B520B103681B6E36
:102720009847012800D0022008BD70B5044616461F
:1027300029B1D0F88C30586803685B69984709F074
:1027400005FB0546D4F88C00002103685B6E9847B2
:10275000D4F88C0003681B6D984709F0F7FA401B0A
:10276000B04208D22046FFF7D5FF012803D00A2047
:1027700009F0FEFAF1E72046FFF7CCFF431E58426E
:10278000584170BD2DE9F0410446D0F88C000D464B
:1027900016461F4658B103680121DB6C98473B463B
:1027A000324629462046BDE8F041FFF7BEBFBDE8EE
:1027B000F08110B50446006808B11FF096F8204675
:1027C00010BD00000B4B10B5044640F8643BFFF70A
:1027D000F0FF04F14C00FFF7ECFF04F13400FFF7C9
:1027E000E8FF04F11C00FFF7E4FF201DFFF7E1FF05
:1027F000204610BD0C6007082DE9F0410022054677
:102800001E4B0446114645F8043B284618F086FB4B
:1028100004F11C0600223046114618F07FFB04F13B
:10282000340700223846114618F078FB04F14C08B2
:1028300000224046114618F071FB002204F16400AA
:10284000114618F06BFB10E04046FFF7B2FF384628
:10285000FFF7AFFF3046FFF7ACFF2846FFF7A9FFB1
:102860002AF040F8F3E7F5E7F7E70023204684F87D
:102870007C30C4F88030BDE8F08100BF0C600708F0
:1028800038B518F024F998B1A0F1C404094D2846D0
:10289000FFF7B2FF084BC5F88C4028462B60002399
:1028A000064A85F888300649BDE838401EF084BDE8
:1028B0000446EBE79C1F0024186007080000002472
:1028C000C5270408006918B18068003018BF0120CE
:1028D0007047000003692DE9F041044686B00E46BA
:1028E000904613B903689B6B9847256901AC2B6828
:1028F0009F68084B0093331D0FCB84E80F00337D96
:102900004246694628468DF81430B84706B0BDE8FF
:10291000F08100BF306E0708036970B504460D46AC
:10292000164613B903689B6B9847206932462946BF
:102930000368BDE87040DB6818477047C06810B195
:1029400003685B68184770470020704710B504465D
:1029500010211EF0B7FF204610BD08B5FFF7F6FFA7
:1029600008BD006908B100F09AB97047006908B164
:1029700000F0E7B97047006908B100F00FB970477F
:10298000006908B100F0F0B87047006908B100F0C4
:1029900085B97047006908B100F00BB9704700694C
:1029A00008B100F009B94FF0FF307047006908B175
:1029B00000F02FB97047006908B100F064B94FF01A
:1029C000FF307047036810B504469B689847A368BA
:1029D000013BA3602BB923682046DB68BDE81040AB
:1029E000184710BD38B504464FF4AA701EF036FFE4
:1029F000054600F0BBF910201EF030FF012203460F
:102A0000C5602561C0E90122124A02606069636104
:102A100090B92368204625695B6B9847686038BD8C
:102A200029F098FE2B6828465B6898472AF08CF8B6
:102A300029F0D0FE29F056FF4368013B4360002B8C
:102A4000E7D1FFF7BFFFE4E74FF4AA7128461EF075
:102A500039FFEFE7246007080121D0F848011FF093
:102A6000B3B800002DE9F0410446C0B04FF00108B2
:102A70002E4FA3684BB32D4D01236422FF21D4F8C0
:102A800048011FF0C2F8D4F84C011FF009F9A06802
:102A9000D8B1D4F81431B3F5807F0AD1D4F84C0101
:102AA0001FF01CF909F076F9BD42ECD0002DEADCEC
:102AB000DFE7D4F8142169460368C2F580725B69C8
:102AC0009847061E07DABE4206D0002384F8183164
:102AD00040B0BDE8F08107D109F05CF9D4F84C01B1
:102AE0001FF0FCF83546DFE70025D4F81431B3F5C4
:102AF000807F10D0D4F80C311DF8052023441A73C0
:102B0000D4F80C310133DBB2C4F80C31D4F81431F1
:102B10000133C4F814310135AE42E6D1D4F84C018A
:102B20001FF0DCF884F81881ADE700BF47F4FFFF21
:102B30000C30704738B500250446112240F8045B7C
:102B400029462DF00DFAE582204638BD08B503462A
:102B500090F8180138B1586803681B6E984701282F
:102B6000CCBF0020012008BD70B5054680680C462A
:102B7000164690B10368D5F850111B6B9847A868AA
:102B80002146324603681B6998470446A86800211D
:102B90000368DB6A984724EAE47070BD07B502ABAE
:102BA000012203F8011D1946FFF7DEFF03B05DF8AF
:102BB00004FBD0F81401704738B58368044653B15C
:102BC000D0F84C011FF06CF8D4F8143133B9D4F8B4
:102BD0004C011FF083F84FF0FF3515E0D4F81431A5
:102BE000A3B1D4F8103123441D7BD4F81031013344
:102BF000DBB2C4F81031D4F81431013BC4F81431FD
:102C0000D4F84C011FF06AF8284638BD4FF0FF3564
:102C1000F6E770B5044680680D46164660B1D4F8F4
:102C20004C011FF03DF8D4F8143133B9D4F84C01FD
:102C30001FF054F84FF0FF3070BD9E422946A8BFE8
:102C40001E46A819814218D0D4F8143193B1D4F893
:102C5000103123441A7BD4F810310133DBB2C4F8AD
:102C60001031D4F81431013BC4F81431134601F883
:102C7000013BE7E74FF0FF33F9E7D4F84C011FF0D1
:102C80002DF83046D8E7D0F8143123B1D0F8103100
:102C90001844007B70474FF0FF307047704738B5DD
:102CA0000446D0F84C0108B11EF0FAFFA06840B10C
:102CB00094F819210368002A3AD05B6898470023EA
:102CC000A360D4F84C0108B11FF008F8D4F844010F
:102CD00050B11FF0FDF8D4F8440110B103685B68EF
:102CE00098470023C4F84431D4F848514DB12846E0
:102CF0001EF070FF142128461EF0E4FD0023C4F8E6
:102D00004831D4F84C514DB128461FF001F8242128
:102D100028461EF0D7FD0023C4F84C310023C4F828
:102D20000C3184F81831C4F81031C4F8143138BDAE
:102D30001B6BD4F850119847A06803689B689847AC
:102D4000BDE710B50446FFF701FF012805D0D4F810
:102D500014010028D4BF0020012010BD10B5044686
:102D60000021FDF705FB204610BD000038B5002509
:102D7000144B04464FF4807203602946C0E90155A4
:102D80000C302DF0EDF8C4F80C5184F8185104F50E
:102D90008E70C4F8105184F81951C4F81451FFF71B
:102DA000DDFF04F59670FFF7C5FE40F2DC53C4F872
:102DB00044512046C4F84851C4F84C51C4F850312D
:102DC00038BD00BF9C60070810B50446FDF7D3FA74
:102DD000204610BD074B10B504460360FFF75FFFA8
:102DE00004F59670FFF7E5FC04F58E70FFF7ECFF35
:102DF000204610BD9C60070810B50446FFF7EAFFA7
:102E00004FF4AA7120461EF05DFD204610BD10B49F
:102E1000D0E9003409686210E4075DF8044B01EB67
:102E2000020044BF8A58D35818470146043008B5F9
:102E3000FFF7EDFF08BD0000034A0346C26007C963
:102E400083E80700704700BF7C60070810B586B0B4
:102E500004460391684606A980E80C0001E90C00CD
:102E6000204603A9FFF7E8FF204606B010BD37B59E
:102E70006C46054684E80C0094E80C00FFF7E6FF7A
:102E8000284603B030BD00002DE9F0430B680E4624
:102E900004468BB0DB6A002130469847336804F55E
:102EA000967130469B6C9847D4F848313BB9142052
:102EB0001EF0D4FC05461EF077FEC4F84851D4F845
:102EC0004C313BB924201EF0C9FC05461EF0E0FE43
:102ED000C4F84C51D4F84C011EF0E2FED4F84491F1
:102EE000B9F1000F43D1BC201EF0B8FC05460746DF
:102EF000314B05F1400847F8043B3846FDF774FABA
:102F0000494640461EF026FF05F1540948461EF08A
:102F1000BFFE2A4B4FF4805218212846009300230D
:102F20001EF0AAFF264B214606A8C4F8445102937E
:102F30000023039302AB0CCBFFF799FF06A92846A9
:102F40001FF064F810E048461EF0E2FE40461EF016
:102F500040FF3846FDF74FFABC2128461EF0B2FC70
:102F600029F0C0FCF2E7F4E706A8FDF744FAD4F82C
:102F70004C011EF0B3FE3368214606A85D6B114B71
:102F800004930023059304AB0CCBFFF770FF06A955
:102F90003046A84706A8FDF72EFA012384F8183119
:102FA0000BB0BDE8F0831421D7E72421D5E706A8AC
:102FB000FDF721FAD4E7FAE7589307088860070875
:102FC000652A0408592A040870B504460E46FFF71E
:102FD00066FEA3684BB990201EF040FC054618F031
:102FE000C1F90123A56084F81931A56815B9002538
:102FF000284670BD60680368DB6F98470146284625
:1030000017F032FC05460028F1D1A068314603686C
:10301000DB689847094B984203D010B184F81851E7
:10302000E6E7A1682046FFF72FFF0125F6E790218C
:1030300028461EF047FC29F055FC00BF39F4FFFF7D
:10304000F0B5124B8DB006460D4600930B1D17468A
:1030500001AC0FCB84E80F002B7D694606A83A46E9
:103060008DF8143000F052F806A93046FFF7ACFF97
:1030700004E006A8FFF79DFB29F034FC044606A8EF
:10308000FFF797FB20460DB0F0BD00BF306E07087C
:1030900070B58CB004460D461646002118226846CD
:1030A0002CF05EFF6846FFF745FD6A4629466068DA
:1030B000ADF8166000F05BF8694606A817F0F1FE5F
:1030C00006A92046FFF780FF08E006A8FFF771FB7E
:1030D0006846FFF76EFB29F005FCF9E7044606A8F1
:1030E000FFF767FB6846FFF764FB20460CB070BD36
:1030F00008B5FFF79AFE08BD08B5FFF7F9FF08BD50
:10310000CB68C3600BB15B6818477047F0B587B0F8
:103110000C460546174601261122002101A82CF075
:103120001FFF002120468DF8046008F0FFFC0378A3
:10313000314620468DF8053008F0F8FC037802216E
:1031400020468DF8063008F0F1FC03780321204674
:103150008DF8073008F0EAFC03783A4601A92846C2
:103160008DF8083017F086FE284607B0F0BDF0B5A0
:10317000002385B004460E4602AD02938DF80C3054
:103180001746036829465B6C9847236800953A46C2
:103190001D68314601232046A84705B0F0BD7047A1
:1031A00070B504460D4608F0D1FDA0612946A0681F
:1031B0000368BDE870401B68184770B504460D46AB
:1031C000164608F0C3FDA0612946A0683246036890
:1031D000BDE870405B68184710B50446C0682CF025
:1031E00077FA204610BD2DE9F04105460E464FF412
:1031F0007A7708F0ABFD8046A86803681B6998479A
:10320000044658B908F0C6FD08F0A0FDAB8AA0EB53
:1032100008007B439842EFD3204605E0A868036886
:103220005B69984730700120BDE8F08138B514889B
:1032300015462144FFF7D7FF08B101342C8038BD73
:103240002DE9F74F002602AD8A46C16825F8026DC8
:103250002A460446FFF7EAFF18B9002003B0BDE88C
:10326000F08FE3680DF10809012793F8008009F851
:10327000036DBDF80630052B07D14FF0FF33A06872
:10328000E36403689B6A9847E7E749462046FFF7EF
:10329000AAFF0028E1D0BDF80630E268591CADF85D
:1032A00006109DF80510D1549DF8053003F07F02FB
:1032B00007FB02661A064FEAC717DAD408F0F008CF
:1032C0009DF80630B8F1300F03F1FF338AF8003073
:1032D0001DD12A46E1682046FFF7A8FF0028BCD090
:1032E0002A46E1682046FFF7A1FF0028B5D0E26832
:1032F0009AF80030134459789D78137805EB01252E
:103300009B07ADB201D50235ADB2022701E000271F
:103310003D46BDF806B0A7EB0B0707EB0B02964244
:103320002AD949462046FFF75EFF002895D0A06CB9
:1033300088B1B8F1300F0ED19AF80020C2F1FF2207
:1033400002F57F02FE325A44AA4204D902689DF86F
:10335000051012689047BDF80620218A914208D9CD
:103360009DF80500E1688854BDF806200132ADF8EB
:1033700006200BF1010BD0E7A26C22B9218A594536
:1033800038BFADF80620BDF8060067E773B5002525
:10339000DC1103F07F06A3B20CB146F08006681C76
:1033A0000DF1080CC0B2654405F8046C0546002C0C
:1033B000EED1C0F10405515501ADA04205DD231A3F
:1033C000615D013413445971F7E7013002B070BDFB
:1033D000F8B5064617461C46FFF7D8FFB368C0B2DB
:1033E0001A680444C0F1050118465568224639445C
:1033F000A847054608F0AAFCB061A8B2031B5842D2
:103400005841F8BD023330B598B20C46631A14F82F
:10341000015B9BB21DB1431C155498B2F6E7C11A6B
:103420000A44191202F8013C02F8021C30BD38B5FA
:103430000546806808B9002038BD0368DB6A9847F4
:10344000EC6C68B9002CF6D1A8686FF00203EB644D
:103450000368DB689847A86803689B6A9847EAE7AF
:10346000B4FA84F04009E7E72DE9F04F8BB0044649
:10347000894617461E46149D9DF860A0FFF7D7FFAA
:103480008046002840F0E980A0680368DB6A98471E
:10349000002840D00123E382734B049345F2544348
:1034A000ADF8143004238DF81630052304A9E26822
:1034B000194411F8051CD15401330C2BF6D1002D01
:1034C00047D09DF858309DF854205B0143F0040329
:1034D00043EAC203DBB2BAF1000F01D043F00203AA
:1034E0001FB1002E37D143F08003E26848461373C2
:1034F000638AE2681B125373E368628A9A73218AB3
:103500002DF09EFA238A1130984227D9A0680368CB
:103510009B6A9847A1E0D4F808B0216CDBF8003032
:1035200051B11B6A5846B4F8442098470128B1D0DD
:103530006FF00103E36490E0DB6904F1280104A863
:103540000193FFF7D5F8B4F8442004A95846019B2D
:10355000EBE72B46BFE743F0C003C6E749460F231E
:10356000E2682046FFF74EFF814605B3218A2846D0
:103570002DF066FA09F102031844238A9842C5D84F
:103580004B462946E2682046FFF73CFF218A054664
:1035900017982DF055FA0230238A28449842B5D85E
:1035A0002B46E26817992046FFF72CFF814617B398
:1035B000218A38462DF044FA09F102031844238A7F
:1035C0009842A3D84B46E26839462046FFF71AFFD7
:1035D000814686B1218A30462DF032FA09F1020384
:1035E0001844238A984291D84B46E26831462046D7
:1035F000FFF708FF8146A9F105034FF47A75E268E9
:1036000010219BB22046FFF7E3FE08F09FFBC4E9C0
:103610000600A06803681B69984758B908F096FB34
:10362000E369C01AA38A6B439842F2D36FF0030395
:10363000E3646BE70DF10F012046FFF701FE04285C
:103640007FF464AFE368DD785DB94FF0010808F0FE
:103650007DFB84F82050E061E56440460BB0BDE896
:10366000F08FE56452E700BF00044D5110B54FF0F4
:10367000010C86B00024CDE9034CCDE9014400944F
:10368000FFF7F2FE06B010BD2DE9F3470446FFF741
:10369000CEFE8046D0B108F059FB628A4FF47A73AF
:1036A00007465343E269821A9A4203D8A269821AF2
:1036B00093421FD294F8203063B16FF00303A068E7
:1036C0004FF00008E36403689B6A9847404602B0E5
:1036D000BDE8F087E268C0211170E26853700222F1
:1036E000A068E16803685B6898470123C4E906772E
:1036F00084F82030A06803681B6998470028E5D04B
:103700000DF107012046FFF79BFD064683B2002B13
:1037100073D0E368E7611A7802F0F002302A57D1DB
:10372000626A002AD2D09DF807209918901C497827
:103730001D5C184405EB0125D11CADB219442A4685
:103740002CF0AAFBE3689DF807202B4413440022C9
:103750009A70B2B2E1689DF807C091F800900CF140
:103760000200666A09F006090CF103030844A2EBA3
:103770000C02B9F1020F25D12B440CF1050C521BA0
:1037800011F803E00B446544053A93F801A029447D
:103790000AEB0E2AB047E36840221FFA8AFA1A7031
:1037A0004FEA2A22E36883F80190E3689A700422C2
:1037B000E36883F803A0A068E16803685B68984742
:1037C000A76183E72B44033A1944521BB0477DE7B6
:1037D000C02A0BD1D0221A700022E3685A7002224C
:1037E000A068E16803685B6898476FE7D02A7FF4B8
:1037F0006DAF002384F8203068E72046FFF717FEFE
:10380000002808BF4FF0000860E72DE9F0470446A4
:10381000884617461D469DF82060FFF708FE48B30E
:10382000B4F81090404649462DF00AF9EB1D1844B3
:1038300081451FD341460523E2682046FFF7E2FD9C
:1038400000211FFA81FC4318E2680131AC459BB2AC
:1038500004D217F80CC002F803C0F2E7002EA3F15F
:10386000050320469BB214BF31213021BDE8F0474B
:10387000FFF7AEBD0020BDE8F087F7B505460E4660
:103880001F46144662B1018A10462DF0D9F803464E
:103890002246314600972846FFF7B7FF03B0F0BD38
:1038A0001046F4E70164A0F84420704738B5044698
:1038B0000D4609B9002038BD038A4BB908462BF0E4
:1038C000FFFEE060E0682582003018BF0120F2E7CB
:1038D000C0682CF0A5FB0028F3D1EBE770B50C4BCA
:1038E000002504460E46456040F8283B08F004F9E0
:1038F0004FF0FF33A6604FF48071E3642046A56467
:103900002582FFF7D3FF0F2320466382A38270BD79
:10391000B460070801207047012A03D0022A03D0AF
:10392000002070470160FBE70B680360F8E7012A9D
:1039300003D0022A03D0002070470160FBE70B6828
:103940000360F8E7012A03D0022A03D00020704761
:103950000160FBE70B680360F8E7012A03D0022A45
:1039600003D0002070470160FBE70B680360F8E7B5
:10397000012A03D0022A03D0002070470160FBE730
:103980000B680360F8E7012A03D0022A03D0002065
:1039900070470160FBE70B680360F8E7012A03D07A
:1039A000022A03D0002070470160FBE70B68036028
:1039B000F8E7012A03D0022A03D0002070470160F3
:1039C000FBE70B680360F8E7012A03D0022A03D063
:1039D000002070470160FBE70B680360F8E7012AED
:1039E00003D0022A03D0002070470160FBE70B6878
:1039F0000360F8E7012A03D0022A03D000207047B1
:103A00000160FBE70B680360F8E7012A03D0022A94
:103A100003D0002070470160FBE70B680360F8E704
:103A2000012A03D0022A03D0002070470160FBE77F
:103A30000B680360F8E7012A03D0022A03D00020B4
:103A400070470160FBE70B680360F8E7012A03D0C9
:103A5000022A03D0002070470160FBE70B68036077
:103A6000F8E7012A03D0022A03D000207047016042
:103A7000FBE70B680360F8E7012A03D0022A03D0B2
:103A8000002070470160FBE70B680360F8E7012A3C
:103A900003D0022A03D0002070470160FBE70B68C7
:103AA0000360F8E7012A03D0022A03D00020704700
:103AB0000160FBE70B680360F8E7012A03D0022AE4
:103AC00003D0002070470160FBE70B680360F8E754
:103AD000012A03D0022A03D0002070470160FBE7CF
:103AE0000B680360F8E7012A03D0022A03D0002004
:103AF00070470160FBE70B680360F8E7012A03D019
:103B0000022A03D0002070470160FBE70B680360C6
:103B1000F8E7012A03D0022A03D000207047016091
:103B2000FBE70B680360F8E7012A03D0022A03D001
:103B3000002070470160FBE70B680360F8E7012A8B
:103B400003D0022A03D0002070470160FBE70B6816
:103B50000360F8E7012A03D0022A03D0002070474F
:103B60000160FBE70B680360F8E7012A03D0022A33
:103B700003D0002070470160FBE70B680360F8E7A3
:103B8000012A03D0022A03D0002070470160FBE71E
:103B90000B680360F8E7012A03D0022A03D0002053
:103BA00070470160FBE70B680360F8E7034B10B553
:103BB0000446036003F0F6FD204610BDE0600708F0
:103BC00010B50446FFF7F2FF642120461DF07AFE8F
:103BD000204610BD2DE9F0410A4C0027A4F24C46C6
:103BE00004F12C0504F1D80855F8040B18B11DF0A8
:103BF0007CFE45F8047CA845F6D1DC3CB442EFD10C
:103C0000BDE8F0819C23002404F0E4B8B1F57A6F9C
:103C100019D0A1F6AA73132B15D9A1F6C8721B2AC5
:103C200003D80A4BD340DB070DD4A1F6E6711C295B
:103C300097BF07480120C840C04398BF00F001006B
:103C400080F0010070470120704700BFFFFCF30FB8
:103C5000FFFCF71F2A2909D800EB8103DB6A2BB18F
:103C600040560428D4BF0020012070470020704730
:103C700070B501F10D050C460646E9B2FFF7EAFF03
:103C800048B106EB8404206E08B11DF02EFE00231F
:103C90002366FF23735570BD2DE9F0412A2A1E4685
:103CA0004FF0010305468846144680F8D83013D8F3
:103CB00096B100EB8207F86A28B11DF016FE0023CA
:103CC000FB62FF232B5530461DF0E0FD3246F862C3
:103CD00041462CF047F82E55BDE8F08110B58368B9
:103CE000044613B1032201469847204610BD000048
:103CF00000F10803002213B5036002A91323044650
:103D000041F8043D29F070F9019B074A2060A36047
:103D1000A2F1130129F094F9019B226800212046A9
:103D20006360D15402B010BDD760070810B54FF4DE
:103D30007A61044603F06FFD50B340F6AF71204640
:103D400003F069FD20B34FF47B61204603F063FD6F
:103D5000F0B140F6B271204603F05DFDC0B140F60F
:103D6000B371204603F057FD90B140F6B171204683
:103D700003F051FD60B140F6B471204603F04BFDF5
:103D800030B1204640F6B571BDE8104003F043BDA8
:103D9000002010BD10B54FF47A61044603F03BFDDE
:103DA000F0B140F6AA71204603F035FDC0B140F6EF
:103DB000AB71204603F02FFD90B140F6AC71204668
:103DC00003F029FD60B140F6AD71204603F023FDFC
:103DD00030B1204640F6AE71BDE8104003F01BBD87
:103DE000002010BD10B54FF47A61044603F013FDB6
:103DF000C0B140F6BA71204603F00DFD90B140F617
:103E0000BB71204603F007FD60B140F6BC7120464F
:103E100003F001FD30B1204640F6BD71BDE8104011
:103E200003F0F9BC002010BD10B54FF47A610446D0
:103E300003F0F1FC60B140F6B771204603F0EBFCF3
:103E400030B1204640F6B871BDE8104003F007BD20
:103E5000002010BDC06B20B1002222213C3004F0B4
:103E600030B970470068FFF7F5BF036813211B6A7C
:103E70001847036811211B6A1847072938B50446FB
:103E800015460BD80368002201F6FA711B699847A2
:103E900025B12046BDE83840FFF7EBBF38BDC06B09
:103EA00000220B213C3004F017B90068FFF7F7BF80
:103EB000C06B002212213C3004F00EB90068FFF7FD
:103EC000F7BFC06B20B1002220210C3004F0DBB81A
:103ED00070470068FFF7F5BF0068FFF7F2BF0068A2
:103EE000FFF7EFBF0068FFF7ECBF0068FFF7E9BF1F
:103EF0000068FFF7E6BF0068FFF7E3BF0068FFF761
:103F0000E0BF0068FFF7DDBF0068FFF7DABF70B5FC
:103F100006460C464CB1E1683046FFF7F8FFA5684D
:103F200020461DF0C3FC2C46F4E770BD70B5064674
:103F30000C464CB1E1683046FFF7F8FFA568204613
:103F40001DF0B4FC2C46F4E770BD13B50B460446D7
:103F50006A46D0E9000182E8030093E8030084E8A0
:103F6000030092E8030083E8030002B010BD38B5F7
:103F700005460C46FFF7E9FFAB68A268AA60A3609C
:103F8000E268EB68EA60E36038BD38B505460C4688
:103F9000FFF7DBFFAB68A268AA60A360E268EB688A
:103FA000EA60E36038BD70B58B68044616460D1DA7
:103FB000012053B11A691D463068904239BF9A6892
:103FC0000120DA6800201346F3E790B1CA68AA42DC
:103FD00003D1C4E90035204670BD284628F04CFFC7
:103FE000336802699A424FF00003F2D3C4E9000338
:103FF000F1E72846F4E72DE9F74300F10408054608
:104000000E46836844464BB13268196991423ABF03
:10401000DA6823469A681C461346F4E7A04503D0A5
:10402000326823699A422CD218201DF017FC36689A
:10403000074600F110090661A0454FF000007861C5
:1040400024D16B691BB12A691369B3420AD34A466A
:1040500029466846FFF7A7FFDDE90042002A4ED057
:10406000002C4AD1904548D0106986422CBF0020D0
:1040700001204346394628F001FF6B6901336B612B
:104080003C4604F1140003B0BDE8F0832369B34259
:1040900019D9EB689C420BD0204628F0EDFE03694D
:1040A000B34208D2C368002B0ABF0446234600234C
:1040B00022461C46D2E74A4629466846FFF773FF68
:1040C000DDE90034F4E71AD22A69944209D0204687
:1040D00028F0B6FE0369B34205D9E3685BB922460E
:1040E00018460446BAE74A4668462946FFF75BFF8A
:1040F000DDE90002F5E70246F3E70120B9E73846BB
:1041000027461DF0D3FBBBE72DE9F743804603F0BC
:1041100021FB1B4B02AD444644F8083B41F202032D
:10412000204645F8043D2946FFF765FF002640F686
:10413000A2722946066020460192FFF75CFF40F616
:10414000A3730660294620460193FFF754FF3746C4
:10415000066040F6E47940F6DC7629462046019672
:10416000FFF749FF013607604E45F6D1404603B0E0
:10417000BDE8F083404603F015FB28F0B3FB00BF19
:10418000E060070810B564201DF068FB0446FFF7E7
:10419000BBFF05E0642120461DF094FB28F0A2FB44
:1041A000204610BD2DE9F04F85B04FF47A6300F141
:1041B0000806044604AD304645F8043D2946FFF79D
:1041C0001AFF0368072B08D994F83830042B04D958
:1041D0000027384605B0BDE8F08FE36B002BF7D021
:1041E0002046FFF7D7FD0028F2D04FF47A63E76B43
:1041F000294630460393FFF7FEFE03220178384636
:1042000002F0FAFA40F6AA73E76B294630460393A8
:10421000FFF7F1FE04220178384602F0EDFA40F68D
:10422000AB73E76B294630460393FFF7E4FE0522A4
:104230000178384602F0E0FA40F6AC73E76B2946A5
:1042400030460393FFF7D7FE06220178384602F086
:10425000D3FA40F6AD73E76B294630460393FFF778
:10426000CAFE07220178384602F0C6FA40F6AE735D
:10427000E76B294630460393FFF7BDFE082201781D
:10428000384602F0B9FA40F6A27329463046039345
:10429000FFF7B1FE0168092201293ED14FF00D0A56
:1042A000E06B02F0A9FA40F6A27329463046DFF827
:1042B00078800393FFF79FFE0023072209214FF424
:1042C0007A6B0360E06B3C3003F0FBFEDC2394F878
:1042D000389007462946304609FB03890193CDF8FB
:1042E0000CB0FFF788FE01784846FFF7C1FC94F850
:1042F0003820019B29463046E46B02FB0388CDF849
:104300000CB0FFF778FE02683C343B46404652440E
:104310002146D2B2FFF7C0FC5BE70221E06B02F05E
:104320006BFA4FF0000ABEE72C2000240068FFF76C
:1043300039BF00002DE9F74F4FF47A6302AD00F169
:104340000806044645F8043D29463046FFF753FE6B
:104350000368072B08D994F83830042B04D90027B8
:10436000384603B0BDE8F08FE36B002BF7D0204652
:10437000FFF7DCFC0028F2D0E76B4FF47A6929469E
:104380003046CDF80490FFF736FE03220178384618
:10439000DFF818B102F030FAE76B40F6AF73294648
:1043A00030464FF0DC080193FFF725FE0422017828
:1043B000384602F021FA4FF47B63E76B294630461A
:1043C0000193FFF718FE05220178384602F014FA2F
:1043D0000622E06B012102F00FFAE76B40F6B173A1
:1043E000294630460193FFF706FE0722017838463A
:1043F00002F002FAE76B40F6B473294630460193A7
:10440000FFF7F9FD08220178384602F0F5F9E76B6D
:1044100040F6B573294630460193FFF7ECFD0922BB
:104420000178384602F0E8F9E76B40F6B2732946A6
:1044300030460193FFF7DFFD0A220178384602F08B
:10444000DBF940F6B373E76B294630460193FFF77B
:10445000D2FD0B220178384602F0CEF9E06B09223A
:1044600011213C3003F02DFE94F838A00746294670
:104470000AFB08BA3046CDF80490FFF7BCFD01787E
:104480005046FFF7F5FB94F83830E46B294603FB00
:1044900008B830463C34CDF80490FFF7ACFD3B46FD
:1044A000027821464046FFF7F7FB59E72C2000240D
:1044B0000068FFF73FBF00002DE9F74F4FF47A6324
:1044C00002AD00F10806044645F8043D2946304691
:1044D000FFF791FD0368072B08D994F83830042BB7
:1044E00004D90027384603B0BDE8F08FE36B002BFA
:1044F000F7D02046FFF776FC0028F2D0E76B4FF4A8
:104500007A6929463046CDF80490FFF774FD0322FE
:1045100001783846DFF8C0B002F06EF9E76B40F67C
:10452000BA73294630464FF0DC080193FFF763FD6C
:1045300004220178384602F05FF9E76B40F6BB735E
:10454000294630460193FFF756FD0522017838468B
:1045500002F052F9E76B40F6BC73294630460193EE
:10456000FFF749FD06220178384602F045F940F68A
:10457000BD73E76B294630460193FFF73CFD0722E8
:104580000178384602F038F9E06B05220C213C3006
:1045900003F097FD94F838A0074629460AFB08BAAD
:1045A0003046CDF80490FFF726FD01785046FFF71E
:1045B0005FFB94F83830E46B294603FB08B83046BB
:1045C0003C34CDF80490FFF716FD3B4602782146B7
:1045D0004046FFF761FB85E72C2000240068FFF7C9
:1045E0006BBF00002DE9F74F4FF47A6302AF00F183
:1045F0000808054647F8043D39464046FFF7FBFCEE
:104600000368072B08D995F83830042B04D9002407
:10461000204603B0BDE8F08FEC6B002CF8D04FF4CF
:104620007A6939464046CDF80490FFF7E4FC03224E
:104630000178204602F0E0F8E86B012224213C30AA
:1046400003F03FFD95F838B00446BBF1040FDFD806
:10465000DFF840A0DC2639464046CDF80490FFF74D
:10466000CAFC01780BFB06A0FFF702FB95F8383077
:10467000ED6B394603FB06A640463C35CDF8049069
:10468000FFF7B9FC2346027829463046FFF704FBC2
:10469000BEE700BF2C2000240068FFF7A3BF37B59A
:1046A0004FF47A630D4602A90446083041F8043DF0
:1046B000FFF7A1FC2368142105601B6A2046984778
:1046C00003B030BD37B540F6B9730D4602A90446B4
:1046D000083041F8043DFFF78EFC23681221056085
:1046E0001B6A2046984703B030BDF7B541F204037A
:1046F00002AC00F10806054644F8043D0F4630467A
:104700002146FFF778FC40F6A37307602146304648
:104710000193FFF770FC01231221036028462B68E8
:104720001B6A984703B0F0BD2DE9F34790F8383085
:104730000446042B04D90025284602B0BDE8F087C2
:1047400002AD00F1080640F6A377304645F8047D37
:104750002946FFF750FC0368002B41D0294630461C
:1047600001974FF02A08FFF746FC4FF0310900236C
:1047700041F204070360E36B002BDCD0394620468E
:1047800003F049F80028D6D0D4F83CA0294630469A
:104790000197FFF730FC03220178504602F02CF815
:1047A000D4F83CA0294630460197FFF724FC0422A8
:1047B0004178504602F020F8E06B494602223C3036
:1047C00003F07FFC94F838600546E16B0346084C23
:1047D000DC2042463C3106FB0040FFF75DFAABE7C8
:1047E0004FF00C084FF0100940F6B977C3E700BF4F
:1047F0002C2000240068FFF797BF2DE9F347A1F1B3
:1048000008089A46064691465FFA88F3032B5AD861
:104810000AB1524557D94FF47A6702AC06F1080540
:1048200044F8047D21462846FFF7E5FB2146C0F801
:10483000008028460197FFF7DEFB036821462846E3
:10484000019703F6C878FFF7D6FB07683046414664
:1048500007F6CC7702F0DFFFA0B921462846CDF855
:104860000480FFF7C8FB2146C0F800902846019756
:10487000FFF7C1FB3368C0F800A00E211B6A304669
:10488000984720E03946304602F0C5FF0028E4D0C2
:1048900040F6A373214628460193FFF7ACFB03685B
:1048A000012BDAD002A9284641F8088DFFF7A3FBB7
:1048B00003684B45D1D1214628460197FFF79BFB62
:1048C00003685345C9D102B0BDE8F087F7B50D467E
:1048D0001F4602A940F6A3730446083041F8043D80
:1048E0001646FFF788FB01233246294603603B4604
:1048F0002046FFF782FF03B0F0BD0000C36B2DE937
:10490000F347044623B90027384602B0BDE8F087D4
:104910004FF47A6902AD00F1080645F8049D294676
:104920003046FFF768FB2946D0F800803046CDF8C6
:104930000490FFF760FB49460768204602F06BFFD2
:104940000028E0D008F6C8782046414602F063FF10
:104950000028D8D007F6CC772046394602F05BFF16
:104960000028D0D0D4F83CA029463046CDF8049099
:10497000FFF741FB03220178504601F03DFFD4F8D8
:104980003C9029463046CDF80480FFF734FB0422E2
:104990000178484601F030FFD4F83C902946304673
:1049A000CDF80480FFF727FB05224178484601F047
:1049B00023FFD4F83C9029463046CDF80480FFF719
:1049C0001AFB06228178484601F016FFD4F83C9085
:1049D00029463046CDF80480FFF70DFB0722C17849
:1049E000484601F009FFD4F83C802946304601973B
:1049F000FFF701FB08220178404601F0FDFED4F8E4
:104A00003C80294630460197FFF7F5FA09224178A4
:104A1000404601F0F1FED4F83C802946304601972B
:104A2000FFF7E9FA0A228178404601F0E5FED4F862
:104A30003C80294630460197FFF7DDFA40F6A37720
:104A4000C1780B22404601F0D7FE29463046019737
:104A5000FFF7D1FA0368012B2AD129463046019786
:104A60004FF02609FFF7C7FA002333210360E06BFC
:104A700009223C3003F025FB94F838800746B8F152
:104A8000040F3FF641AF4FF47A63E46B294630469A
:104A900001933C34FFF7AFFA0268214606484A44C6
:104AA000DC243B46D2B208FB0400FFF7F5F82BE705
:104AB0004FF008091321DAE72C2000240068FFF7E3
:104AC0001DBFC36B37B5044613B9002003B030BD1A
:104AD0004FF47A6102F09FFE0028F6D002A94FF44D
:104AE0007A63E56B04F1080041F8043DFFF783FAAF
:104AF00003220178284601F07FFEE06B01220A21A3
:104B00003C3003F0E9FAE1E70068FFF7DABF2DE98E
:104B1000F7430546C06B20B90027384603B0BDE80F
:104B2000F08303220A210C3003F099FA074600288B
:104B3000F2D00321E86B01F065FE07280446ECD8AB
:104B400005F1080802AE0421E86B04F6D27401F006
:104B500059FE8146404646F8044D3146FFF74BFA70
:104B60000521C0F80090E86B01F04CFE3146054687
:104B700040460194FFF73FFA036803EB0523036007
:104B8000CBE70068FFF7C3BF07292DE9F7430746C6
:104B90000E469146984630D800F1080402AD4FF415
:104BA0007A63204645F8043D2946FFF724FA06605B
:104BB00006F6DC76294620460196FFF71CFA41F6F8
:104BC000FF732946994594BFC0F80090036040F6F2
:104BD000A173204603240193FFF70DFAC0F800806B
:104BE0003B680F2138461B6A984730B1013C0520CD
:104BF00007F0BEF814F0FF04F2D103B0BDE8F08373
:104C000073B540F6A3730D4602A904460830164654
:104C100041F8043DFFF7EFF90123324629460360CE
:104C200000232046FFF7B0FF02B070BD2DE9F74327
:104C30004FF47A6302AE00F10805044646F8043DDD
:104C400031462846FFF7D7F90368072B08D994F8AF
:104C50003830042B04D90027384603B0BDE8F08370
:104C6000E76B002FF8D04FF47A61204602F0D3FDB5
:104C70000028F0D04FF47A6831462846CDF80480F9
:104C8000FFF7B9F90168204601F6DC7102F0C3FDB7
:104C90000028E0D0E76B31462846CDF80480FFF7C6
:104CA000AAF90178384602AF032201F0A5FD47F8C2
:104CB000088D28463946D4F83C90FFF79CF90368E4
:104CC0003146284603F6DC730193FFF794F904227A
:104CD0000178484601F090FD39462846D4F83C90CA
:104CE000CDF80080FFF787F903683146284603F6C0
:104CF000DC730193FFF77FF905224178484601F004
:104D00007BFD40F6A173E76B314628460193FFF720
:104D100072F906220178384640F6A37701F06CFD5F
:104D2000314628460197FFF766F9036843B33146D9
:104D3000284601974FF01E08FFF75DF900233D213B
:104D40000360E06B04224FF0DC093C3003F0B9F95A
:104D500094F838200C4B07463146284602FB0939A7
:104D60004FF47A63E46B0193FFF745F902683C3432
:104D70003B46484642442146D2B2FEF78DFF6BE7E0
:104D80004FF015080D21DCE72C2000240068FFF708
:104D90004DBFC36B37B5044613B9002003B030BD17
:104DA0004FF47A6102F037FD0028F6D002A94FF4E3
:104DB0007A63E56B04F1080041F8043DFFF71BF945
:104DC00003220178284601F017FDE06B01220F2134
:104DD0003C3003F081F9E1E70068FFF7DABF2DE925
:104DE000F34100F1080702AD4FF47A6806463846F1
:104DF00045F8048D2946FFF7FEF80368072B15D800
:104E0000F46BACB129463846CDF80480FFF7F3F8CF
:104E100003220178204601F0EFFCF06B01224021D3
:104E20003C3003F059F902B0BDE8F0810020FAE708
:104E30002046F8E70068FFF7D2BF2DE9F3410546A9
:104E4000C06B20B90026304602B0BDE8F0810222D6
:104E500040210C3003F003F906460028F2D003216C
:104E6000E86B01F0CFFC05F1080740F6A57302AC32
:104E70008046384644F8043D2146FFF7BCF804213B
:104E8000C0F80080E86B01F0BDFC40F6A473054655
:104E9000214638460193FFF7AEF80560D3E7006876
:104EA000FFF7CBBFF7B54FF47A6302AD00F1080608
:104EB000044645F8043D29463046FFF79CF8036850
:104EC000072B07D994F83830042B03D9002528463E
:104ED00003B0F0BDE36B002BF8D041F20201204695
:104EE00002F099FC0028F1D041F20203E76B294659
:104EF00030460193FFF77FF803220178384601F02E
:104F00007BFCE06B012215213C3003F0DAF894F8C9
:104F100038600546E16B0346044CDC201D223C3121
:104F200006FB0040FEF7B8FED1E700BF2C200024AE
:104F30000068FFF7B7BF2DE9F3470646C06B1022A4
:104F40000B210C3003F08BF8804648B340F6D27446
:104F500006F1080740F6DA79E5B2F06B69005F31D7
:104F6000C9B201F04FFC01A9824638460194FFF70F
:104F700042F805F13001C0F800A0F06B490001F0E3
:104F8000FE0101F03FFC01A9054638460194FFF7F8
:104F900032F8013403684C4503EB05230360DBD191
:104FA000404602B0BDE8F0870068FFF7C4BF73B5A4
:104FB0000446C06B012212210C3003F050F8054664
:104FC00070B10321E06B01F01DFC02A940F6F873FB
:104FD000064604F1080041F8043DFFF70CF80660AE
:104FE000284602B070BD0068FFF7E1BF70B58B685E
:104FF000044616460D1D012053B11A691D4630683E
:10500000904239BF9A680120DA6800201346F3E71E
:1050100090B1CA68AA4203D1C4E90035204670BDE8
:10502000284627F029FF336802699A424FF00003AF
:10503000F2D3C4E90003F1E72846F4E72DE9F7438A
:1050400000F1040805460E46836844464BB13268B9
:10505000196991423ABFDA6823469A681C4613469A
:10506000F4E7A04503D0326823699A422BD2182076
:105070001CF0F4FB36680023A045074600F1100938
:105080000661436124D16B691BB12A691369B3427C
:105090000AD34A4629466846FFF7A8FFDDE90042E1
:1050A000002A4ED0002C4AD1904548D01069864243
:1050B0002CBF002001204346394627F0DFFE6B69F4
:1050C00001336B613C4604F1140003B0BDE8F0838A
:1050D0002369B34219D9EB689C420BD0204627F0D4
:1050E000CBFE0369B34208D2C368002B0ABF044653
:1050F0002346002322461C46D2E74A4629466846F4
:10510000FFF774FFDDE90034F4E71AD22A6994420C
:1051100008D0204627F094FE0369B34204D9E3681F
:105120005BB92246002006E04A4668462946FFF75A
:105130005DFFDDE900020446B2E70246FBE701201D
:10514000B9E7384627461CF0B1FBBBE72DE9F04F25
:1051500085B04FF47A6300F10806044604AD30468A
:1051600045F8043D2946FEF746FF0368072B08D99A
:1051700094F83830042B04D90027384605B0BDE830
:10518000F08FE36B002BF7D02046FEF74DFE002892
:10519000F2D04FF47A63E76B294630460393FEF76B
:1051A0002AFF03220178384640F6B87801F024FB44
:1051B00040F6B773E76B294630460393FEF71BFFB3
:1051C00004220178384601F017FB04F1200704A9F6
:1051D000384641F8088DFFF731FFF3EE097A90ED7C
:1051E000007AB4EEE77AF1EE10FA07D52946384690
:1051F000CDF80C80FFF722FFD0ED007A0DF11008FA
:1052000017EE903A002748F80C3D7A1D18F8071061
:105210000137E06BD2B201F0EFFA042FF5D1E06B69
:1052200006220E21DFF854B03C304FF0DC0802F0CB
:1052300048FF94F838904FF47A6A074609FB08B99A
:1052400029463046CDF80CA0FEF7D5FE0178484639
:10525000FEF70EFD94F83830E46B294603FB08B8DE
:1052600030463C34CDF80CA0FEF7C5FE3B46027834
:1052700021464046FEF710FD7FE700BF2C200024AA
:105280000068FFF763BF73B50546C06B18B9002609
:10529000304602B070BD05220F210C3002F0DFFE57
:1052A00006460028F3D00024211DE86BC9B201F0A6
:1052B000A9FA0DF804000134042CF5D10321E86BA0
:1052C00001F0A0FA02A900F6E67041F8040D05F11C
:1052D0002000FFF7B3FE009B0360D9E70068FFF7EB
:1052E000D2BF436810B50C46FBB15A684260D2B1D8
:1052F000D1688B424FF0000113D1D160926842B166
:1053000042604268D16809B14160FAE7926802B12F
:10531000426003F1100294E8030082E8030018469B
:1053200010BD9160F5E70260F3E718201CF096FAD3
:105330000346EEE72DE9F0470D468046103118464A
:1053400016461F46FFF7CDFF2B78466004460370D4
:105350000023C0E90233E96829B102463B464046D2
:10536000FFF7E8FFE060AE68A1464FF0000A26B301
:1053700006F110013846FFF7B4FF33780546037095
:10538000C0E902AAC9F80800C0F80490F16829B180
:1053900002463B464046FFF7CDFFE860B668A946A7
:1053A000E5E727F0D7F921464046FEF7B0FD27F0A4
:1053B000CBFB27F00FFA27F095FA2046BDE8F087DF
:1053C000436810B50C46FBB15A684260D2B1D1684F
:1053D0008B424FF0000113D1D160926842B142601C
:1053E0004268D16809B14160FAE7926802B142604F
:1053F00003F1100294E8030082E80300184610BD90
:105400009160F5E70260F3E718201CF027FA0346E5
:10541000EEE72DE9F0470D46804610311846164656
:105420001F46FFF7CDFF2B7846600446037000232C
:10543000C0E90233E96829B102463B464046FFF71E
:10544000E8FFE060AE68A1464FF0000A26B306F11F
:1054500010013846FFF7B4FF337805460370C0E902
:1054600002AAC9F80800C0F80490F16829B1024600
:105470003B464046FFF7CDFFE860B668A946E5E742
:1054800027F068F921464046FEF750FD27F05CFB07
:1054900027F0A0F927F026FA2046BDE8F0870000A3
:1054A00030B587B004460D4602F054F9474B002250
:1054B000236084F8392084F83A20EB6BE363FF2300
:1054C00084F8383095F83930042B3ED104F10800C7
:1054D00005F10803984224D02369A1690093CDE91E
:1054E000011013B15A608B6803B10193002304F1DA
:1054F0000C022361E361C4E90522296969B16B46A5
:10550000FFF718FF03469A6812BB63610346DA6827
:1055100002BBA361EB692061E36100990298FEF789
:10552000F6FC04F1200005F1200398421DD195F806
:10553000393084F8393095F83A3084F83A30EB6BEA
:10554000E36395F8383084F83830204607B030BD32
:105550001346D8E71346DAE700990298FEF7D7FC1E
:10556000204602F01FF927F0BDF9A36A226B0393CE
:10557000CDE904201BB100215960936803B1049365
:10558000002304F12402A3626363C4E90B22A96A25
:1055900069B103ABFFF73DFF03469A6862B9E36266
:1055A0000346DA6852B923636B6BA06263630399A5
:1055B0000598FEF7BBFCBAE71346EEE71346F0E7A3
:1055C00003990598FEF7B2FCCAE700BFE060070840
:1055D0002DE9F04F80469FB0B8B100F13C03414D3A
:1055E000002703933946404601F056F9014605A8C5
:1055F000FFF756FF05A802F01EF848B9013705A8C5
:10560000FEF7D4FADC35052FECD11FB0BDE8F08FE2
:1056100095F8D84064B30026AA57531C11D005EB67
:105620008603D96A19B103982AF09CFBA95711F097
:10563000FF0408D101362B2EEED105A8FEF715FC8C
:10564000DCE70021F3E700209DF84E909DF84CA088
:105650009DF84DB002F000FD5B4652464946CDE94B
:105660000040404601F008FD322006F081FBE1E7F2
:10567000E6B205A83146FFF712F80022314605A828
:10568000FFF7BEFA0134082CF2D1E6B2002305A8D8
:105690001A463146FFF7B1F80023314605A81A46ED
:1056A000FFF714F901340C2CEFD100240022E1B2F1
:1056B00005A8FEF7E2FB0134082CF7D105A8FEF798
:1056C000D8FB4FF47A7105A8FEF7FCFF4FF6FF7187
:1056D00005A8FFF70AF891E705A8FEF767FA27F093
:1056E00001F900BF2C200024124A00232DE9F041CB
:1056F0001846561E02F12C0702F1D80C4FF0FF0E8F
:1057000040F24C45D118F4180CEB030881F8D8008E
:10571000F91804F801EF41F8040B4145F9D1DC33E5
:10572000AB42EFD1044A00200449BDE8F0411BF030
:1057300043BE00BF2C20002400000024D53B0408F9
:10574000002330B5036685B0C36B0446002B00F020
:10575000EF818B1E132B00F2E781DFE813F0F700D7
:1057600085001501E501E501E501E501E50114000C
:105770003D004F0061007300A300C700E500B500C5
:1057800033014501C701A14B00F14001009068467B
:1057900003939F4B0293FEF7EAFB6846FEF79EFADF
:1057A0009C4B009403939C4B04F150016846029378
:1057B000FEF7EBFB6846FEF791FA236800209D6B2D
:1057C00002F04AFC01462046A8472146E06B01F062
:1057D000ACFB206E05B030BD904B00F14001009055
:1057E000684603938E4B0293FEF7C1FB6846FEF7B3
:1057F00075FA8C4B009403938B4BD5E78B4B00F1E0
:105800004001009068460393894B0293FEF7AFFB7B
:105810006846FEF763FA874B00940393864BC3E711
:10582000864B00F14001009068460393844B02933D
:10583000FEF79DFB6846FEF751FA824B00940393F6
:10584000814BB1E7814B00F1400100906846039322
:105850007F4B0293FEF78BFB6846FEF73FFA7D4BCA
:10586000009403937C4B9FE77C4B00F14001009038
:10587000684603937A4B0293FEF779FB6846FEF77E
:105880002DFA784B04F1500168460393764B00944F
:105890000293FEF77AFB6846FEF720FA236803209E
:1058A0009D6B8DE7714B00F14001009068460393BA
:1058B0006F4B0293FEF75BFB6846FEF70FFA6D4BEA
:1058C000009403936C4B6FE76C4B00F14001009028
:1058D000684603936A4B0293FEF749FB6846FEF75E
:1058E000FDF9684B00940393674B5DE7674B00F14C
:1058F0004001009068460393654B0293FEF737FB27
:105900006846FEF7EBF9634B04F1500168460393D8
:10591000614B00940293FEF738FB6846FEF7DEF910
:10592000236805209D6B4BE75C4B00F14001009024
:10593000684603935A4B0293FEF719FB6846FEF73D
:10594000CDF9584B00940393574B2DE7574B00F17B
:105950004001009068460393554B0293FEF707FB06
:105960006846FEF7BBF9534B04F1500168460393B8
:10597000514B00940293FEF708FB6846FEF7AEF920
:10598000236801209D6B1BE74C4B00F14001009008
:10599000684603934A4B0293FEF7E9FA6846FEF71E
:1059A0009DF9484B04F1500168460393464B00941F
:1059B0000293FEF7EAFA6846FEF790F92368102092
:1059C0009D6BFDE6414B00F140010090684603935A
:1059D0003F4B0293FEF7CBFA6846FEF77FF93D4B4B
:1059E000009403933C4BDFE63C4B00F140010090F8
:1059F000684603933A4B0293FEF7B9FA6846FEF7FE
:105A00006DF9384B00940393374BCDE62D430408D2
:105A100019390408D33E04082F390408B144040896
:105A200045390408D93E04085B390408815204084A
:105A300071390408DF3E040887390408DD4504088D
:105A40009D390408E53E0408B3390408BD4A04083A
:105A5000C9390408EB3E0408DF390408094B04087F
:105A6000F5390408834B04080B3A04088D4D0408EB
:105A7000213A0408F13E0408373A0408F5470408BF
:105A80004D3A0408F73E0408633A0408D94D040867
:105A9000793A0408DD5204088F3A0408314F0408AB
:105AA000A53A0408FD3E0408BB3A0408BD3E0408BC
:105AB000D13A0408E74F0408E73A0408AB3E04086B
:105AC000FD3A0408A94F0408133B0408653E040886
:105AD000293B0408033F04083F3B04089946040897
